:020000040800F2
:100000009007002045010008D1150008471000089E
:10001000CD1500085B090008DF260008000000007D
:10002000000000000000000000000000ED190008C2
:100030007F0D00080000000059160008531C00083E
:100040005F0100085F0100085F0100085F01000810
:100050005F0100085F0100085F0100085F01000800
:100060005F0100085F0100085F0100085F010008F0
:100070005F0100085F0100085F0100085F010008E0
:100080005F0100085F0100085F0100085F010008D0
:100090005F0100085F0100085F010008810D000892
:1000A0005F0100085F0100085F0100085F010008B0
:1000B000B51C00082D1E00085F0100085F01000844
:1000C0005F0100085F0100085F0100085F01000890
:1000D0005F010008BD2400085F0100085F010008FF
:1000E0005F0100085F0100085F0100085F01000870
:1000F0005F0100085F0100085F0100085F01000860
:100100005F0100085F010008951E00085F010008FC
:100110005F0100085F0100085F0100085F0100083F
:100120005F0100085F0100085F0100085F0100082F
:10013000DFF80CD000F0E8FB004800472D30000845
:10014000900700200648804706480047FEE7FEE784
:10015000FEE7FEE7FEE7FEE7FEE7FEE7FEE7FEE777
:10016000551C000831010008F0B480EA0102D40FE8
:100170004200B2EB410F02D20246084611464A0045
:1001800042D0C30DDDB2C1F3C752AD1A202D35DA0E
:10019000C1F3160141F4000204B15242C5F1200638
:1001A00002FA06F12A411044B3EBD05F23D0C4B168
:1001B000012DA0EBC35009DCF0BC4FF0004202EA75
:1001C000C352DBB200F5000000F013BB400000F1A9
:1001D000807000EBC350A0F1807040EAD1704900FC
:1001E00009E0490841EAC071A0EBC35000F50000E6
:1001F000400800EBC350F0BC00F0F2BA61420122AB
:1002000002EB4101001BF6E7F0BC704781F00041B2
:10021000AAE780F00040A7E780EA010210B502F0EB
:100220000043400022D04A001FD0010E01EB1261B2
:10023000C0F35600C2F3560240F4000042F400023C
:10024000A0FB022000047F39140400D0401C50EAB7
:10025000124001D44000491EC2B20C0604EBD0107B
:10026000401C4008802A02D003E0002010BD20F08E
:100270000100002900DA0020184310BD30B480EAE4
:10028000010202F0004530F0004221F0004013D09E
:1002900090B1C30DD40DC2F31601C0F31600E41AD9
:1002A00041F4000140F400027D34914201D3641C0A
:1002B00000E04900002C02DA30BC002070474FF407
:1002C00000000023914201D3891A034340084FEAFA
:1002D0004101F7D151B1914202D14FF0004105E007
:1002E00002D24FF0010101E06FF0010103EBC450B5
:1002F000284430BC00F074BA2DE9FE4F804681EAF4
:100300000300C00F0C46009021F0004123F000458F
:10031000B8EB0200A94105D24046214690461C4652
:100320000B46024623F00040104347D0270DC7F389
:100330000A00C3F30A510290401A019040286BDA78
:10034000C3F3130040F4801B0098924620B10023B1
:10035000D2EB030A63EB0B0B01985946C0F1400244
:10036000504600F00CFA06460D4650465946019A92
:1003700000F024FA10EB08006141002487EA1152D2
:1003800084EAE7731A4340D0009A62B3019A012AC3
:100390004FEA075215DC001B61EB02014FF00042EF
:1003A00002EA0752CDE90042001C41F580113246B5
:1003B0002B4600F05BFA03B0BDE8F08F40462146C3
:1003C000F9E7001B61EB0201001C41F580130018E6
:1003D0005B412018A2F5001747EB030140EAD570F6
:1003E000B6196D4111E06D084FEA360645EAC07551
:1003F0004FEA0752001B61EB0201001C41F580111E
:1004000049084FEA30000019514132462B4603B0EB
:10041000BDE8F04F00F01BBA009801224000002315
:10042000D0EB020263EBE073009821464FEAE074E0
:10043000B8EB000061EB0401E9E783F000435BE700
:1004400081F0004158E72DE9FE4F81EA030404F0F2
:10045000004421F0004100944FF0000B23F00043D2
:1004600050EA01045ED052EA03045BD0C3F30A549D
:10047000C1F30A552C44A4F2F3340194A0FB0254B6
:10048000C1F3130141F48011C3F3130343F4801348
:1004900001FB024400FB034E840A970A44EA81549C
:1004A00047EA8357A4FB076802958D0A05FB078579
:1004B0004FEA932C04FB0C542705029D4FEA065883
:1004C00047EA1637B5EB08056EEB070C870E920E60
:1004D00047EA811742EA8312A7FB0201B6EB0B0140
:1004E00064EB00042B0D43EA0C335E1844EB1C5004
:1004F000DA465146E7FB0201C5F313044FEA0B331A
:1005000043EA14534FEA0432019C43EA0603A4F180
:100510000C040294009CCDE900B400F0A7F903B0EC
:10052000BDE8F08F00200146F9E72DE9F04D81EAA2
:10053000030404F0004B21F0004514464FF0000A7C
:1005400023F0004150EA050220D054EA01021DD0F8
:10055000C5F30A570246C5F31303C1F31300C1F3F1
:100560000A5640F4801543F48013A7EB0608101BCD
:10057000D64608F2FD3873EB050002D308F10108F6
:1005800001E092185B41B8F1000F03DA0020014648
:10059000BDE8F08D00204FF48011064684460EE041
:1005A000171B73EB050705D3121B63EB050306430B
:1005B0004CEA010C49084FEA300092185B4150EABE
:1005C0000107EDD152EA030012D082EA040083EA67
:1005D0000501084305D0101BAB4106D201220023C0
:1005E00006E000224FF0004302E06FF001025310DA
:1005F0001AEB06004CEB085110EB0A0041EB0B0123
:10060000BDE8F04D00F023B9C10F80EAE070084466
:10061000CA079623002100F0ECB80EB5C10F80EA9E
:10062000E0700844CA07002140F233438DE80E0011
:100630000A460B4600F01AF903B000BD00F0004274
:1006400020F00040C10DC0F3160040F400007F29E7
:1006500001DA00207047962903DCC1F19601C840F9
:1006600001E096398840002AF4D04042704720F0DB
:100670000040C10DC0F3160040F400007F2901DAEC
:1006800000207047962903DCC1F19601C8407047ED
:1006900096398840704700F0004230F000400AD0A0
:1006A000C10D01F56071C0F3160042EA0151C208A4
:1006B00040071143704700200146704701F0004396
:1006C00030B421F0004150EA010206D00A0DA2F533
:1006D0006072C1F31301002A02DC30BC00207047B5
:1006E000440F44EAC104C100E01830BC00EBC25022
:1006F00000F076B8002801DBC0F10040002901DBE2
:10070000C1F1004181427047002801DBC0F1004087
:10071000002901DBC1F10041884270472DE9F05FFB
:100720000546002092469B46884606468146402460
:100730001BE0284641464746224600F02FF8534624
:100740005A46C01A914110D311461846224600F06D
:1007500016F82D1A67EB01084F46224601200021AA
:1007600000F00DF817EB00094E41201EA4F1010422
:10077000DFDC484631462A464346BDE8F09F202A42
:1007800004DB203A00FA02F1002070479140C2F1E8
:10079000200320FA03F3194390407047202A04DB1A
:1007A000203A21FA02F00021704721FA02F3D040EA
:1007B000C2F120029140084319467047202A06DB07
:1007C000CB17203A41FA02F043EAE07306E041FA1F
:1007D00002F3D040C2F1200291400843194670470D
:1007E0000029A8BF7047401C490008BF20F0010045
:1007F000704710B4B0FA80FC00FA0CF050EA010423
:1008000004BF10BC704749B1CCF1200421FA04F4B4
:1008100011FA0CF118BF012121430843A3EB0C018D
:10082000CB1D4FEA00614FEA102042BF002010BCF0
:10083000704700EBC35010440029A4BF10BC7047A0
:10084000401C490008BF20F0010010BC704710B5E3
:10085000141E73F1000408DA401C41F100019218E3
:100860005B411A4301D120F0010010BD2DE9F04D8C
:1008700092469B4611B1B1FA81F202E0B0FA80F2E1
:1008800020329046FFF77BFF04460F4640EA0A00FD
:1008900041EA0B0153465A46084313D0114653EA26
:1008A000010019D0C8F140025046FFF777FF054616
:1008B0000E46504659464246FFF761FF084305D0B1
:1008C000012004E020463946BDE8F08D00200543B4
:1008D00046EAE0762C4337430A986305E40AA0EB26
:1008E00008000022FD0A44EA47540A3002D50020DD
:1008F0000146E9E7010510196941DDE908450019DC
:100900006941BDE8F04DA2E7064C074D06E0E068FE
:1009100040F0010394E8070098471034AC42F6D346
:10092000FFF70AFC80320008A032000870B521F001
:10093000004303430CD0C1F30A550024D5EB040552
:1009400064EB0403D617AD1AB34102DB0020014665
:1009500070BD201841EB025170BD00BFFEE710B51D
:100960000446204600F008F8204600F0D1F8204662
:1009700000F09AF910BD00002DE9F04786B08246DC
:10098000BAF1000F51D04C480068FFF784FE0446CE
:100990000D464A480068FFF77EFE494A494BCDE9BB
:1009A0000001FFF74AFD80460022474BFFF74BFD51
:1009B00006460022454BFFF7B8FD22462B46CDE9FF
:1009C0000201FFF799FCCDE90401FFF777FE4049EA
:1009D000086040480068FFF75EFECDE902013E482E
:1009E0000068FFF758FE06463C4A3D4BFFF72BFDDB
:1009F0008046894636480068FFF74DFE0646394A6C
:100A0000394BFFF720FD044642464B46FFF774FC86
:100A1000CDE90001DDE90223FFF70FFDCDE9040177
:100A2000FFF74CFE2449086043E030480068FFF7B8
:100A300032FECDE900012E480068FFF72CFE064685
:100A4000DDE9002302F054F92A4A2B4BCDE90201DB
:100A5000FFF76BFD0022294BCDE90401FFF7F3FC02
:100A600004464FF06632264BFFF7E7FC8046FFF75F
:100A700025FE2449244A127841F8220022480078B1
:100A8000401CC0B220490870022801DD0020087017
:100A90001C4A51681068FFF767FB054619488168D2
:100AA0002846FFF761FB04461849FFF7E7FB0A49B0
:100AB000086006B0BDE8F087680000204C00002008
:100AC000A088450C3B4CED3F0000344000408F4077
:100AD000800000208C000020740000207B14AE47B2
:100AE000E17A943F5C8FC2F5285CEF3F480000201C
:100AF0004400002044174154FB2109400080664017
:100B00006666F63FF8010020A40000200000404087
:100B10002DE9F04786B08246BAF1000F53D04D4818
:100B20000068FFF7B8FD04460D464B480068FFF724
:100B3000B2FD4A4A4A4BCDE90001FFF77EFC8046F0
:100B40000022484BFFF77FFC06460022464BFFF78A
:100B5000ECFC22462B46CDE90201FFF7CDFBCDE9A7
:100B60000401FFF7ABFD4149086041480068FFF709
:100B700092FDCDE902013F480068FFF78CFD064673
:100B80004FF033323C4BFFF75EFC804689463748D6
:100B90000068FFF780FD06464FF03332374BFFF712
:100BA00052FC044642464B46FFF7A6FBCDE9000146
:100BB000DDE90223FFF741FCCDE90401FFF77EFDEB
:100BC0002449086042E02E480068FFF764FDCDE943
:100BD00000012C480068FFF75EFD0646DDE90023B2
:100BE00002F086F8284A294BCDE90201FFF79DFC67
:100BF0000022274BCDE90401FFF725FC0446254AD6
:100C0000254BFFF71AFC8046FFF758FD2349244A7D
:100C1000127841F8220022480078401CC0B22049D6
:100C20000870022801DD002008701C4A5168106815
:100C3000FFF79AFA0546194881682846FFF794FAA3
:100C400004461849FFF71AFB0A49086006B0BDE8D8
:100C5000F08700006C00002050000020E869C020F0
:100C6000E993EE3F0000344000408F4084000020B4
:100C700090000020780000203333C33F3333EB3F34
:100C8000480000204000002044174154FB21094047
:100C900000806640CDCCCCCCCCCC084004020020F7
:100CA000A5000020000040402DE9F04786B08246B4
:100CB000BAF1000F38D01E480068FFF7ECFC06467A
:100CC0001C4A1D4BFFF7B9FB00221C4BCDE900016C
:100CD000FFF7B9FB04460022194BFFF726FC8046BC
:100CE000894618480068FFF7D6FC42464B46CDE9D6
:100CF0000201FFF701FBCDE90401FFF7DFFC114919
:100D0000086008460068104908600E480068FFF750
:100D100095FC041E01DB204600E06042B0F5B47F84
:100D200002DB00200749086006B0BDE8F08700003C
:100D3000540000209B1BD3139678C6BF000034409C
:100D400000408F40880000207000002070B50646EB
:100D50000D46144621462846FFF7CCFC0DD0294607
:100D60003046FFF7D1FC01D8284670BD21463046F9
:100D7000FFF7C0FC01D82046F7E73046F5E770479B
:100D800010B54021104800F04AF9A0B90F4800887A
:100D90000F49104A127821F812000E480078401CC2
:100DA0000C49087000210948243801F026F9002078
:100DB0000649088004E001210448243801F01DF9A7
:100DC000402000F031F810BD00080140240400402C
:100DD000BC010020320000200EB500F0EDFD012125
:100DE000084600F04BFC0621002000F06DF8402082
:100DF000019000208DF8080010208DF809000120D6
:100E00008DF80A0001A800F015F817208DF80000F1
:100E100000208DF801008DF8020001208DF80300FC
:100E2000684600F0D7FB0EBD01490860704700001E
:100E300014040140002123498279002A3AD00A464D
:100E4000126803689A430B461A600A1D1268036809
:100E50009A430B1D1A60027911440A6803681A4309
:100E60000A60184A0832126803689A43154B08331F
:100E70001A601A1D126803689A43124B0C331A60E9
:100E80004279102A0ED11A1F126803681A430D4BBB
:100E900008331A601A1D126803681A43094B0C3391
:100EA0001A600DE00749427911440A6803681A4341
:100EB0000A6005E0027911440A6803689A430A60EF
:100EC000704700000004014030B500228B071C0F62
:100ED0000F2303FA04F20B4B8C1053F82430934386
:100EE000084C8D1044F8253023468C1053F82430DC
:100EF0008C07240F00FA04F42343024C8D1044F8AD
:100F0000253030BD080001402DE9F04102460025A2
:100F10000026002000230024002791F803C00CF0D5
:100F20000F0591F803C00CF0100CBCF1000F03D0BA
:100F300091F802C04CEA050591F800C0BCF1000F21
:100F400031D0146800202BE04FF0010C0CFA00F3B4
:100F5000B1F800C00CEA03069E4220D183004FF096
:100F60000F0C0CFA03F7BC4305FA03FC4CEA04042B
:100F700091F803C0BCF1280F06D14FF0010C0CFA18
:100F800000FCC2F814C00AE091F803C0BCF1480F9D
:100F900005D14FF0010C0CFA00FCC2F810C0401C47
:100FA0000828D1D31460B1F800C0BCF1FF0F34DDC4
:100FB000546800202EE000F1080C4FF0010808FAF8
:100FC0000CF3B1F800C00CEA03069E4221D1830065
:100FD0004FF00F0C0CFA03F7BC4305FA03FC4CEA84
:100FE000040491F803C0BCF1280F05D100F1080CEE
:100FF00008FA0CF8C2F8148091F803C0BCF1480F4D
:1010000007D100F1080C4FF0010808FA0CF8C2F8FB
:101010001080401C0828CED35460BDE8F081024601
:10102000002093680B400BB1012000E000207047C6
:10103000416170470161704703460AB1196100E0E0
:1010400059610020704700BFFEE77FB508AC70CC47
:101050000021016041608160C160016101994161CD
:10106000029981610399C16100210162416281623B
:10107000C1620463456386637FBD00000EB52148ED
:101080002149224ACDE90021029021480EC8214879
:10109000FFF7DBFF1B481C491C4ACDE900210290E9
:1010A0001D480EC81D48FFF7D0FF164800211C4AF6
:1010B000CDE9002102901B480EC81B48FFF7C5FF71
:1010C00010481A491A4ACDE90021029019480EC861
:1010D0001948FFF7BAFF0B481449154ACDE900211A
:1010E000029016480EC81648FFF7AFFF054815498D
:1010F0000B4ACDE90021029013480EC81348FFF7B0
:10110000A4FF0EBD0AD7A33C000048C2000048421D
:10111000C400002010020020D00000204C0200205B
:101120000000104278030020880200200000C0C0A8
:101130000000C040DC000020C4020020E8000020C5
:1011400000030020000010C2840300203C030020A4
:1011500010B54FF4A06000F075FA4FF4E13001F0E3
:10116000BFFF01F00DFF00F013F800F03BF8FFF7B0
:1011700085FF00F00BF9C82001F024FF00F0BAF859
:10118000C82001F01FFFFFF727FE01F00BF910BD8B
:1011900008B50121402000F071FA10208DF80300FD
:1011A0002020ADF8000003208DF8020069460C48AD
:1011B000FFF7AAFE20210A48FFF73AFF10208DF81A
:1011C00003004020ADF8000003208DF802006946BE
:1011D0000348FFF799FE40210148FFF729FF08BDAA
:1011E0000018014000B589B00121082000F046FA3E
:1011F0004FF47070ADF8200018208DF82300032004
:101200008DF8220008A92748FFF77EFE012104205F
:1012100000F024FA0121084600F030FA4720ADF82A
:10122000140040F6C310ADF818000020ADF8160009
:10123000ADF81A0005A91C4801F062F86020ADF86D
:1012400004000120ADF806000020ADF80C0040F2CB
:101250003D30ADF80A0001A9134800F0F5FE082161
:10126000114800F03DFF01A90F4800F043FF08219D
:101270000D4800F091FF01A90B4800F09BFF0821E9
:10128000094800F0E7FF01A9074800F0EDFF082139
:10129000054801F027F80121034800F0AEFE09B02F
:1012A00000BD0000000C01400008004030B50446BD
:1012B0000D48007858B90D48007840B10C480480BA
:1012C000001D0180001D0280001D038009E040F226
:1012D000D920074D28802D1D28802D1D28802D1DEB
:1012E0002880002030BD0000640000206500002040
:1012F0003408004010B501F043FE00226B21D020DD
:1013000000F079FC07221921D02000F074FC06229D
:101310001A21D02000F06FFC18221B21D02000F0F1
:101320006AFC00221C21D02000F065FC10BD0000EA
:1013300000B500200E4908600E48006820F47000D7
:101340000C4908600846006840F44010086000201E
:101350000949C1F8B40100F011F8012004490860FE
:1013600000F00CF800200449C1F8B00100BD0000F5
:10137000B0812142040C0140008021421E2001E086
:10138000411EC8B20028FBD17047000008B50121FA
:10139000082000F073F94FF44050ADF80000102021
:1013A0008DF8030003208DF8020069460448FFF71A
:1013B000ABFD4FF440510248FFF73CFE08BD000072
:1013C000000C014000B500200E4908600E4800687E
:1013D00020F470000C4908600846006840F4401092
:1013E000086001200949C1F8B401FFF7C7FF0120D7
:1013F00004490860FFF7C2FF00200449C1F8B001AA
:1014000000BD0000B0812142040C01400080214257
:1014100010B5034600221648006820F470001449F5
:1014200008600846006840F400000860002414E0EA
:10143000002010490860FFF7A1FF01200E49C1F804
:10144000B0015006020E0B487C38006808B1501CF1
:10145000C2B2FFF793FF601CC4B2082CE8DB13B9DB
:10146000FFF7B0FF01E0FFF763FF104610BD00007B
:10147000040C0140B08121420080214200B50246A7
:101480001248006820F4700010490860084600689F
:1014900040F44010086000200D490860002312E06D
:1014A000D0090B49091D08605006020E01200949A8
:1014B000C1F8B001FFF762FF002005490860FFF79F
:1014C0005DFF581CC3B2082BEADB00BD040C0140D1
:1014D000B08121420080214200B50E48006820F40E
:1014E00070000C4908600846006840F4401008602D
:1014F0000120094908600949C1F8B001FFF73EFF22
:10150000002005490860FFF739FF00200349C1F8B2
:10151000B00100BD040C0140B48121420080214291
:1015200000B50E48006820F470000C4908600846B9
:10153000006840F44010086000200949086009492B
:10154000C1F8B401FFF71AFF0120054908600549F9
:10155000C1F8B401FFF712FF00BD0000040C014008
:10156000B08121420080214200B500221448006869
:1015700020F47000124908600846006840F400003A
:10158000086001200F490860FFF7F8FE01200E49AE
:10159000C1F8B001FFF7F2FE07E0501CC2B2FA2A10
:1015A00003DDFFF7BDFF012000BD0648803800685D
:1015B0000028F2D10349091F086000BFF4E70000CA
:1015C000040C0140B48121420080214200BFFEE7AB
:1015D0007047000070B5002100230F22C47804B3C7
:1015E000154C246804F4E064C4F5E064210AC1F1F8
:1015F0000403CA40447804FA03F184781440214378
:1016000009010E4C0678A155047804F01F05012449
:10161000AC4005786D11AD0005F1E025C5F800413D
:1016200009E0047804F01F050124AC40044D06785D
:10163000761145F8264070BD0CED00E000E400E0B6
:1016400080E100E002490143024A11607047000056
:101650000000FA050CED00E07047000029B1064AD1
:10166000D2690243044BDA6104E0034AD26982433F
:10167000014BDA61704700000010024029B1064AB0
:1016800092690243044B9A6104E0034A92698243DF
:10169000014B9A61704700000010024030B50021F4
:1016A0000022002400232D4D6D6805F00C0121B1AE
:1016B000042905D0082923D105E0294D056022E041
:1016C000274D05601FE0254D6D6805F47012234D10
:1016D0006D6805F48034022505EB92421CB9214D5A
:1016E000554305600BE01D4D6D6805F400351DB1D7
:1016F0001C4D5543056002E0194D5543056002E05D
:10170000174D056000BF00BF144D6D6805F0F00176
:101710000909154D6B5C0568DD4045600F4D6D682E
:1017200005F4E061090A104D6B5C4568DD40856099
:101730000A4D6D6805F46051C90A0B4D6B5C456834
:10174000DD40C560054D6D6805F44041890B074DCE
:101750006B5CC568B5FBF3F5056130BD0010024058
:1017600000127A0000093D001E0000202E0000201B
:101770000246084830F81200401A322806DC0548B4
:1017800030F81200401A10F1320F01DA00207047D1
:101790000120FCE7BC01002070B53C21D02000F006
:1017A00009FA344908703B21D02000F003FA31498E
:1017B000487008460078497840EA012000B22E4976
:1017C00008800846B0F90000FEF71EFF05462B49C9
:1017D000FEF722FD04464FF08E41FEF74FFD2849EB
:1017E00008603E21D02000F0E5F9224988703D21B3
:1017F000D02000F0DFF91F49C87008468078C9780A
:1018000040EA012000B21F4908800846B0F90000F4
:10181000FEF7FAFE05461949FEF7FEFC04464FF0B6
:101820008E41FEF72BFD184908604021D02000F0C2
:10183000C1F9104908713F21D02000F0BBF90D49D2
:10184000487108460079497940EA012000B20F4901
:1018500008800846B0F90000FEF7D6FE05460749A5
:10186000FEF7DAFC04464FF08E41FEF707FD08490B
:10187000086070BDCE01002038000020CDCC9C4116
:10188000400000203A000020440000203C000020DE
:10189000480000202DE9F0414421D02000F08AF9D1
:1018A0003C4908704321D02000F084F93949487040
:1018B00008460078497840EA012000B2364908809D
:1018C0000846B0F90000FEF7A8FE06464FF0663263
:1018D000324BFEF72AFE0446FEF7F0FE3049086060
:1018E0004621D02000F066F92A4988704521D02091
:1018F00000F060F92749C87008468078C97840EA46
:10190000012000B2274908800846B0F90000FEF720
:1019100084FE06464FF06632204BFEF706FE044674
:10192000FEF7CCFE204908604821D02000F042F9A3
:10193000184908714721D02000F03CF91549487139
:1019400008460079497940EA012000B21749088029
:101950000846B0F90000FEF757FE05461449FEF7A9
:101960005BFC04464FF08E41FEF788FC114908608D
:101970000E48B0F90000FEF750FE06464FF0663202
:10198000064BFEF7D2FD0446FEF798FE09490860B3
:10199000BDE8F081CE0100203800002066663040AE
:1019A0004C0000203A000020500000203C000020A5
:1019B0000000FA445400002008B501210420FFF77C
:1019C0005DFE4020ADF8000048208DF803000320A4
:1019D0008DF8020069460348FFF796FA0020024995
:1019E000087008BD00080140320000207047000068
:1019F0002DE9F74F8AB0834625480068FEF74BFE75
:101A00000746244A244BFEF718FD81F000410546A5
:101A1000FEF754FE044621480068FEF73CFE0746E8
:101A20001F4A204BFEF709FD0546FEF747FE0990C9
:101A30001D480068FEF72FFE07461C4A1C4BFEF7A8
:101A4000FCFC81F000410546FEF738FE814619484E
:101A5000006880F0004A1848006880F00040089054
:101A600016481749174ACDE90442CDE90610164930
:101A700009980968CDE900A1CDE902905846089B74
:101A8000DDE90B1201F034FA0DB0BDE8F08F000073
:101A9000540000209B1BD3139678C6BF5000002033
:101AA000E869C020E993EE3F4C000020A088450C77
:101AB0003B4CED3F6C00002068000020B00000208F
:101AC000AC000020A80000207000002010B500F03D
:101AD00001F810BD0CB5002001900090334800685B
:101AE00040F480303149086000BF3048006800F49D
:101AF000003000900198401C0190009818B901989E
:101B0000B0F5A06FF1D12948006800F4003010B1A1
:101B10000120009001E0002000900098012843D1AE
:101B20002348006840F0100021490860084600681A
:101B300020F0030008600846006840F002000860DA
:101B40001A48406819494860084640684860084695
:101B5000406840F4806048600846406820F47C108B
:101B600048600846406840F4E8104860084600684D
:101B700040F08070086000BF0C48006800F0007002
:101B80000028F9D00948406820F003000749486060
:101B90000846406840F00200486000BF03484068C3
:101BA00000F00C000828F9D10CBD00000010024024
:101BB0000020024070B504460D46FFF78DFC20461C
:101BC000FFF75CFCFFF7D0FC2846FFF757FCFFF758
:101BD000CBFCFFF781FC611CC8B2FFF74FFCFFF79D
:101BE000C3FC0020FFF714FC0646FFF7EBFBFFF7F2
:101BF00097FC304670BD70B506460C461546FFF79B
:101C00006BFC3046FFF73AFCFFF7AEFC2046FFF7CF
:101C100035FCFFF7A9FC2846FFF730FCFFF7A4FCD2
:101C2000FFF77EFC00BF012070BD042808D14FF0F3
:101C3000E021096941F004014FF0E022116107E061
:101C40004FF0E021096921F004014FF0E022116119
:101C50007047704710B51348006840F00100114903
:101C6000086008464068104908400E494860084628
:101C700000680E4908400B4908600846006820F4D7
:101C8000802008600846406820F4FE0048604FF459
:101C90001F008860FFF71AFF4FF0006004490860DA
:101CA00010BD0000001002400000FFF8FFFFF6FE2C
:101CB00008ED00E010B50121880700F0AAF900281E
:101CC0007ED04FF416710720FFF752FD08B90120AE
:101CD00000E00020434908704FF416710320FFF71D
:101CE00047FD98B14FF4C8610620FFF741FD3E491A
:101CF000087000203D49C8603D49C8603D49C86042
:101D00003D49C8603D49C8603D49C8604FF4C8615D
:101D10000520FFF72DFD78B33A4801683A4800687E
:101D2000FEF722FA38490860384908680968491CF2
:101D3000364B1960FEF768FC0446214632480068BD
:101D4000FEF79CFA32490860324801683248006860
:101D5000FEF70AFA30490860304908680968491CEA
:101D60002E4B1960FEF750FC044621462A480068B5
:101D7000FEF784FA2A4908604FF4E1610520FFF775
:101D8000F7FC78B10020224908601F490860012053
:101D90001E4908600020224908601F490860012090
:101DA0001E4908601F480078401CC0B21D490870D9
:101DB000282811DB40211C48FFF731F918B900E051
:101DC0000EE0012000E00020044622464021164893
:101DD000FFF732F9134908700121880700F00AF96A
:101DE00010BD0000640000206500002010020020EB
:101DF0004C02002088020020C402002000030020C2
:101E00003C03002068000020940000209C0000207B
:101E10008C0000206C00002098000020A000002012
:101E200090000020330000200018014010B501216F
:101E3000134800F0EEF808B30020124908700120A2
:101E40001149088011480078401CC0B20F49087041
:101E500032280FDB20210E48FFF7E1F808B90120F6
:101E600000E000200446224620210948FFF7E4F85C
:101E7000064908700121024800F0BCF810BD0000BE
:101E80000004004032000020BC010020340000208B
:101E9000001801402DE9F04101214D4800F0B9F84A
:101EA00000287DD04B48C088A0F5167004B2FFF71B
:101EB000F1FC0020FEF753FD0120FEF750FD00224B
:101EC00011461046FFF794FD04F23D30FEF79CFBEF
:101ED0000746414801683846FEF798F906463F48EC
:101EE00001683046FEF792F905463D4801682846EC
:101EF000FEF73AF93B49086004F23D30FEF784FBF7
:101F00000746354801683846FEF72EF9064633483D
:101F100001683046FEF728F9054631480168284631
:101F2000FEF722F93049086004F23D30FEF76CFB01
:101F30000746294801683846FEF768F906462748EB
:101F400001683046FEF710F9054625480168284625
:101F5000FEF75CF92549086004F23D30FEF754FBBA
:101F600007461D4801683846FEF7FEF806461B483E
:101F700001683046FEF74AF90546194801682846C7
:101F8000FEF744F91A49086008460068FEF76FFB3F
:101F900085B216480068FEF76AFB86B2124800E078
:101FA00014E00068FEF763FB87B20E480068FEF796
:101FB0005EFB1FFA80F82B46324639464046FFF753
:101FC00075F90121024800F015F800BFBDE8F08165
:101FD000000C0040BC010020A8000020AC00002044
:101FE000B0000020B4000020B8000020BC00002099
:101FF000C0000020CA430282704721B1028842F02B
:102000000102028004E002884FF6FE731A4002804B
:10201000704730B50246002000230024158A05EAE7
:102020000103958905EA010413B10CB1012000E018
:10203000002030BD1AB183890B43838102E083897C
:102040008B4383817047000070B500240022002379
:10205000058C4FF6FE7635400584028C8388048B10
:102060004FF68F752C40B51E2C400D882C43751EE5
:102070002A400D892A434D882A43144DA8420BD08B
:10208000134DA84208D0134DA84205D0124DA842C6
:1020900002D0124DA84213D14FF6F7752A404D8950
:1020A0002A434FF6FB752A408D882A434FF6FF6579
:1020B0002B404FF6FF552B408D892B43CD892B4369
:1020C00083800483CD888586028470BD002C014006
:1020D00000340140004001400044014000480140FC
:1020E0000A460021018B4FF6F77319401143018313
:1020F0007047000070B5002400220023058C4FF6C5
:10210000EF7635400584028C8388048B48F6FF7592
:102110002C404FF6FF452C400D884FF6FF7606EA1F
:1021200005252C434FF6DF752A400D8906EA051573
:102130002A434D8806EA05152A43154DA84202D0C8
:10214000144DA8421DD14FF67F752A404D894FF698
:10215000FF7606EA05152A434FF6BF752A408D889B
:1021600006EA05152A434FF6FF352B404FF2FF755F
:102170002B408D8906EA85052B43CD8906EA850526
:102180002B4383800483CD880587028470BD0000C3
:10219000002C0140003401400A460021018B4FF21F
:1021A000FF7319404FF6FF7303EA022319430183BB
:1021B0007047000070B5002400220023058C4FF604
:1021C000FF6635400584028C8388848B4FF68F75BB
:1021D0002C404FF6FC752C400D882C434FF6FF55D4
:1021E0002A400D894FF6FF7606EA05252A434D88D9
:1021F00006EA05252A43154DA84202D0144DA842EF
:102200001DD14FF2FF752A404D894FF6FF7606EA41
:1022100005252A434FF6FF352A408D8806EA052515
:102220002A434EF6FF752B404DF6FF752B408D89E6
:1022300006EA05152B43CD8906EA05152B43838055
:102240008483CD888587028470BD0000002C014006
:10225000003401400A460021818B4FF6F773194084
:10226000114381837047000070B5002200230024D1
:10227000058C4EF6FF7635400584038C8488828B6E
:1022800048F6FF752A404FF6FF452A400D884FF665
:10229000FF7606EA05252A434DF6FF752B400D898A
:1022A00006EA05352B434D8806EA05352B430B4DD1
:1022B000A84202D00A4DA84208D14BF6FF752C4027
:1022C0008D894FF6FF7606EA85152C43848082833C
:1022D000CD88A0F84050038470BD0000002C014060
:1022E000003401400A460021818B4FF2FF731940F0
:1022F0004FF6FF7303EA02231943818370470000FE
:10230000002202881D4B98420ED01D4B98420BD0E4
:10231000B0F1804F08D01B4B984205D01A4B984221
:1023200002D01A4B984204D14FF68F731A404B8853
:102330001A43174B984207D0164B984204D04FF6D9
:10234000FF431A40CB881A4302808B8883850B8811
:1023500003850A4B98420BD0094B984208D00E4B8C
:10236000984205D00D4B984202D00D4B984201D1B6
:102370000B7A03860123838270470000002C014002
:10238000003401400004004000080040000C004000
:102390000010004000140040004001400044014093
:1023A000004801401FB501210846FFF757F94720B3
:1023B000ADF8040040F2CF70ADF808000020ADF891
:1023C0000600ADF80A0001A94FF08040FFF798FF22
:1023D000012211469007FFF72DFE1C208DF800000A
:1023E00000208DF8010004208DF8020001208DF8F6
:1023F00003006846FFF7EEF801218807FFF7FDFDAF
:1024000001210220FFF72AF94720ADF8040040F22D
:10241000CF70ADF808000020ADF80600ADF80A0056
:1024200001A92448FFF76CFF012211462148FFF75C
:1024300001FE1D208DF8000000208DF80100032012
:102440008DF8020001208DF803006846FFF7C2F8FE
:1024500001211848FFF7D1FD01210820FFF7FEF800
:102460004720ADF8040044F61F60ADF808000020D6
:10247000ADF80600ADF80A0001A90F48FFF740FFCC
:10248000012211460C48FFF7D5FD32208DF80000DF
:1024900001208DF8010000208DF8020001208DF848
:1024A00003006846FFF796F801210348FFF7A5FDF2
:1024B0001FBD000000040040000C004010B540F2B9
:1024C00025511D4800F04AF810B31B4800F002F9EE
:1024D000C4B21A48008800F40040C8B91748008800
:1024E00000F4804060B10A2C03D00020134908801A
:1024F00020E01248008840F400401049088019E0AC
:102500000D2C06D10D48008840F480400B4908800E
:1025100010E00A480088C0F30D0009490C54074830
:102520000088401C0549088008460088C72801DD4E
:102530000020088010BD0000003801401C00002071
:10254000F400002021B1828942F40052828104E02B
:1025500082894DF6FF731A408281704770B502463A
:10256000002400230025002040F66A16B14200D165
:1025700000BFC1F3421501F01F03012606FA03F361
:10258000012D02D19689334006E0022D02D1168A30
:10259000334001E0968A33400C12012606FA04F417
:1025A0001688344013B10CB1012000E0002070BD4A
:1025B000F0B50346002400260025002040F66A17E7
:1025C000B94200D100BF1846C1F3421401F01F0602
:1025D000012707FA06F5012C01D10C3004E0022C8A
:1025E00001D1103000E014301AB107682F430760A2
:1025F00002E00768AF430760F0BD00002DE9F04737
:1026000086B005460E460024A24600BFA14600271C
:10261000B08900B100BF2F462C8A4CF6FF700440F1
:10262000F08804432C82AC894EF6F3100440B08845
:1026300031890843718908430443AC81AC8A4FF661
:10264000FF400440B0890443AC8201A8FFF726F89C
:102650001F48874202D1DDF810A001E0DDF80CA090
:10266000A88900F4004040B10AEBCA0000EB0A1050
:1026700031684900B0FBF1F807E00AEBCA0000EB53
:102680000A1031688900B0FBF1F86420B8FBF0F063
:1026900004012009642101FB1089A88900F400408D
:1026A00040B1322000EBC900B0FBF1F000F00700B0
:1026B000044308E0322000EB09106421B0FBF1F084
:1026C00000F00F0004432C8106B0BDE8F087000045
:1026D0000038014001468888C0F30800704700BFF9
:1026E000FEE700000FB4054B10B503A9044A029899
:1026F00000F08EF810BC5DF814FB000011300008EB
:1027000018000020490050EAC12018BF04204A0DDB
:1027100018BF40F0010040F2FF72B2EB515F08BFFA
:1027200040F00200012808BF052070472DE9F04164
:102730004F1E00EBC7010446D1E9000115461E46B5
:1027400037F006020DD02A463346FDF77CFE7F1E89
:1027500004EBC703D3E90023FDF7CEFD37F00602F3
:10276000F1D1022F25D0042F13D0062F18BFBDE8BA
:10277000F0812A463346FDF766FED4E90A23FDF7C9
:10278000BBFD2A463346FDF75EFED4E90823FDF77C
:10279000B3FD2A463346FDF756FED4E90623FDF77E
:1027A000ABFD2A463346FDF74EFED4E90423FDF780
:1027B000A3FD2A463346FDF746FED4E90223FDF782
:1027C0009BFD2A463346FDF73EFED4E90023BDE8D3
:1027D000F041FDF791BD0122FEF7A8B8FDF78CBDD1
:1027E000024A00201107FEF7A1B8000001FDFFFF1B
:1027F00002E008C8121F08C1002AFAD170477047CA
:10280000002001E001C1121F002AFBD17047000027
:102810002DE9FF4F8DB09B460F460446002606E08B
:1028200025280BD05A460F999047641C761C2078B7
:102830000028F5D111B03046BDE8F08F0025A8463C
:102840000122984900E0054314F8013F203B02FAB9
:1028500003F00842F7D120782E2817D114F8010F81
:1028600045F004052A280ED06FF02F022078A0F141
:10287000300109290AD808EB880102EB410100EB7D
:102880000108641CF2E757F8048B641C20786C285C
:102890000DD004DC4C2812D06A2811D104E0742831
:1028A0000DD07A280CD10AE045F4001507E06178D4
:1028B00045F48015814202D1641C05F58015641C25
:1028C0002278692A45D008DC002AB3D0582A69D07A
:1028D000632A10D0642A08D13BE0702A67D0732A9B
:1028E00013D0752A5CD0782A5CD010465A460F99CE
:1028F0009047761CD3E017F8040B8DF800000020F9
:102900008DF80100E946012003E057F8049B4FF0E1
:10291000FF3069074FF0000501D40AE06D1C454502
:102920000DDA8542FADB19F805100029F6D106E028
:102930006D1C8542FCDB19F805100029F8D12E44E6
:1029400004E019F8010B5A460F9990476D1EF8D212
:10295000A5E00A200021CDE90801C5F302500228B4
:102960000DD001CFC117031E71F100030DDA4FF036
:10297000000CD0EB0C006CEB01012D2308E0FF1DD7
:1029800027F00707F7E80201EDE72B0504D52B2315
:102990008DF8283001233BE0EB0739D02023F7E7FF
:1029A0000A2000E010200021CDE9080107E01020F6
:1029B000002145F00405CDE908014FF00808C5F3F2
:1029C000025002280FD001CF00214FF0000A2B0740
:1029D0001FD5702A0DD0DDE908C38CF0100C5CEA1D
:1029E000030C0CD015E0FF1D27F00707F7E80201E4
:1029F000EBE740228DF828204FF0010A0BE050EA67
:102A0000010306D030238DF828308DF829200223C9
:102A10009A46582A04D024A20DF120090B9209E00D
:102A200026A2F9E7DDE90823FDF778FE0B9B9B5C06
:102A300009F8013D50EA0102F4D1ADEB0900203064
:102A40000890680701D44FF001080899884502DD15
:102A5000A8EB010000E000208046002506E00AA85F
:102A60005A46405D0F9990476D1C761C5545F6DB24
:102A700004E030205A460F999047761CB8F10001C7
:102A8000A8F10108F5DC05E019F8010B5A460F9989
:102A90009047761C0899481E08900029F4DC641CB5
:102AA000C5E60000092801003031323334353637AD
:102AB000383961626364656600000000303132338A
:102AC000343536373839414243444546000000002A
:102AD0002DE9F84F04460D4621F00040009173495E
:102AE000814211DC7249884201DC06D12CB12046BA
:102AF0002946BDE8F84FFFF76EBE6E48002DCCBFEB
:102B00006D496E49BDE8F88F6D49814211DD6D490F
:102B10008142D8BF4FF0FF366DDD20462946FFF7D2
:102B2000F1FD042808BFFFF75BFE20462946BDE8FB
:102B3000F88F6549654F25F00045814233DD6449D2
:102B4000814219DD002632464FF080432046294657
:102B5000FDF7D2FB80468A46012220462946FDF732
:102B6000E5FE00223B46FDF768FC42465346FDF772
:102B7000DCFC04460D463EE001260022BA463B46F8
:102B800020462946FDF7B8FB80460F4600225346F3
:102B900020462946FDF751FC42463B46FDF7C5FC61
:102BA00004460D4627E04B4981421BDDDFF828A192
:102BB00002260022534620462946FDF744FC002207
:102BC0003B46FDF799FB80460F46002253462046C0
:102BD0002946FDF732FC42463B46FDF7A6FC04467B
:102BE0000D4608E0032622462B4600203B49FDF710
:102BF0009CFC04460D4622462B4610461946FDF71E
:102C000022FC8B46824602460B46FDF71CFC07461B
:102C10000246334888460B4606217844FFF786FD76
:102C200052465B46FDF70FFC82462E488B463A46DD
:102C3000434605217844FFF779FD3A464346FDF7C0
:102C400002FC02460B46002E504659460CDAFDF7B0
:102C500053FB22462B46FDF7F6FB01B022462B46DE
:102C6000BDE8F04FFDF7ECBBFDF746FB22462B46D7
:102C7000FDF7E9FB1C4A7A4402EBC603D3E90023C3
:102C8000FDF7DBFB22462B46FDF7D7FB174A7A44BC
:102C900002EBC603D3E90023FDF7D2FB009A002A1A
:102CA000B8BF81F00041BDE8F88F0000000010447B
:102CB0000000F07F182D4454FB21F93FFB21F9BFA0
:102CC0000000DC3F0000203E0000F33F0000F03F2A
:102CD0000000E63F008003400000F83F0000F0BF26
:102CE000CA0500008805000026050000EE0400006B
:102CF0002DE9F04D9446CCF1000423F000464CEA57
:102D00000404524F46EAD4749A46884621F00042A1
:102D1000BC4206D8454240EA050442EAD474BC42AB
:102D200004D9BDE8F04D6246FFF758BDAAF1405501
:102D3000A5F17F6555EA0C040BD0022404EAAA74BD
:102D4000434DDFF810E144EAD87452EA000B04D096
:102D50000CE0BDE8F04DFFF7BBBE002C14BF012C0A
:102D6000BDE8F08D022C30D0032C32D056EA0C0B8B
:102D70000AD0BE4220D1BA4209D126F0804622F0C4
:102D800080423346114617E000291ADB25E0DFF8C0
:102D9000C8B0FB44002C04BFDBE90001BDE8F08DA6
:102DA000012C02BFDBE9000181F00041BDE8F08D9C
:102DB000022C0AD0032C0CD0BA4212D1B8F1000F69
:102DC0000BDA23482549BDE8F08D28462449BDE8A3
:102DD000F08D28467146BDE8F08D1D482149BDE8BB
:102DE000F08D921B12153C2AC4BF19481D490EDCF8
:102DF000BAF1000FBEBF12F13C0F0020014606DB06
:102E00006246FDF792FB21F00041FFF761FE002CC6
:102E100008BFBDE8F08D012C04BF81F00041BDE882
:102E2000F08D114A114B022C07D0FDF706FB2A4604
:102E3000BDE8F04D0A4BFDF700BBFDF7FEFA2A4650
:102E4000BDE8F04D064BFDF7FBBA00000000F07F37
:102E5000182D4454FB2109C082040000FB21F9BF56
:102E6000FB210940FB21F93F075C143326A6A13C56
:102E70002DE9F04104460D461646E76825603146C7
:102E80002068FDF7C3F9606061686069FDF7C4F907
:102E90002062A16B6068FDF7BFF980463946FDF7F7
:102EA00063F907463846D4E90C12FDF74FFFE0609E
:102EB000E168A069FDF7B0F96062D4E90101FDF7AE
:102EC000A5F98046A16BFDF7D9F920612169E06978
:102ED000FDF7A2F9A062D4E90801FDF745F98046A3
:102EE000A16AFDF741F9E0626068A060BDE8F08189
:102EF0002DE9F05F04460F4615461E46DDF844B046
:102F0000DDE90B9ADDF82880324621461648FFF7A6
:102F1000AFFF424639461548FFF7AAFF4A46294601
:102F20001348FFF7A5FF10485246C16A1148FFF742
:102F30009FFF0E48C16A10480D9AFFF799FF0C4891
:102F4000C16A0E480E9AFFF793FF0A48C16A0F98AC
:102F500001600948C16A109801600848C06ACBF84E
:102F60000000BDE8F09F0000100200204C0200208D
:102F700088020020C4020020000300203C0300203F
:102F800010B56FF00400FEF750FE0A4800680A49C9
:102F9000B0FBF1F0094908700846007800EB4001E9
:102FA000C1EBC0104FF6FF7101EAC0000449088070
:102FB00010BD00000000002000127A001400002064
:102FC000160000200146114A12884A434FF0E023C0
:102FD0005A6100229A611A46126942F001021A618E
:102FE00000BF4FF0E022106900F001021AB100F4B6
:102FF0008032002AF5D04FF0E022126922F001025F
:103000004FF0E0231A6100229A61704716000020F9
:1030100000BF054A128802F04002002AF9D0C2B26D
:10302000014B1B1D1A807047003801401CB5FEF78C
:103030008FF81F48FFF756FB39E0FEF7ADFB1D493F
:103040001D480068FDF7E8F88146FDF7F7FA0446E9
:1030500018491A480068FDF7DFF88146FDF7EEFAD7
:103060000546144916480068FDF7D6F88146FDF775
:10307000E5FA06460F4913480068FDF7CDF881468A
:10308000FDF7DCFA07460B490F480068FDF7C4F866
:103090008146FDF7D3FA804633463A4641460BA0B7
:1030A000CDE90054FFF71EFB3220FFF78BFFC4E78A
:1030B0002032000800007A44B0000020AC0000205C
:1030C0006C000020A8000020680000207B422564DE
:1030D0003A25643A25643A25643A25647D24000043
:1030E00010B586B00446012144F20400FEF7C6FA8A
:1030F0004FF40070ADF8140003208DF8160018206E
:103100008DF8170005A91C48FDF7FEFE4FF48060FE
:10311000ADF8140004208DF8170005A91648FDF736
:10312000F3FE25208DF8000003208DF801008DF8B6
:10313000020001208DF803006846FEF74BFA019467
:103140000020ADF80800ADF80A00ADF80C00ADF8AD
:1031500010000C20ADF80E0001A90848FFF74EFA48
:10316000012240F225510548FFF722FA01210348C8
:10317000FFF7E8F906B010BD000801400038014033
:103180004FBB610567ACDD3F182D4454FB21E93F7F
:103190009BF681D20B73EF3F182D4454FB21F93F6E
:1031A000E2652F227F2B7A3C075C143326A6813CF4
:1031B000BDCBF07A8807703C075C143326A6913C9F
:1031C000C4EB98999999C9BF711623FEC671BCBF0B
:1031D0006D9A74AFF2B0B3BF9AFDDE522DDEADBF73
:1031E0002F6C6A2C44B4A2BF0D5555555555D53F8B
:1031F000FF8300922449C23F6E204CC5CD45B73FA6
:10320000513DD0A0660DB13FEB0D76244B7BA93F1D
:1032100011DA22E33AAD903F000000000000000008
:10322000466C69676874436F6E74726F6C6C65721C
:103230002069732072756E6E696E672E0D0A554196
:103240005620697320616C776179732072656164BF
:103250007920746F2066616C6C206C696B652061ED
:103260002073616C74656420666973682077697483
:10327000686F757420647265616D2E0A000000002D
:10328000A032000800000020F4000000F027000831
:1032900094330008F40000209C0600000028000879
:1032A00000A24A0400000000000000000102030424
:1032B00006070809000000000000000000000000F0
:1032C00000000102030401020304060708090204C6
:1032D00006080000000000000000000000000000E0
:1032E00000000000000000000000000000000000DE
:1032F00000000000000000000000000000000000CE
:1033000000000000000000000000000000000000BD
:1033100000000000000000000000000000000000AD
:10332000000000000000000000000000000000009D
:10333000000000000000000000000000010000008C
:10334000010000000000000000000000000000007C
:10335000000000000000000000000000000000006D
:10336000000000000000C03F8BE1EA37ACC5A73782
:103370000000C03F8BE1EA37ACC5A7376666663F01
:10338000ACC5A737B5FE96376666663FACC5A737AE
:04339000B5FE9637B9
:0400000508000145A9
:00000001FF
