:020000040800F2
:10000000680900204501000883170008DB0E00087E
:100010007F1700083B0B00083F220008000000008B
:10002000000000000000000000000000091A0008A5
:10003000710B000800000000091800081D1B0008D3
:100040005F0100085F0100085F0100085F01000810
:100050005F0100085F0100085F0100085F01000800
:100060005F0100085F0100085F0100085F010008F0
:100070005F0100085F0100085F0100085F010008E0
:100080005F0100085F0100085F0100085F010008D0
:100090005F0100085F0100085F010008750B0008A0
:1000A0005F0100085F0100085F0100085F010008B0
:1000B0005F0100085F0100085F0100085F010008A0
:1000C0005F0100085F0100085F0100085F01000890
:1000D0005F0100081D2000085F0100085F010008A3
:1000E0005F0100085F0100085F0100085F01000870
:1000F0005F0100085F0100085F0100085F01000860
:100100005F0100085F010008811B00085F01000813
:100110005F0100085F0100085F0100085F0100083F
:100120005F0100085F0100085F0100085F0100082F
:10013000DFF80CD000F09EFC00480047794A000828
:10014000680900200648804706480047FEE7FEE7AA
:10015000FEE7FEE7FEE7FEE7FEE7FEE7FEE7FEE777
:10016000211B0008310100082DE9F0410024061B85
:10017000254671F1000605DA01240027D0EB0700BF
:1001800067EB0101161E73F1000605DA0027D2EBBA
:100190000702012567EB030300F05EFB86460E466F
:1001A00017469C46AC4204D00025D0EB050E65EB0B
:1001B000010624B10020D2EB000760EB030C70466F
:1001C00031463A466346BDE8F08140EA01039B07A9
:1001D00003D009E008C9121F08C0042AFAD203E0BC
:1001E00011F8013B00F8013B521EF9D27047D2B220
:1001F00001E000F8012B491EFBD270470022F6E710
:1002000010B513460A4604461946FFF7F0FF20468C
:1002100010BD30B504460020034600E05B1C93424D
:1002200003D2E05CCD5C401BF8D030BDF0B480EA76
:100230000102D40F4200B2EB410F02D2024608463F
:1002400011464A0042D0C30DDDB2C1F3C752AD1A08
:10025000202D35DAC1F3160141F4000204B15242F7
:10026000C5F1200602FA06F12A411044B3EBD05F33
:1002700023D0C4B1012DA0EBC35009DCF0BC4FF07A
:10028000004202EAC352DBB200F5000000F04FBBAF
:10029000400000F1807000EBC350A0F1807040EA94
:1002A000D170490009E0490841EAC071A0EBC35090
:1002B00000F50000400800EBC350F0BC00F02EBB7E
:1002C0006142012202EB4101001BF6E7F0BC7047DE
:1002D00081F00041AAE780F00040A7E780EA010230
:1002E00010B502F00043400022D04A001FD0010E9A
:1002F00001EB1261C0F35600C2F3560240F4000055
:1003000042F40002A0FB022000047F39140400D054
:10031000401C50EA124001D44000491EC2B20C06F3
:1003200004EBD010401C4008802A02D003E00020DB
:1003300010BD20F00100002900DA0020184310BD94
:1003400030B480EA010202F0004530F0004221F0B2
:10035000004013D090B1C30DD40DC2F31601C0F309
:100360001600E41A41F4000140F400027D34914289
:1003700001D3641C00E04900002C02DA30BC0020EC
:1003800070474FF400000023914201D3891A0343C0
:1003900040084FEA4101F7D151B1914202D14FF0EB
:1003A000004105E002D24FF0010101E06FF00101D0
:1003B00003EBC450284430BC00F0B0BA2DE9FE4F26
:1003C000804681EA0300C00F0C46009021F00041F6
:1003D00023F00045B8EB0200A94105D24046214672
:1003E00090461C460B46024623F00040104347D07F
:1003F000270DC7F30A00C3F30A510290401A019077
:1004000040286BDAC3F3130040F4801B0098924637
:1004100020B10023D2EB030A63EB0B0B0198594682
:10042000C0F14002504600F048FA06460D465046DC
:100430005946019A00F060FA10EB0800614100246F
:1004400087EA115284EAE7731A4340D0009A62B3F4
:10045000019A012A4FEA075215DC001B61EB0201E9
:100460004FF0004202EA0752CDE90042001C41F57C
:10047000801132462B4600F097FA03B0BDE8F08FAA
:1004800040462146F9E7001B61EB0201001C41F5E3
:10049000801300185B412018A2F5001747EB0301F9
:1004A00040EAD570B6196D4111E06D084FEA360685
:1004B00045EAC0754FEA0752001B61EB0201001CC0
:1004C00041F5801149084FEA300000195141324688
:1004D0002B4603B0BDE8F04F00F057BA0098012258
:1004E00040000023D0EB020263EBE073009821464A
:1004F0004FEAE074B8EB000061EB0401E9E783F038
:1005000000435BE781F0004158E72DE9FE4F81EAA7
:10051000030404F0004421F0004100944FF0000B6C
:1005200023F0004350EA01045ED052EA03045BD09A
:10053000C3F30A54C1F30A552C44A4F2F3340194D2
:10054000A0FB0254C1F3130141F48011C3F3130360
:1005500043F4801301FB024400FB034E840A970A14
:1005600044EA815447EA8357A4FB076802958D0A41
:1005700005FB07854FEA932C04FB0C542705029DCD
:100580004FEA065847EA1637B5EB08056EEB070C3D
:10059000870E920E47EA811742EA8312A7FB0201F7
:1005A000B6EB0B0164EB00042B0D43EA0C335E1831
:1005B00044EB1C50DA465146E7FB0201C5F3130435
:1005C0004FEA0B3343EA14534FEA0432019C43EAE7
:1005D0000603A4F10C040294009CCDE900B400F0E1
:1005E000E3F903B0BDE8F08F00200146F9E72DE9FB
:1005F000F04D81EA030404F0004B21F0004514465D
:100600004FF0000A23F0004150EA050220D054EADE
:1006100001021DD0C5F30A570246C5F31303C1F307
:100620001300C1F30A5640F4801543F48013A7EB7E
:100630000608101BD64608F2FD3873EB050002D3FE
:1006400008F1010801E092185B41B8F1000F03DAEC
:1006500000200146BDE8F08D00204FF480110646D1
:1006600084460EE0171B73EB050705D3121B63EBE3
:10067000050306434CEA010C49084FEA3000921882
:100680005B4150EA0107EDD152EA030012D082EA41
:10069000040083EA0501084305D0101BAB4106D2D4
:1006A0000122002306E000224FF0004302E06FF039
:1006B000010253101AEB06004CEB085110EB0A0034
:1006C00041EB0B01BDE8F04D00F05FB9C10F80EACE
:1006D000E0700844CA079623002100F028B9962349
:1006E0000022114600F023B90EB5C10F80EAE07078
:1006F0000844CA07002140F233438DE80E000A4641
:100700000B4600F051F903B000BD00F0004220F0AC
:100710000040C10DC0F3160040F400007F2901DA4B
:1007200000207047962903DCC1F19601C84001E022
:1007300096398840002AF4D04042704720F00040AB
:10074000C10DC0F3160040F400007F2901DA00203B
:100750007047962903DCC1F19601C840704796396D
:100760008840704770B5C1F30A5201F0004500247B
:10077000C1F3130140F2FF3341F480119A4201DAD0
:10078000002070BD40F233439A42A2F2334203DCB0
:10079000524200F0A1F800E090402C43F1D04042DA
:1007A00070BD00F0004230F000400AD0C10D01F5EC
:1007B0006071C0F3160042EA0151C20840071143BC
:1007C000704700200146704730B5041E71F10004E7
:1007D00004DB4FF00044404264EB0101141E73F14E
:1007E000000405DB1C464FF00043524263EB040358
:1007F000994208BF904230BD01F0004330B421F06F
:10080000004150EA010206D00A0DA2F56072C1F360
:100810001301002A02DC30BC00207047440F44EA78
:10082000C104C100E01830BC00EBC25000F076B843
:10083000002801DBC0F10040002901DBC1F10041CB
:1008400081427047002801DBC0F10040002901DB34
:10085000C1F10041884270472DE9F05F0546002054
:1008600092469B4688460646814640241BE0284621
:1008700041464746224600F02FF853465A46C01AD2
:10088000914110D311461846224600F016F82D1A51
:1008900067EB01084F4622460120002100F00DF8C9
:1008A00017EB00094E41201EA4F10104DFDC48468D
:1008B00031462A464346BDE8F09F202A04DB203A11
:1008C00000FA02F1002070479140C2F1200320FAA3
:1008D00003F3194390407047202A04DB203A21FAA1
:1008E00002F00021704721FA02F3D040C2F1200249
:1008F0009140084319467047202A06DBCB17203A5F
:1009000041FA02F043EAE07306E041FA02F3D04014
:10091000C2F1200291400843194670470029A8BF40
:100920007047401C490008BF20F00100704710B418
:10093000B0FA80FC00FA0CF050EA010404BF10BCCD
:10094000704749B1CCF1200421FA04F411FA0CF1FA
:1009500018BF012121430843A3EB0C01CB1D4FEA33
:1009600000614FEA102042BF002010BC704700EB2E
:10097000C35010440029A4BF10BC7047401C49005C
:1009800008BF20F0010010BC704710B5141E73F1B1
:10099000000408DA401C41F1000192185B411A433F
:1009A00001D120F0010010BD2DE9F04D92469B468B
:1009B00011B1B1FA81F202E0B0FA80F22032904631
:1009C000FFF77BFF04460F4640EA0A0041EA0B01AD
:1009D00053465A46084313D0114653EA010019D032
:1009E000C8F140025046FFF777FF05460E465046D5
:1009F00059464246FFF761FF084305D0012004E055
:100A000020463946BDE8F08D0020054346EAE076F1
:100A10002C4337430A986305E40AA0EB0800002240
:100A2000FD0A44EA47540A3002D500200146E9E7AE
:100A3000010510196941DDE9084500196941BDE862
:100A4000F04DA2E770B521F0004303430CD0C1F391
:100A50000A550024D5EB040564EB0403D617AD1A40
:100A6000B34102DB0020014670BD201841EB02516A
:100A700070BD0000064C074D06E0E06840F0010341
:100A800094E8070098471034AC42F6D3FFF754FBC4
:100A900050740008707400082DE9F04D00231A46C8
:100AA0001B1A8A4103DB00200146BDE8F08DC1F32B
:100AB0000A52C1F3130141F480154FF0000BD10726
:100AC00002D100186D41521E0027044640F2FF116A
:100AD000384601EB620A3E468046024600204FF44B
:100AE0008011FFF7F9FEC2197141BB1846EB0100F6
:100AF000B4EB030C75EB000C04D3E41A65EB0005B2
:100B000017460E46241908F101006D41804634282D
:100B1000E3DDF91946EB0600091BA84103D24FF0AB
:100B2000FF32134601E0002213461BEB070046EBA1
:100B30000A51BDE8F04DFFF728BF00BFFEE770B5D2
:100B400006460D46144621462846FFF771FE0DD095
:100B500029463046FFF776FE01D8284670BD21466B
:100B60003046FFF765FE01D82046F7E73046F5E747
:100B70007047000010B54021294800F0A1F928BBBA
:100B80002848007840B927480078401C254908705B
:100B9000402000F051F810BD22480078401C214947
:100BA0000870214800882149214A127821F8120052
:100BB0001F480078401C1E49087000211A4824383C
:100BC00001F027F800201849088009E0194800784A
:100BD000401C1849087001211348243801F019F805
:100BE000144800780F490978884213D110480078DA
:100BF00009280FDB00200B4908700E4908700021FE
:100C00000948243801F005F8002007490880012030
:100C100007490870402000F00FF800BFBBE7000054
:100C200000080140BB00002024040040880400208C
:100C3000B9000020BA000020014908607047000098
:100C400014040140002123498279002A3AD00A463F
:100C5000126803689A430B461A600A1D12680368FB
:100C60009A430B1D1A60027911440A6803681A43FB
:100C70000A60184A0832126803689A43154B083311
:100C80001A601A1D126803689A43124B0C331A60DB
:100C90004279102A0ED11A1F126803681A430D4BAD
:100CA00008331A601A1D126803681A43094B0C3383
:100CB0001A600DE00749427911440A6803681A4333
:100CC0000A6005E0027911440A6803689A430A60E1
:100CD000704700000004014030B500228B071C0F54
:100CE0000F2303FA04F20B4B8C1053F82430934378
:100CF000084C8D1044F8253023468C1053F82430CE
:100D00008C07240F00FA04F42343024C8D1044F89E
:100D1000253030BD080001402DE9F0410246002594
:100D20000026002000230024002791F803C00CF0C7
:100D30000F0591F803C00CF0100CBCF1000F03D0AC
:100D400091F802C04CEA050591F800C0BCF1000F13
:100D500031D0146800202BE04FF0010C0CFA00F3A6
:100D6000B1F800C00CEA03069E4220D183004FF088
:100D70000F0C0CFA03F7BC4305FA03FC4CEA04041D
:100D800091F803C0BCF1280F06D14FF0010C0CFA0A
:100D900000FCC2F814C00AE091F803C0BCF1480F8F
:100DA00005D14FF0010C0CFA00FCC2F810C0401C39
:100DB0000828D1D31460B1F800C0BCF1FF0F34DDB6
:100DC000546800202EE000F1080C4FF0010808FAEA
:100DD0000CF3B1F800C00CEA03069E4221D1830057
:100DE0004FF00F0C0CFA03F7BC4305FA03FC4CEA76
:100DF000040491F803C0BCF1280F05D100F1080CE0
:100E000008FA0CF8C2F8148091F803C0BCF1480F3E
:100E100007D100F1080C4FF0010808FA0CF8C2F8ED
:100E20001080401C0828CED35460BDE8F08100003B
:100E3000F0B50A46002300240021002500F00046FA
:100E4000B6F1004F02D11D4EF16901E01B4E7168F1
:100E5000C0F3034583B200F44016B6F5401F08D135
:100E600021F07061154E766826F07066134F7E6033
:100E700012E000F48016B6F5801F06D1032606FAAC
:100E800005F4A14341F0706106E0460D360103FA16
:100E900006F6B14341F0706122B1460D360103FA06
:100EA00006F6314300F00046B6F1004F02D1034E82
:100EB000F16101E0014E7160F0BD000000000140F1
:100EC0000246002093680B400BB1012000E0002097
:100ED0007047416170470161704700BFFEE72DE92F
:100EE000FF5F88B092469946DDF85CB0ABF1010037
:100EF00004B208E0601E0AEBC00103C90AEBC40299
:100F000003C2601E04B2002CF4DCDDE90801CAE96A
:100F1000000100252E46002418E0169800EBC400BE
:100F200003C8CDE902010AEBC40003C8CDE9000102
:100F3000DDE90223FFF7E9FA2A463346CDE9040149
:100F4000FFF73CFA05460E46601C04B25C45E4DB44
:100F50001998401E04B208E0601E09EBC00103C9E5
:100F600009EBC40203C2601E04B2002CF4DC0027AB
:100F7000B846012418E0189800EBC40103C9CDE974
:100F8000020109EBC40003C8CDE90001DDE9022339
:100F9000FFF7BBFA3A464346CDE90401FFF70EFAE4
:100FA00007468846601C04B219988442E3DB3A463F
:100FB000434628463146FFF7A2FAC9E90001D9E9BC
:100FC0000001CDE90601DDE906010CB0BDE8F09FA6
:100FD0007FB508AC70CC0021016041608160C160C8
:100FE000016101994161029981610399C161002107
:100FF000016241628162C1620463456386637FBDB1
:1010000008B50121402000F011FC10208DF80300EC
:101010002020ADF8000003208DF8020069460C483E
:10102000FFF77AFE20210A48FFF753FF10208DF8C2
:1010300003004020ADF8000003208DF8020069464F
:101040000348FFF769FE40210148FFF742FF08BD52
:10105000001801402DE9F04704460D46164631467A
:101060002846FFF73BF9804631464FF07E50FFF7A8
:101070002FF981462146FFF731F907464146FFF730
:10108000D5F8BDE8F087000000B589B0012108203F
:1010900000F0CCFB4FF47070ADF8200018208DF8F4
:1010A000230003208DF8220008A92748FFF734FE0B
:1010B0000121042000F0AAFB0121084600F0B6FB44
:1010C0004720ADF8140040F6C310ADF8180000201A
:1010D000ADF81600ADF81A0005A91C4800F01CFF79
:1010E0006020ADF804000120ADF806000020ADF846
:1010F0000C0040F23D30ADF80A0001A9134800F0A1
:10110000AFFD0821114800F0F7FD01A90F4800F0DC
:10111000FDFD08210D4800F04BFE01A90B4800F031
:1011200055FE0821094800F0A1FE01A9074800F07A
:10113000A7FE0821054800F0E1FE0121034800F068
:1011400068FD09B000BD0000000C0140000800402F
:1011500030B504460D48007858B90D48007840B1C4
:101160000C480480001D0180001D0280001D0380CA
:1011700009E040F2D920074D28802D1D28802D1D23
:1011800028802D1D2880002030BD00008000002018
:1011900081000020340800402DE9FC4104460D4642
:1011A00016466B4606223B21682000F012FA0746DD
:1011B000BFB99DF801009DF8001040EA012000B27F
:1011C00020809DF803009DF8021040EA012000B243
:1011D00028809DF805009DF8041040EA012000B227
:1011E00030803846BDE8FC812DE9FC4104460D46BF
:1011F00016466B4606224321682000F0EAF90746AE
:10120000BFB99DF801009DF8001040EA012000B22E
:1012100020809DF803009DF8021040EA012000B2F2
:1012200028809DF805009DF8041040EA012000B2D6
:1012300030803846BDE8FC8100B500200E490860CA
:101240000E48006820F470000C49086008460068E9
:1012500040F44010086000200949C1F8B40100F0D2
:1012600011F801200449086000F00CF8002004493E
:10127000C1F8B00100BD0000B0812142040C014062
:10128000008021421E2001E0411EC8B20028FBD18F
:101290007047000008B50121082000F0C7FA4FF49C
:1012A0004050ADF8000010208DF8030003208DF8A9
:1012B000020069460448FFF72FFD4FF440510248F1
:1012C000FFF709FE08BD0000000C014000B500203A
:1012D0000E4908600E48006820F470000C49086050
:1012E0000846006840F44010086001200949C1F830
:1012F000B401FFF7C7FF012004490860FFF7C2FFF0
:1013000000200449C1F8B00100BD0000B0812142B5
:10131000040C01400080214210B50346002216480B
:10132000006820F47000144908600846006840F422
:1013300000000860002414E0002010490860FFF756
:10134000A1FF01200E49C1F8B0015006020E0B4862
:101350007C38006808B1501CC2B2FFF793FF601CD4
:10136000C4B2082CE8DB13B9FFF7B0FF01E0FFF7C8
:1013700063FF104610BD0000040C0140B081214203
:101380000080214200B502461248006820F4700037
:10139000104908600846006840F4401008600020CA
:1013A0000D490860002312E0D0090B49091D0860AF
:1013B0005006020E01200949C1F8B001FFF762FF93
:1013C000002005490860FFF75DFF581CC3B2082BD9
:1013D000EADB00BD040C0140B081214200802142C3
:1013E00000B50E48006820F470000C4908600846FB
:1013F000006840F44010086001200949086009496C
:10140000C1F8B001FFF73EFF002005490860FFF773
:1014100039FF00200349C1F8B00100BD040C0140B0
:10142000B48121420080214200B50E48006820F4BA
:1014300070000C4908600846006840F440100860DD
:101440000020094908600949C1F8B401FFF71AFFF3
:101450000120054908600549C1F8B401FFF712FFF2
:1014600000BD0000040C0140B081214200802142F7
:1014700000B500221448006820F47000124908608A
:101480000846006840F40000086001200F49086029
:10149000FFF7F8FE01200E49C1F8B001FFF7F2FE98
:1014A00007E0501CC2B2FA2A03DDFFF7BDFF01209E
:1014B00000BD0648803800680028F2D10349091FA2
:1014C000086000BFF4E70000040C0140B481214231
:1014D0000080214238B50121084600F0A7F901211A
:1014E000042000F0A3F94FF40040ADF800001020F4
:1014F0008DF8030003208DF8020069462348FFF7AA
:101500000BFC01212248FFF793FC002021490860D1
:10151000FFF7C0FE80216B2000F0DFF8642001F0AF
:10152000FBFF00216B2000F0D8F8022000F093F8B8
:10153000012000F088F84FF4C87000F0B1F80021E5
:10154000382000F0CAF800216A2000F0C6F8002117
:10155000232000F0C2F88021372000F0BEF875206B
:1015600000F01AF80446682C0CD101216B2000F021
:10157000B4F800216C2000F0B0F84FF4C87000F00F
:101580008FF801E0012038BD0020FCE70008014091
:1015900000023000BC01214270B50446FFF720FF75
:1015A000D020FFF7EFFEFFF763FF2046FFF7EAFECC
:1015B000FFF75EFFFFF714FFD120FFF7E3FEFFF711
:1015C00057FF0020FFF7A8FE0546FFF72DFF28462E
:1015D00070BD2DE9F04106460F4614461D46FFF743
:1015E000FFFE002141EA4601C8B2FFF7CBFEFFF73C
:1015F0003FFF20B1FFF718FF0120BDE8F08138461A
:10160000FFF7C0FEFFF734FFFFF7EAFE012101EB11
:101610004601C8B2FFF7B6FEFFF72AFF0DE0012C26
:1016200004D10020FFF778FE287003E00120FFF7C7
:1016300073FE2870601EC4B26D1C002CEFD1FFF742
:10164000F3FE0020D9E710B50446E006010E1C2089
:1016500000F043F810BD10B50446E006010E1B2053
:1016600000F03BF810BD70B504460025BC2C01DB32
:10167000012510E0622C01DB02250CE02A2C01DBA5
:10168000032508E0142C01DB042504E00A2C01DB0F
:10169000052500E0062529461A2000F01EF870BD39
:1016A00070B50446B4F57A7F01DD4FF47A74042CEA
:1016B00000DA04244FF47A7090FBF4F0401EC5B2B7
:1016C0002946192000F009F80546264604EBD67194
:1016D000C1F34F00FFF7C7FF70BD70B505460C465C
:1016E000FFF77EFED020FFF74DFEFFF7C1FE18B1D9
:1016F000FFF79AFE012070BD2846FFF743FEFFF773
:10170000B7FE2046FFF73EFEFFF7B2FE18B1FFF727
:101710008BFE0120EFE7FFF787FE0020EBE72DE9C6
:10172000F04105460E4617469846FFF759FE002140
:1017300041EA4501C8B2FFF725FEFFF799FE20B147
:10174000FFF772FE0120BDE8F0813046FFF71AFE78
:10175000FFF78EFE00240CE018F80400FFF712FEDD
:10176000FFF786FE18B1FFF75FFE0120EBE7601C74
:10177000C4B2BC42F0DBFFF757FE0020E3E700BF36
:10178000FEE7704770B5002100230F22C47804B330
:10179000154C246804F4E064C4F5E064210AC1F146
:1017A0000403CA40447804FA03F1847814402143C6
:1017B00009010E4C0678A155047804F01F05012498
:1017C000AC4005786D11AD0005F1E025C5F800418C
:1017D00009E0047804F01F050124AC40044D0678AC
:1017E000761145F8264070BD0CED00E000E400E005
:1017F00080E100E002490143024A116070470000A5
:101800000000FA050CED00E07047000029B1064A1F
:10181000D2690243044BDA6104E0034AD26982438D
:10182000014BDA61704700000010024029B1064AFE
:1018300092690243044B9A6104E0034A926982432D
:10184000014B9A61704700000010024030B5002142
:101850000022002400232D4D6D6805F00C0121B1FC
:10186000042905D0082923D105E0294D056022E08F
:10187000274D05601FE0254D6D6805F47012234D5E
:101880006D6805F48034022505EB92421CB9214DA8
:10189000554305600BE01D4D6D6805F400351DB125
:1018A0001C4D5543056002E0194D5543056002E0AB
:1018B000174D056000BF00BF144D6D6805F0F001C5
:1018C0000909154D6B5C0568DD4045600F4D6D687D
:1018D00005F4E061090A104D6B5C4568DD408560E8
:1018E0000A4D6D6805F46051C90A0B4D6B5C456883
:1018F000DD40C560054D6D6805F44041890B074D1D
:101900006B5CC568B5FBF3F5056130BD00100240A6
:1019100000127A0000093D00C6000020D600002019
:1019200030B587B00025002401210846FFF77EFF6F
:1019300001210420FFF77AFF01210220FFF766FF53
:101940004020ADF80C0048208DF80F0003208DF8E2
:101950000E0003A92948FFF7DFF906210020FFF751
:10196000BBF94020059000208DF8180010208DF85C
:10197000190001208DF81A004720ADF8000040F250
:10198000CF70ADF804000020ADF80200ADF80600FD
:1019900069461B4800F0C0FA17208DF8100000209F
:1019A0008DF811008DF8120001208DF8130000BF92
:1019B000FA2001F0D7FD03F045F818B905F1FA0057
:1019C00005B200E0002503F04BF8012803D104F133
:1019D000FA0004B200E0002441F28830854202DCC3
:1019E00080008442E4DD05A8FFF72CF904A8FFF786
:1019F000C9FE01200349087007B030BD000801404E
:101A000000040040B9000020704710B500F002F853
:101A100010BD00000CB50020019000903348006814
:101A200040F480303149086000BF3048006800F45D
:101A3000003000900198401C0190009818B901985E
:101A4000B0F5A06FF1D12948006800F4003010B162
:101A50000120009001E0002000900098012843D16F
:101A60002348006840F010002149086008460068DB
:101A700020F0030008600846006840F0020008609B
:101A80001A48406819494860084640684860084656
:101A9000406840F4806048600846406820F47C104C
:101AA00048600846406840F4E8104860084600680E
:101AB00040F08070086000BF0C48006800F00070C3
:101AC0000028F9D00948406820F003000749486021
:101AD0000846406840F00200486000BF0348406884
:101AE00000F00C000828F9D10CBD000000100240E5
:101AF00000200240042808D14FF0E021096941F09C
:101B000004014FF0E022116107E04FF0E021096984
:101B100021F004014FF0E02211617047704700008E
:101B200010B51348006840F00100114908600846EC
:101B30004068104908400E494860084600680E4950
:101B400008400B4908600846006820F480200860BF
:101B50000846406820F4FE0048604FF41F0088608B
:101B6000FFF753FF4FF000600449086010BD00000C
:101B7000001002400000FFF8FFFFF6FE08ED00E055
:101B800010B586B0002005900490039002900121CA
:101B90001C4800F04AF870B304F03CFB012817D150
:101BA00004F0D0F802A803AB04AA05A90090012014
:101BB00001F082FABDF80840A3B2BDF80C40A2B211
:101BC000BDF81040A1B2BDF81440A0B2FFF7C0FAB2
:101BD0000D48B0F9000004F08DFC0B480088401C53
:101BE00000B2094908800846B0F90000B0F5C87F86
:101BF00001DD002008800121024800F007F806B04E
:101C000010BD0000000C004000000020CA4302820A
:101C1000704721B1028842F00102028004E002888C
:101C20004FF6FE731A400280704730B5024600201E
:101C300000230024158A05EA0103958905EA0104B9
:101C400013B10CB1012000E0002030BD1AB183892E
:101C50000B43838102E083898B43838170470000BB
:101C600070B5002400220023058C4FF6FE76354027
:101C70000584028C8388048B4FF68F752C40B51E2B
:101C80002C400D882C43751E2A400D892A434D880F
:101C90002A43144DA8420BD0134DA84208D0134D2F
:101CA000A84205D0124DA84202D0124DA84213D12D
:101CB0004FF6F7752A404D892A434FF6FB752A40A7
:101CC0008D882A434FF6FF652B404FF6FF552B407A
:101CD0008D892B43CD892B4383800483CD888586D2
:101CE000028470BD002C01400034014000400140DE
:101CF00000440140004801400A460021018B4FF694
:101D0000F7731940114301837047000070B5002438
:101D100000220023058C4FF6EF7635400584028CB7
:101D20008388048B48F6FF752C404FF6FF452C4006
:101D30000D884FF6FF7606EA05252C434FF6DF7532
:101D40002A400D8906EA05152A434D8806EA05153D
:101D50002A43154DA84202D0144DA8421DD14FF67A
:101D60007F752A404D894FF6FF7606EA05152A430E
:101D70004FF6BF752A408D8806EA05152A434FF6AF
:101D8000FF352B404FF2FF752B408D8906EA850504
:101D90002B43CD8906EA85052B4383800483CD88B8
:101DA0000587028470BD0000002C01400034014012
:101DB0000A460021018B4FF2FF7319404FF6FF7363
:101DC00003EA0223194301837047000070B5002421
:101DD00000220023058C4FF6FF6635400584028CF7
:101DE0008388848B4FF68F752C404FF6FC752C4002
:101DF0000D882C434FF6FF552A400D894FF6FF768C
:101E000006EA05252A434D8806EA05252A43154D8D
:101E1000A84202D0144DA8421DD14FF2FF752A40AE
:101E20004D894FF6FF7606EA05252A434FF6FF3522
:101E30002A408D8806EA05252A434EF6FF752B4079
:101E40004DF6FF752B408D8906EA05152B43CD898C
:101E500006EA05152B4383808483CD888587028419
:101E600070BD0000002C0140003401400A460021F2
:101E7000818B4FF6F773194011438183704700003F
:101E800070B5002200230024058C4EF6FF76354005
:101E90000584038C8488828B48F6FF752A404FF6B0
:101EA000FF452A400D884FF6FF7606EA05252A43AE
:101EB0004DF6FF752B400D8906EA05352B434D88FD
:101EC00006EA05352B430B4DA84202D00A4DA84225
:101ED00008D14BF6FF752C408D894FF6FF7606EA48
:101EE00085152C4384808283CD88A0F840500384DC
:101EF00070BD0000002C0140003401400A46002162
:101F0000818B4FF2FF7319404FF6FF7303EA0223F0
:101F10001943818370470000002202881D4B9842BC
:101F20000ED01D4B98420BD0B0F1804F08D01B4B08
:101F3000984205D01A4B984202D01A4B984204D1CD
:101F40004FF68F731A404B881A43174B984207D0AD
:101F5000164B984204D04FF6FF431A40CB881A43E1
:101F600002808B8883850B8803850A4B98420BD0AF
:101F7000094B984208D00E4B984205D00D4B984221
:101F800002D00D4B984201D10B7A03860123838244
:101F900070470000002C0140003401400004004064
:101FA00000080040000C00400010004000140040F9
:101FB0000040014000440140004801401FB501219C
:101FC0000820FFF723FC4720ADF8040040F6C310BB
:101FD000ADF808000020ADF80600ADF80A0001A930
:101FE0000D48FFF799FF012211460B48FFF72EFE1F
:101FF00032208DF8000001208DF8010000208DF8BE
:10200000020001208DF803006846FFF7BBFB0121A9
:102010000148FFF7FEFD1FBD000C004010B540F267
:1020200025511D4800F04AF810B31B4800F002F992
:10203000C4B21A48008800F40040C8B917480088A4
:1020400000F4804060B10A2C03D0002013490880BE
:1020500020E01248008840F400401049088019E050
:102060000D2C06D10D48008840F480400B490880B3
:1020700010E00A480088C0F30D0009490C540748D5
:102080000088401C0549088008460088C72801DDF3
:102090000020088010BD000000380140C40000206E
:1020A0009A04002021B1828942F40052828104E026
:1020B00082894DF6FF731A408281704770B50246DF
:1020C000002400230025002040F66A16B14200D10A
:1020D00000BFC1F3421501F01F03012606FA03F306
:1020E000012D02D19689334006E0022D02D1168AD5
:1020F000334001E0968A33400C12012606FA04F4BC
:102100001688344013B10CB1012000E0002070BDEE
:10211000F0B50346002400260025002040F66A178B
:10212000B94200D100BF1846C1F3421401F01F06A6
:10213000012707FA06F5012C01D10C3004E0022C2E
:1021400001D1103000E014301AB107682F43076046
:1021500002E00768AF430760F0BD00002DE9F047DB
:1021600086B005460E460024A24600BFA1460027C1
:10217000B08900B100BF2F462C8A4CF6FF70044096
:10218000F08804432C82AC894EF6F3100440B088EA
:1021900031890843718908430443AC81AC8A4FF606
:1021A000FF400440B0890443AC8201A8FFF74EFB16
:1021B0001F48874202D1DDF810A001E0DDF80CA035
:1021C000A88900F4004040B10AEBCA0000EB0A10F5
:1021D00031684900B0FBF1F807E00AEBCA0000EBF8
:1021E0000A1031688900B0FBF1F86420B8FBF0F008
:1021F00004012009642101FB1089A88900F4004032
:1022000040B1322000EBC900B0FBF1F000F0070054
:10221000044308E0322000EB09106421B0FBF1F028
:1022200000F00F0004432C8106B0BDE8F0870000E9
:102230000038014001468888C0F30800704700BF9D
:10224000FEE700000FB4054B10B503A9044A02983D
:1022500000F09AF810BC5DF814FB00007D41000806
:10226000C0000020490050EAC12018BF04204A0DD8
:1022700018BF40F0010040F2FF72B2EB515F08BF9F
:1022800040F00200012808BF052070472DE9F04109
:102290004F1E00EBC7010446D1E9000115461E465A
:1022A00037F006020DD02A463346FEF72EF97F1E80
:1022B00004EBC703D3E90023FEF780F837F00602EA
:1022C000F1D1022F25D0042F13D0062F18BFBDE85F
:1022D000F0812A463346FEF718F9D4E90A23FEF7BF
:1022E0006DF82A463346FEF710F9D4E90823FEF7C5
:1022F00065F82A463346FEF708F9D4E90623FEF7C7
:102300005DF82A463346FEF700F9D4E90423FEF7C8
:1023100055F82A463346FEF7F8F8D4E90223FEF7CB
:102320004DF82A463346FEF7F0F8D4E90023BDE81D
:10233000F041FEF743B80122FEF784BBFEF73EB83A
:102340000022134610461146FEF751B9024A0020FA
:102350001107FEF777BB000001FDFFFF02E008C890
:10236000121F08C1002AFAD170477047002001E00F
:1023700001C1121F002AFBD170470000014908600B
:1023800070470000DC0000202DE9FF4F8DB00F46A4
:102390000546002606E025280BD0DDE90F12904700
:1023A0006D1C761C28780028F5D111B03046BDE8A8
:1023B000F08F0024A246A1460122EC4900E004432C
:1023C00015F8013F203B02FA03F00842F7D12878C4
:1023D0002A2810D06FF02F022878A0F130010929A7
:1023E00014D80AEB8A0102EB410144F0020400EB2D
:1023F000010A6D1CF0E701CF5FEA000A03D544F43F
:102400000054CAF1000A44F002046D1C28782E28FA
:1024100017D115F8010F44F004042A280ED06FF0EC
:102420002F022878A0F1300109290AD809EB890187
:1024300002EB410100EB01096D1CF2E757F8049B28
:102440006D1C28786C280FD006DC4C2817D0682823
:102450000DD06A2814D104E0742810D07A280FD146
:102460000DE044F400140AE044F4801401E044F464
:1024700040146978814202D104F580146D1C6D1CF2
:102480002A786E2A1FD00CDC632A31D004DC002AA3
:102490008BD0582A11D1A3E0642A68D0692A0CD1C4
:1024A00065E0732A2ED004DC6F2A73D0702A04D121
:1024B0009BE0752A6FD0782A6ED01046DDE90F12A6
:1024C0009047761C50E1C4F30250022806D003283E
:1024D00009D0042801CF09D0066045E101CFF117EA
:1024E000C0E9006140E101CF06803DE106703BE1BB
:1024F00017F8040B8DF8000000208DF80100EB4662
:10250000012003E057F804BB4FF0FF3061074FF0A4
:10251000000102D40DE008F10101884649450FDAB7
:102520008045F8DB1BF808100029F4D108E008F119
:10253000010188468142FADB1BF808100029F6D118
:10254000DDE90F23AAEB08008146214600F036F9A9
:10255000304400EB080604E0DDE90F121BF8010B24
:102560009047B8F10108F7D221464846F7E00A2122
:10257000C4F302534FF0000B0891022B04D001CF9B
:10258000C117032B09D00AE0FF1D27F00707F7E862
:10259000020108E032E01FE020E000B2C117042B86
:1025A00001D140B2C117031E71F1000307DA4FF0E9
:1025B000000CD0EB0C006CEB01012D2302E0230595
:1025C00004D52B238DF82430012303E0E30701D049
:1025D0002023F7E7984658E00A2110E010210EE08A
:1025E00010204FF0000B08900CE010214FF0000B72
:1025F00044F004044FF00809089103E008214FF06B
:10260000000B0891C4F30253022B04D001CF002128
:10261000032B06D006E0FF1D27F00707F7E80201AD
:1026200003E080B2042B00D1C0B24FF000082307B2
:102630002BD5702A07D0DDF820C08CF0100C5CEA96
:102640000B0C05D00EE040238DF82430012308E068
:1026500050EA010306D030238DF824308DF8252070
:1026600002239846DDF820C08CF0080C5CEA0B0CC5
:102670000BD150EA010301D1630706D530238DF851
:1026800024304FF00108A9F10109582A04D038A2DA
:102690000B9208AA0A920BE03AA2F9E75B46089A65
:1026A000FEF7DAF80B9B9B5C0A9A521E0A92137093
:1026B00050EA0102F2D10A98ADEB000000F1200BC4
:1026C000600702D524F4803401E04FF00109D945B8
:1026D00002DDA9EB0B0000E0002000EB0B01414400
:1026E0000890AAEB010AE00306D4DDE90F23214696
:1026F000504600F063F806444FF0000908E009A9CD
:1027000011F80900DDE90F12904709F10109761C63
:10271000C145F4DBE0030CD5DDE90F23214650462B
:1027200000F04CF8064404E0DDE90F123020904739
:10273000761C0899481E08900029F5DC08E00A98E4
:102740000A990078491C0A91DDE90F129047761C1E
:10275000BBF10001ABF1010BF1DC21465046DDE994
:102760000F2300F019F806446D1C1BE60928010030
:1027700030313233343536373839616263646566F7
:1027800000000000303132333435363738394142B9
:1027900043444546000000002DE9F0410446002571
:1027A0001E461746880404D405E039462020B04769
:1027B0006D1C641EF9D52846BDE8F0812DE9F04175
:1027C000044600251E469046C80301D5302700E088
:1027D0002027880404D505E041463846B0476D1CE3
:1027E000641EF9D52846BDE8F08100002DE9FE4FB2
:1027F00006460F460025684601F0CEFC002442E064
:1028000056F8240057F82410A0EB010ABAF1000F83
:1028100001DB514601E0CAF100010846FDF756FF11
:1028200083464FF08F41FDF78BFD80465DF8240015
:102830000021FDF7FDFF16D05DF824104046FDF79E
:102840007FFD82464FF07E51FDF742FD814629F023
:10285000004A0F48416A5046FDF7F4FF12D20120AA
:10286000A04005430EE00A48C1694046FDF7E0FF7D
:1028700005D30748016A4046FDF7E4FF02D2012074
:10288000A0400543641C032CBADB2846BDE8FE8F3C
:102890008C6600082DE9F04D8D4F21F0004A86B07E
:1028A00005460C46BA452ADBAAEB070028430AD0A6
:1028B0008848824501DC1AD1CDB106B02846BDE872
:1028C000F04DFFF738BD844A844B2846FDF71DFEC6
:1028D00007460E46824A834B28462146FDF715FEE1
:1028E00006B03A463346BDE8F04DFDF767BD01201E
:1028F000FFF744FD06B0BDE8F04DFFF721BD7A4873
:10290000824542DABAF1795F0BDA2846FFF7AAFC72
:10291000042808BFFFF71AFD284606B02146BDE887
:10292000F08D2A460B461046FDF7EFFD8346024622
:102930006E480E460B4606217844FFF7A7FC5A4620
:102940003346FDF7E2FD804669488A465A463346DB
:1029500004217844FFF79AFC5A463346FDF7D5FD2B
:1029600000223B46FDF72AFD02460B4640465146F3
:10297000FDF73DFE2A462346FDF7C7FD06B02A4671
:102980002346BDE8F04DFDF719BD284624F000416F
:1029900000223D463B46FDF7B5FD4FF0FF32FEF706
:1029A00051F80646024653480F460B460621784426
:1029B000FFF76CFC32463B46FDF7A7FDCDE9000171
:1029C0004D4832463B4604217844FFF75FFC3246CF
:1029D0003B46FDF79AFD00222B46FDF7EFFC8346B0
:1029E00002913046394603F09FFB804643480D462E
:1029F000504517DCDDE900015A46029BFDF7F7FD63
:102A000042462B46FDF781FD42462B46FDF7D6FC9C
:102A10000122FEF717F8304A304BFDF770FD304ABF
:102A2000304B4CE04FF0000A52460B464046FDF753
:102A3000C5FCCDE9031052462B4610461946FDF75A
:102A400064FD32463B46FDF75DFDDDE90332FDF7EF
:102A5000CEFD06460F46DDE900015A46029BFDF712
:102A6000C6FD83460091012230463946FDF7EAFF54
:102A7000194A1A4BFDF746FD06460F46012240460D
:102A80002946FDF7DFFF5A46009BFDF73EFD324623
:102A90003B46FDF734FD06460F46012250462946C7
:102AA000FDF7D0FF0E4DDFF858802A464346FDF76C
:102AB00029FD32463B46FDF725FD2A464346FDF7F4
:102AC00021FD002CD8BF81F0004106B0BDE8F08D9B
:102AD0000000F03F0000F07F075C143326A6913C15
:102AE000182D4454FB21F93F0000E03F74490000D9
:102AF0008A490000FE480000144900003333EF3FCC
:102B0000FB21E93F2DE9F84F04460D4621F0004036
:102B100000917349814211DC7249884201DC06D17F
:102B20002CB120462946BDE8F84FFFF704BC6E489B
:102B3000002DCCBF6D496E49BDE8F88F6D498142CB
:102B400011DD6D498142D8BF4FF0FF366DDD204663
:102B50002946FFF787FB042808BFFFF7F7FB20464D
:102B60002946BDE8F88F6549654F25F0004581424B
:102B700033DD6449814219DD002632464FF080433F
:102B800020462946FDF71AFC80468A460122204647
:102B90002946FDF757FF00223B46FDF7B0FC4246B1
:102BA0005346FDF724FD04460D463EE00126002273
:102BB000BA463B4620462946FDF700FC80460F46B4
:102BC0000022534620462946FDF799FC42463B46E3
:102BD000FDF70DFD04460D4627E04B4981421BDD04
:102BE000DFF828A102260022534620462946FDF799
:102BF0008CFC00223B46FDF7E1FB80460F4600229D
:102C0000534620462946FDF77AFC42463B46FDF7EF
:102C1000EEFC04460D4608E0032622462B46002023
:102C20003B49FDF7E4FC04460D4622462B46104680
:102C30001946FDF76AFC8B46824602460B46FDF7B5
:102C400064FC07460246334888460B460621784412
:102C5000FFF71CFB52465B46FDF757FC82462E48A9
:102C60008B463A46434605217844FFF70FFB3A4628
:102C70004346FDF74AFC02460B46002E5046594695
:102C80000CDAFDF79BFB22462B46FDF73EFC01B01C
:102C900022462B46BDE8F04FFDF734BCFDF78EFB16
:102CA00022462B46FDF731FC1C4A7A4402EBC60350
:102CB000D3E90023FDF723FC22462B46FDF71FFC3A
:102CC000174A7A4402EBC603D3E90023FDF71AFC46
:102CD000009A002AB8BF81F00041BDE8F88F0000DB
:102CE000000010440000F07F182D4454FB21F93FF0
:102CF000FB21F9BF0000DC3F0000203E0000F33F55
:102D00000000F03F0000E63F008003400000F83F75
:102D10000000F0BF16470000D446000072460000D5
:102D20003A4600002DE9F04D9446CCF1000423F022
:102D300000464CEA0404524F46EAD4749A46884648
:102D400021F00042BC4206D8454240EA050442EA6E
:102D5000D474BC4204D9BDE8F04D6246FFF7EEBA28
:102D6000AAF14055A5F17F6555EA0C040BD0022469
:102D700004EAAA74434DDFF810E144EAD87452EA39
:102D8000000B04D00CE0BDE8F04DFFF7BBBE002CFB
:102D900014BF012CBDE8F08D022C30D0032C32D0B2
:102DA00056EA0C0B0AD0BE4220D1BA4209D126F015
:102DB000804622F080423346114617E000291ADB94
:102DC00025E0DFF8C8B0FB44002C04BFDBE90001BC
:102DD000BDE8F08D012C02BFDBE9000181F000416C
:102DE000BDE8F08D022C0AD0032C0CD0BA4212D1CF
:102DF000B8F1000F0BDA23482549BDE8F08D2846CD
:102E00002449BDE8F08D28467146BDE8F08D1D4887
:102E10002149BDE8F08D921B12153C2AC4BF194808
:102E20001D490EDCBAF1000FBEBF12F13C0F0020AD
:102E3000014606DB6246FDF7DAFB21F00041FFF7B1
:102E400061FE002C08BFBDE8F08D012C04BF81F0AD
:102E50000041BDE8F08D114A114B022C07D0FDF75F
:102E60004EFB2A46BDE8F04D0A4BFDF748BBFDF787
:102E700046FB2A46BDE8F04D064BFDF743BB00007C
:102E80000000F07F182D4454FB2109C0CE450000FE
:102E9000FB21F9BFFB210940FB21F93F075C1433FB
:102EA00026A6A13C2DE9F04104460D461646E768EA
:102EB000256031462068FDF70BFA60606168606943
:102EC000FDF70CFA2062A16B6068FDF707FA8046F7
:102ED0003946FDF7ABF907463846D4E90C12FDF741
:102EE0002EFEE060E168A069FDF7F8F96062D4E9C0
:102EF0000101FDF7EDF98046A16BFDF721FA206194
:102F00002169E069FDF7EAF9A062D4E90801FDF75B
:102F10008DF98046A16AFDF789F9E0626068A060DA
:102F2000BDE8F0810FB470B5144C2546BDF9101002
:102F3000A1F2DC50FDF7CAFB06462146FDF7CEF9AB
:102F40000F490860BDF91210A1F2DC50FDF7BEFB7D
:102F500006462146FDF7C2F909494860BDF9161039
:102F6000A1F2DC50FDF7B2FB06462146FDF7B6F9AB
:102F70000349886070BC5DF814FB0000C3F5A83EEF
:102F80009401002070B5154C154D1649B1F900108B
:102F9000A1F2DC50FDF79AFB06462146FDF7D0F979
:102FA000114908600F49B1F90210A1F2DC50FDF798
:102FB0008DFB06462146FDF7C3F90B4948600949D8
:102FC000B1F9061040F2DC52501AFDF77FFB0646BD
:102FD0002946FDF783F90549886070BD00007041FE
:102FE000C3F5A83E60040020D8020020CC020020D7
:102FF0000FB42DE9F0410B9CBDF91C00B0F57A7FB0
:1030000003DCBDF81C0020801BE0BDF91C00B0F5FE
:10301000E16F03DB4FF4E160208012E0BDF91C108A
:10302000A1F57A70FDF752FB07460849FDF756F9FE
:1030300006460749FDF7FAF80546FDF766FB00B2BC
:103040002080BDE8F0015DF814FB0000C3F5283FC7
:1030500000007A440FB42DE9F0410B9CBDF91C002F
:10306000B0F57A7F03DCBDF81C0020801BE0BDF9C1
:103070001C00B0F5E16F03DB4FF4E160208012E04B
:10308000BDF91C10A1F57A70FDF720FB0746084931
:10309000FDF724F906460749FDF7C8F80546FDF790
:1030A00034FB00B22080BDE8F0015DF814FB0000A5
:1030B000C3F5283F00007A442DE9F04F8DB0074654
:1030C0000C4615461E46DDF8588000200B900A90ED
:1030D0000990089000F098F90C900C9840B10020ED
:1030E000A8F800003080288020800DB0BDE8F08F67
:1030F000012F02D0022F5BD134E05A48006914221C
:103100005849009003A8FDF760F803A80FC8FFF71F
:1031100039FF0BA8019053480069142251490090CF
:1031200003A8FDF752F803A80FC8FFF793FF08A9FB
:1031300009AA0AAB4C488068CDE90232049101909B
:1031400049480068DFF820C10090DCF80430DFF85F
:103150001CC1DCF80820DCF80410DCF8000000F0EA
:10316000DFF826E03F48006914223E49009003A89A
:10317000FDF72BF803A80FC8FFF7D4FE0BA80190AA
:103180003848006914223749009003A8FDF71DF85C
:1031900003A80FC8FFF72CFF08A809A9334BCDE9F6
:1031A00000109A68596818680AAB00F061F800E0EE
:1031B00000BF00BFBDF92C00FDF788FA0790099900
:1031C000FDF786F883460A99FDF782F8824608994A
:1031D000FDF72CF88146FDF798FA00B22080BDF982
:1031E0002C00FDF773FA07900999FDF71FF8834645
:1031F0000A99FDF71BF882460899FDF717F88146F2
:10320000FDF783FA00B22880BDF92C00FDF75EFAC5
:1032100007900999FDF75CF883460A99FDF706F8CF
:1032200082460899FDF754F88146FDF76EFA00B220
:103230003080BDF92C00FDF749FA07900999FCF799
:10324000F5FF83460A99FDF743F882460899FDF792
:103250003FF88146FDF759FA00B2A8F8000000BF18
:1032600043E7000060040020D80300202C04002065
:103270002DE9F04F85B004460D4616461F46DDE9A0
:103280000E891E48224641681D48FFF70BFE1B4869
:103290002A4601681B48FFF705FE18483246816838
:1032A0001948FFF7FFFD1648C06A38601548C06A24
:1032B000C8F800001448C06AC9F800003046FDF79D
:1032C00024FA82463046FDF720FA83463046FDF761
:1032D0001CFA04903046FDF718FA03903046FDF7CB
:1032E00014FACDE900BA0290014608A0DDE90323F3
:1032F000FEF7A8FF05B0BDE8F08F000094010020A4
:10330000E00000201C010020580100207B422564C1
:103310003A25643A25643A25643A25647D24000000
:103320002DE9F04F87B004460D4616461F46DDE9ED
:10333000129ADDF8408028483A4641682748FFF74E
:10334000B1FD2548424601682548FFF7ABFD2348FB
:10335000C06A244948602248C06A0860084622467C
:1033600041682148FFF79EFD1E482A4601681F4814
:10337000FFF798FD1B48324681681D48FFF792FD14
:103380001948C06AC9F800001848C06ACAF80000A5
:103390001748C16A149801603046FDF7B6F90690E7
:1033A0003046FDF7B2F983463046FDF7AEF9059099
:1033B0003046FDF7AAF904903046FDF7A6F90390D0
:1033C0000698CDE900B00BA003A90EC9FEF73AFF9D
:1033D00007B0BDE8F08F0000D802002054020020A2
:1033E00090020020CC020020A0010020DC0100207F
:1033F000180200207B4225643A25643A25643A2568
:10340000643A25647D2400001648B0F90C0040F2AF
:10341000DC51884203DB012013490870704700200B
:10342000114908700F48B0F90C0040F2DC51884295
:1034300009DA0C48B0F90A00884204DA00200B4986
:1034400008700120EAE70748B0F90A0040F2DC51B1
:10345000884204DB0120054908700020DEE70120D6
:10346000DCE70000600400208000002081000020D4
:103470002DE9F0410446E07800F0C006E07800F065
:103480003F05607800F0010098B1EF102846E91779
:1034900005EB5171C910A5EBC101491C01F0FF08F2
:1034A0000B48006820B10A484146026838469047F8
:1034B00000BF607800F0080030B10548406818B1DE
:1034C000B011034A516888470020BDE8F081000030
:1034D0005004002010B56FF00400FEF70BFB0A4803
:1034E00000680A49B0FBF1F0094908700846007805
:1034F00000EB4001C1EBC0104FF6FF7101EAC000C4
:103500000449088010BD00000400002000127A0069
:10351000BC000020BE0000200146114A12884A4328
:103520004FF0E0235A6100229A611A46126942F074
:1035300001021A6100BF4FF0E022106900F00102A1
:103540001AB100F48032002AF5D04FF0E02212695F
:1035500022F001024FF0E0231A6100229A617047C5
:10356000BE0000200146114A12784A434FF0E02382
:103570005A6100229A611A46126942F001021A61E8
:1035800000BF4FF0E022106900F001021AB100F410
:103590008032002AF5D04FF0E022126922F00102B9
:1035A0004FF0E0231A6100229A617047BC000020AE
:1035B000704738B5044664B120208DF800002820FB
:1035C0008DF8010030208DF8020038208DF80300BE
:1035D00004E0A32204216846FCF709FE6A460421A0
:1035E00040F69E2002F06EFB01F058FF38BD00004F
:1035F0003EB5044602208DF80000CA208DF8010077
:10360000E3208DF8020009208DF803006A460421AA
:10361000682002F057FBA3208DF8000004F0400062
:1036200048B1C0208DF80100C8208DF80200C220EA
:103630008DF8030006E0A3208DF801008DF802004C
:103640008DF8030004F4C07048B1C4208DF8040064
:10365000CC208DF80500C6208DF8060006E0A320DA
:103660008DF804008DF805008DF80600A3208DF874
:1036700007008DF808008DF809006A460A2140F617
:10368000A72002F01FFB04F0030018B120208DF8E2
:10369000000002E0D8208DF800006A46012140F6C3
:1036A000B62002F00FFB04F0200018B1012000F05A
:1036B000ADF802E0002000F0A9F804F4C07008B3EF
:1036C00004F4807060B1B2208DF800008B208DF87A
:1036D0000100B6208DF802009B208DF803000BE05E
:1036E000B0208DF8000080208DF80100B4208DF806
:1036F000020090208DF803006A46042140F6A220C3
:1037000002F0E0FA04F0010020B3F8208DF8000088
:103710006A4601214FF40B6002F0D4FAFA21072027
:1037200000F02CFC072000F0F3FB012000F013FC5C
:10373000642000F0F3FC4FF4FA7000F002FDC821A1
:10374000304800F0A3FB282000F0BCFB0A2000F06A
:10375000CCFB08E0D8208DF800006A4601214FF428
:103760000B6002F0AFFA04F0020018B1D9208DF816
:10377000000002E0D8208DF800006A46012140F2E6
:103780003D7002F09FFA04F0040018B1012000F02F
:1037900069F802E0002000F065F804F0100018B1AC
:1037A0000120FFF706FF02E00020FFF702FF44F0D0
:1037B00008001549488101F071FE00201249887304
:1037C00004F0400018B10846807B801D887304F423
:1037D000C07020B10C48807B801D0B49887304F0B9
:1037E000140020B10848807B10300749887304F02A
:1037F000030020B10448807B001D0349887300202A
:103800003EBD000009E3CA02500400203EB5044654
:103810006CB10EA1D1E900208968CDE900200291A8
:103820006A4609214FF4976002F04CFA3EBD0AA2A5
:10383000D2E900109268CDE9010200916A4609219F
:103840004FF4976002F03EFAF0E70000B8AAB38D9B
:10385000B4980D355D000000B8AAAAAAB088C3C507
:10386000C700000038B5044664B1C0208DF80000E0
:10387000C2208DF80100C4208DF80200C6208DF80A
:10388000030004E08B2204216846FCF7B0FC6A4682
:10389000042140F6982002F015FA01F0FFFD38BD32
:1038A00010B5C8234FF48062024940F6F63001F0AB
:1038B00089FC10BDB46600082DE9F04F8DB00746B5
:1038C000884615469946DDE9166B002400203080B5
:1038D0006B49887B5A4605A901F040FD18B1601E6E
:1038E0000DB0BDE8F08F6648807A00F01400002823
:1038F00067D09DF8140000069DF8151040EA0140BD
:103900009DF8161040EA01209DF817100843286022
:103910009DF8180000069DF8191040EA01409DF836
:103920001A1040EA01209DF81B10084368609DF8BA
:103930001C0000069DF81D1040EA01409DF81E1075
:1039400040EA01209DF81F100843A8609DF8200060
:1039500000069DF8211040EA01409DF8221040EA3F
:1039600001209DF823100843E86004F11000C4B260
:10397000286800140190686800140290A868001478
:103980000390E8680014049001984043029901FBF9
:103990000100039901FB0100049901FB010ABAF13E
:1039A000706F02DBBAF1885F05DD01F077FD002062
:1039B0003080401E94E7B6F9000040F480703080FB
:1039C00000BF2F48807A00F0400020B305A9601C9A
:1039D000085C095D40EA012000B2A8F8000005A9D2
:1039E000E01C095C05AAA01C105C41EA002000B2A2
:1039F000A8F8020005A9601D095C201D105C41EAC1
:103A0000002000B2A8F80400A01DC4B2B6F900005E
:103A100040F0080030801A48408900F4C07008B3B4
:103A200005A9601C085C095D40EA012000B23880ED
:103A300005A9E01C095C05AAA01C105C41EA002055
:103A400000B2788005A9601D095C201D105C41EA68
:103A5000002000B2B880A01DC4B2B6F9000040F04A
:103A6000700030800648807A00F0030018B105A984
:103A70000819FFF7FDFC484601F036F800202FE753
:103A80005004002070B588B0064601A801F0EEF998
:103A9000BDF804000021C90341EA5045C40344486D
:103AA000007A00F0030056F8200005904048007AA4
:103AB00000F0040010B10598404205903C48007A9F
:103AC000C0F3C10056F8200006903948007A00F093
:103AD000200010B10698404206903548007AC0F3A5
:103AE000811056F8200007903148008900F480705A
:103AF00010B10798404207900598C117A0FB042316
:103B000001FB043100FB0510810041EA9270059031
:103B10000698C117A0FB042301FB043100FB05102C
:103B2000810041EA927006900798C117A0FB042318
:103B300001FB043100FB0510810041EA92700790FF
:103B40000598000E8DF808000598000C8DF8090006
:103B50000598000A8DF80A000598C0B28DF80B0090
:103B60000698000E8DF80C000698000C8DF80D00DC
:103B70000698000A8DF80E000698C0B28DF80F0066
:103B80000798000E8DF810000798000C8DF81100B2
:103B90000798000A8DF812000798C0B28DF813003C
:103BA00002AA0C214FF4257002F08CF808B070BD09
:103BB0005004002030B585B0044616A207CA02ABF7
:103BC00007C3C82C03DD4FF0FF3005B030BDC8205F
:103BD00090FBF4F0401E85B2280A8DF80000E8B290
:103BE0008DF801006A46022140F2162002F06AF8C0
:103BF00010B14FF0FF30E8E702AA0C2140F6C120D7
:103C000002F060F810B14FF0FF30DEE70448848125
:103C10000020DAE7FEF2ABC4AAF1DFDFBBAFDFDFE3
:103C2000500400201FB504464848007A00F0030005
:103C300054F8200001904548007A00F0040010B1CB
:103C40000198404201904148007AC0F3C10054F805
:103C5000200002903D48007A00F0200010B1029848
:103C6000404202903948007AC0F3811054F8200095
:103C700003903648008900F4807010B103984042E8
:103C800003903349019880FB0101800F40EA8100D5
:103C900001902F49029880FB0110820042EA917046
:103CA00002902B49039880FB0110820042EA917038
:103CB00003900198000E8DF800000198000C8DF81B
:103CC00001000198000A8DF802000198C0B28DF839
:103CD00003006A4604214FF4747001F0F3FF18B139
:103CE0004FF0FF3004B010BD0298000E8DF80000B8
:103CF0000298000C8DF801000298000A8DF802006D
:103D00000298C0B28DF803006A4604214FF4757022
:103D100001F0D8FF10B14FF0FF30E3E70398000E39
:103D20008DF800000398000C8DF801000398000A3C
:103D30008DF802000398C0B28DF803006A46042192
:103D40004FF4767001F0BEFFCCE700005004002075
:103D500009E3CA0210B586B0044647A00068039084
:103D600046A00068029046A00068019045A0006847
:103D7000009004F0030003A9085C8DF8140003A868
:103D8000C4F3C101405C8DF8150003A8C4F3811190
:103D9000405C8DF8160004F0030002A9085C8DF861
:103DA000100002A8C4F3C101405C8DF8110002A804
:103DB000C4F38111405C8DF8120005AA032140F282
:103DC000264001F07FFF18B14FF0FF3006B010BD64
:103DD00004AA032140F22A4001F074FF10B14FF011
:103DE000FF30F3E7019805900098049004F0040078
:103DF00058B19DF8140040F001008DF814009DF8B2
:103E0000100040F001008DF8100004F0200058B1BF
:103E10009DF8150040F001008DF815009DF8110087
:103E200040F001008DF8110004F4807058B19DF845
:103E3000160040F001008DF816009DF8120040F0C9
:103E400001008DF8120005AA03214FF4886001F0EB
:103E500039FF10B14FF0FF30B8E704AA032140F258
:103E6000314001F02FFF10B14FF0FF30AEE70648B0
:103E700004810020AAE700004CCD6C000CC92C0086
:103E8000365676002646660050040020F8B50546F2
:103E90000E464FF47A7095FBF0F000FB06F4200E0E
:103EA0008DF80000200C8DF80100200A8DF802002A
:103EB000E0B28DF803006A4604214FF4AE7001F0C1
:103EC00001FFF8BD38B50446052094FBF0F084B23C
:103ED00020128DF80000E0B28DF801006A46022140
:103EE0004FF4AD7001F0EEFE38BD38B50446052044
:103EF00094FBF0F084B220128DF80000E0B28DF84F
:103F000001006A4602214FF4AC7001F0DBFE38BDBF
:103F100038B504460020009004F0010020B19DF85F
:103F2000000040F03000009004F0020020B19DF845
:103F3000000040F00C00009004F0040020B19DF857
:103F4000000040F0030000906A4601214FF4A47085
:103F500001F0B8FE38BD38B50446012C01DA012461
:103F600002E0042C00DD0424601EC0B200906A460A
:103F7000012140F24F1001F0A5FE38BD2DE9FC47AC
:103F800006460F4606F0070010B1B7F5C86F03DD0F
:103F90004FF0FF30BDE8FC873846FCF7A0FB8146B8
:103FA0005949FCF7CDF98046684600F039FF9DF885
:103FB0000000022806D0042816D0082826D0102891
:103FC00048D135E04FF08D414046FCF787F98146F6
:103FD000FCF7B4FB84B24D494046FCF77FF98146BB
:103FE000FCF7ACFB85B238E04FF08C414046FCF763
:103FF00075F98146FCF7A2FB84B245494046FCF7BF
:104000006DF98146FCF79AFB85B226E04FF08B41B3
:104010004046FCF763F98146FCF790FB84B23D49CA
:104020004046FCF75BF98146FCF788FB85B214E05B
:104030004FF08A414046FCF751F98146FCF77EFB80
:1040400084B235494046FCF749F98146FCF776FBD6
:1040500085B202E04FF0FF309CE700BF20128DF8E0
:104060000400E0B28DF8050028128DF80600E8B2D1
:104070008DF8070006F00100A0B101AA02214FF45B
:10408000EA7001F01FFE10B14FF0FF3082E70DF132
:10409000060202214FF4927001F014FE10B14FF0AD
:1040A000FF3077E706F00200A0B101AA02214FF429
:1040B000EC7001F007FE10B14FF0FF306AE70DF130
:1040C000060202214FF4947001F0FCFD10B14FF094
:1040D000FF305FE706F00400A0B101AA02214FF40F
:1040E000EE7001F0EFFD10B14FF0FF3052E70DF12F
:1040F000060202214FF4967001F0E4FD10B14FF07A
:10410000FF3047E7002045E70000484300004046F5
:104110000000C045000040450000C04438B50446DA
:10412000052094FBF0F085B228128DF80000E8B26B
:104130008DF801006A4602214FF4EF7001F0C2FDD4
:1041400038BD38B50446052094FBF0F085B228123E
:104150008DF80000E8B28DF801006A4602214FF4A4
:10416000ED7001F0AFFD38BD034908684968024AA7
:1041700011601146486070472C04002000BF054ABA
:10418000128802F04002002AF9D0C2B2014B1B1D76
:104190001A807047003801407CB5054628494968B7
:1041A000087801AB04220D21FDF713FA08B10720AE
:1041B0007CBD9DF80700C0F301109DF8041001F0CC
:1041C000E00140EAE1008DF800009DF80700C0F32F
:1041D00081009DF8051001F0E00140EAE1008DF852
:1041E00001009DF8070000F003009DF8061001F0A3
:1041F000E00140EAE1008DF8020000241CE01DF817
:10420000040018B9002045F8240013E00D4845F8D3
:10421000240006E055F824000B49FCF75FF845F848
:1042200024001DF80400401EC0B20DF80400002850
:10423000F0D100BF601CC4B2032CE0DB0020B7E764
:10424000840000207B14AE3E1D5A843F2DE9F04FC0
:1042500087B005460C46914601208DF810000020DD
:104260008DF81100FE4A1268917CFD4A5268107860
:1042700004AB0222FDF753FA20B14FF0FF3007B034
:10428000BDE8F08FC820FFF747F900208DF8100037
:10429000F34A1268D17BF24A5268107804AB0122CB
:1042A000FDF73DFA10B14FF0FF30E8E7EC4A126835
:1042B0005179EB4A5268107804AB0122FDF72FFACE
:1042C00010B14FF0FF30DAE7E54A1268917CE44A1A
:1042D0005268107804AB0122FDF721FA10B14FF0BB
:1042E000FF30CCE7DE4A1268D17DDD4A5268107893
:1042F00004AB0122FDF713FA10B14FF0FF30BEE717
:10430000D74A12681179D64A5268107804AB012254
:10431000FDF705FA10B14FF0FF30B0E70C208DF833
:104320001000CF4A12681179CD4A5268107804AB58
:104330000122FDF7F4F910B14FF0FF309FE70F2095
:10434000FFF7EAF8C648806A407A8DF81000C44A40
:1043500012689178C24A5268107804AB0122FDF7C6
:10436000DEF910B14FF0FF3089E7BD48806A007A6E
:104370008DF81000BA4A12685178B94A526810781C
:1043800004AB0122FDF7CBF910B14FF0FF3076E717
:10439000B9F1000F07D0B248806A807A40F0E0009F
:1043A0008DF8100004E0AE48806A807A8DF8100025
:1043B000AB4A12689179AA4A5268107804AB01227C
:1043C000FDF7ADF910B14FF0FF3058E7B9F1000F2C
:1043D00007D0A348806AC07A40F0E0008DF8100052
:1043E00003E0A048C07A8DF810009D4A1268D17988
:1043F0009B4A5268107804AB0122FDF790F910B186
:104400004FF0FF303BE7B9F1000F02D0C820FFF7B3
:1044100083F840208DF81000914A12681179904A73
:104420005268107804AB0122FDF779F910B14FF012
:10443000FF3024E778208DF81000894A12685179FE
:10444000874A5268107804AB0122FDF768F910B171
:104450004FF0FF3013E783498889FFF75DF80020AC
:104460008DF810007E4A126851797D4A52681078A2
:1044700004AB0122FDF753F910B14FF0FF30FEE617
:10448000774A1268917A764A5268107804AB022211
:10449000FDF79FF810B14FF0FF30F0E69DF81100E6
:1044A0009DF8101040EA012B0C209BFBF0F0C6B2E7
:1044B0000020A86068602860A0606060206082467C
:1044C00065E0674A1268D17A654A5268107804AB91
:1044D0000C22FDF77EF810B14FF0FF30CFE69DF8CB
:1044E00011009DF8101040EA012000B2ADF808005C
:1044F0009DF813009DF8121040EA012000B2ADF8BB
:104500000A009DF815009DF8141040EA012000B241
:10451000ADF80C00BDF90810206808442060BDF912
:104520000A10606808446060BDF90C10A068084477
:10453000A0609DF817009DF8161040EA012000B217
:10454000ADF800009DF819009DF8181040EA012010
:1045500000B2ADF802009DF81B009DF81A1040EA69
:10456000012000B2ADF80400BDF90010286808442D
:104570002860BDF90210686808446860BDF904103D
:10458000A8680844A8600AF1010000F0FF0AB245DB
:1045900097DB3448D0F800C02868C117090441EA05
:1045A00010410704624600233846FBF7DDFD324622
:1045B0000023CDE90201FBF7D7FD28602948D0F898
:1045C00000C06868C117090441EA10410704624647
:1045D00000233846FBF7C8FD32460023CDE902012F
:1045E000FBF7C2FD68601F48D0F800C0A868C1177B
:1045F000090441EA10410704624600233846FBF7EC
:10460000B3FD32460023CDE90201FBF7ADFDA86002
:104610001448D0F804C02168C817000440EA1148C3
:104620000F046246002338464146FBF79DFD3246A3
:104630000023CDE90201FBF797FD20600948D0F87F
:1046400004C06068C117090441EA104107046246CA
:1046500000233846FBF788FD3246002304E00000C3
:10466000840000208C660008CDE90201FBF77CFD88
:1046700060601148D0F804C0A068C117090441EA7D
:1046800010410704624600233846FBF76DFD3246B1
:104690000023CDE90201FBF767FDA060A0680028B8
:1046A00004DDA068A0F58030A06003E0A06800F5FC
:1046B0008030A0600020E2E58C6600082DE9FC5FF8
:1046C00006460F4600253D494968087801AB03229C
:1046D0000D21FCF77EFF10B10720BDE8FC9F9DF87F
:1046E000040000F01F008DF804009DF8050000F0A4
:1046F0001F008DF805009DF8060000F01F008DF8E2
:104700000600002456E056F8240057F82410A0EBC9
:10471000010BBBF1000F01DB594601E0CBF10001B9
:104720000846FBF7D3FF4FF08F410090FBF708FEE0
:10473000814601A8005D68B321490868FBF7CFFFF7
:10474000834659461F48FBF7FBFD804604E01E499F
:104750004046FBF7C3FD804601A8005D401EC0B285
:1047600001A908550028F2D141464846FBF7E8FD6B
:1047700083464FF07E51FBF7ABFD82462AF0004B9B
:104780000F4881695846FCF75DF812D20120A0401D
:1047900005430EE00A4801694846FCF749F805D38D
:1047A000074841694846FCF74DF802D20120A04075
:1047B0000543641C032CA6DB28468EE784000020FA
:1047C0008C66000800B04C4554E3853F10B54FF4AB
:1047D000A060FDF70FF84FF4E13001F0CBFCFEF7DD
:1047E00079FEFCF70DFCFCF74FFCFCF753FDC820ED
:1047F000FEF792FEFCF76EFE02E03220FEF78CFE22
:1048000000F0BEFA0028F8D1BC2001F063F94FF4A3
:10481000C87001F0A1F94FF47A7001F0E1F80420BA
:1048200000F0AEFFC820FEF777FE00F005F8FDF7B8
:1048300077F8FDF7C3FB10BD10B500F003F800F0EA
:104840004BF810BD30B58DB01C4C25461C4A07CA2C
:104850000AAB07C31A4A0C3207CA07AB07C3184A88
:104860001832D2E900109268CDE90502049115488A
:10487000006815492246CDE90021029013480AA993
:104880000EC9FCF7A5FB0F4800680F492246CDE989
:10489000002102900E4807A90EC9FCF799FB0948B0
:1048A000006809492246CDE900210290094804A97F
:1048B0000EC9FCF78DFB01200DB030BD0000484251
:1048C0000466000800660008000048C2E0000020FE
:1048D0001C01002058010020F0B593B0304C254653
:1048E000304E3746304A07CA10AB07C32E4A0C3247
:1048F00007CA0DAB07C32C4A1832D2E900109268E0
:10490000CDE90B020A91284A243207CA07AB07C334
:10491000254A3032D2E900109268CDE905020491AF
:104920002248006822492246CDE900210290214810
:1049300010A90EC9FCF74CFB1C4800681C49224614
:10494000CDE9002102901C480DA90EC9FCF740FBDF
:104950001648006816492246CDE900210290174802
:104960000AA90EC9FCF734FB104800681449324606
:10497000CDE900210290134807A90EC9FCF728FBD6
:104980000A4800680E493246CDE9002102900E48DF
:1049900004A90EC9FCF71CFB012013B0F0BD0000F8
:1049A000000048420000C841286600080066000870
:1049B000000048C2A0010020DC01002018020020F5
:1049C0000000C8C1540200209002002010B5044627
:1049D000204600F00FF80346E01C00F00BF843EA15
:1049E000C00083B2A01D00F005F843EA801083B236
:1049F000184610BD014691F90020002A01DD002073
:104A00001EE091F90020002A01DA042018E091F953
:104A10000120002A01DD012012E091F90120002A85
:104A200001DA05200CE091F90220002A01DD0220C4
:104A300006E091F90220002A01DA062000E00720B2
:104A40007047000010B540210448FCF739FA0128EE
:104A500001D1002010BD0120FCE70000000801404A
:104A600010B540210348FCF72BFA08B9012010BD0E
:104A70000020FCE700080140FFF7A8FE1848FDF7FA
:104A8000E1FB2BE01748007810B1002015490870B1
:104A90001448407820B1FEF78BFD00201149487082
:104AA0001048807810B100200E4988700D48C078F9
:104AB00010B100200B49C8700A48007910B10020DD
:104AC000084908710748407910B10020054948712C
:104AD0000448807910B1002002498871D2E70000B3
:104AE000A0730008700000207047000070B50446F5
:104AF000002624F00104184890F8240008B1002092
:104B000070BD1548807A10B94FF0FF30F8E71248B1
:104B1000057C807A2040104908740846007CA04239
:104B200002D04FF0FF3600E0002614B90A48007D9D
:104B300018B1012001F0B0FA02E0002001F0ACFA57
:104B40003CB100F0ABFC20B1034805744FF0FF30DE
:104B5000D6E73046D4E70000840000202DE9F04F6E
:104B600099B004460D4616464FF07E574FF00008A8
:104B70004FF000094FF0000A12A813A918AB0EAAB3
:104B8000CDE9001014A916A8FEF796FE18B1012071
:104B900019B0BDE8F08FBDF84C0000F4807000281B
:104BA0007ED00E98FBF792FD83464FF09D41FBF7B8
:104BB000C7FB07460F98FBF789FD83464FF09D41E1
:104BC000FBF7BEFB80461098FBF780FD83464FF055
:104BD0009D41FBF7B5FB81461198FBF777FD8346B6
:104BE0004FF09D41FBF7ACFB824639464FF08040C9
:104BF000FBF774FB49460590FBF770FB41460790B5
:104C00004FF04040FBF76AFB51460590FBF766FB0F
:104C100006900799FBF70AFB8346FBF7C2FDCDE937
:104C20000801FDF737FE4FF06632544BCDE90A011B
:104C3000FBF76BFCCDE90C01FBF7DEFD206049467C
:104C40004FF08040FBF74AFB49460290FBF746FBDA
:104C5000414604904FF04040FBF740FB4146029034
:104C6000FBF73CFB03900499FBF732FB83464FF0C4
:104C70007E51FBF7DBFA0590FBF793FDCDE90801C8
:104C800039464FF08040FBF729FB41460390FBF784
:104C900025FB494604904FF08040FBF71FFB00E0E6
:104CA00068E051460390FBF719FB83460499FBF734
:104CB000BDFA0590FBF775FDCDE90601DDE9082396
:104CC000FEF730F84FF066322C4BCDE90A01FBF7C6
:104CD0001CFCCDE90C01FBF78FFD286051465046C6
:104CE000FBF7FCFA494604904846FBF7F7FA4146C1
:104CF00003904046FBF7F2FA394601903846FBF73D
:104D0000EDFA00900199FBF791FA02900399FBF7F5
:104D1000DFFA83460499FBF7DBFA0590FBF741FDC8
:104D2000CDE9080151463846FBF7D8FA49460490C8
:104D30004046FBF7D3FA03900499FBF777FA4FF05C
:104D400080410590FBF7CAFA8346FBF72AFDCDE9BF
:104D50000601DDE90823FDF7E5FF4FF06632074B5A
:104D6000CDE90A01FBF7D1FBCDE90C01FBF744FDCE
:104D7000306001E002200BE7002009E766A64C4006
:104D800070B50024FCF786FA00F024F9002840D121
:104D9000782000F02FFFC4B20CB1012070BD782044
:104DA000FFF7A4FEC4B20CB10220F7E7642000F0C4
:104DB000D3FEC4B20CB10320F0E7FEF771FDC4B21C
:104DC0000CB10420EAE71548FFF700FE0546FEF7A0
:104DD000C1FFC4B20CB10520E0E740F27310FEF74A
:104DE00007FCC4B20CB10620D8E76420FEF7E2FE4F
:104DF000C4B20CB10720D1E701F004F904460CB1AC
:104E00000820CBE7012000F0A3FDC4B21CB10920AB
:104E1000C4E70A20C2E70020C0E70000B00000207D
:104E200001461148407A30B1012807D0022808D045
:104E300003280CD108E0022008700BE00420087061
:104E400008E00820087005E01020087002E04FF02C
:104E5000FF30704700BF0448C07C18B10878400696
:104E6000000E08700020F4E784000020014613487B
:104E7000407A30B1012808D002280AD0032810D186
:104E80000BE04FF4804008800EE041F69C700880F3
:104E90000AE04FF48050088006E04FF4006008807C
:104EA00002E04FF0FF30704700BF0448C07C10B1F3
:104EB0000888401008800020F5E7000084000020EA
:104EC00001460248007C08700020704784000020E2
:104ED00001460F48007A30B1012807D0022809D0D6
:104EE00003280FD10AE0FA2008800EE04FF4FA7090
:104EF00008800AE04FF47A70088006E04FF4FA6008
:104F0000088002E00020088000BF00BF002070473A
:104F10008400002001460E48007A30B1012807D0F5
:104F2000022808D003280CD108E00A4808600BE0EA
:104F30000948086008E00948086005E0084808607A
:104F400002E04FF0FF30704700BF0020FBE7000099
:104F500084000020000003430000834233330342F7
:104F60003333834101461248C07A082817D2DFE85C
:104F700000F01704070A0D101318BC20088013E076
:104F80006220088010E02A2008800DE014200880AC
:104F90000AE00A20088007E00520088004E000BF3E
:104FA00000BF0020088000BF00BF00207047000045
:104FB000840000200146064890F8240010B14FF00C
:104FC000FF3070470248C08908800020F9E70000E0
:104FD000840000201CB580208DF80000654A12680E
:104FE000917C644A526810786B460122FCF797FB6B
:104FF00010B14FF0FF301CBD6420FEF78DFA002089
:105000008DF800005B4A1268917C5A4A5268107809
:105010006B460122FCF783FB10B14FF0FF30EAE74B
:10502000544A1268917D534A526810786B460622A2
:10503000FCF7CFFA10B14FF0FF30DCE79DF8050028
:10504000C007400F9DF8031001F0010140EA410044
:105050009DF8011001F0010140EA010494B1012C16
:1050600003D101214348C17431E0022C03D1002156
:105070004048C1742BE021463FA0FDF7E3F84FF014
:10508000FF30B8E73B4A1268D1783A4A5268107844
:105090006B460122FCF79DFA10B14FF0FF30AAE7F2
:1050A0009DF8000000F00F042CB93D48FDF7CAF848
:1050B0004FF0FF309FE7042C06D13AA0FDF7C2F86D
:1050C00001212C48C17402E000212A48C174FF214B
:1050D00028488172FF2027490872FF212548417224
:1050E000C1724FF6FF71C181FF21017481740121EA
:1050F000017380F82210002180F82310417501759A
:105100001630016041608160163880F8241080F804
:105110002510C1844FF4FA6000F062FC10B14FF02A
:10512000FF3068E7022000F02BFB10B14FF0FF309A
:1051300061E72A2000F0CEFC10B14FF0FF305AE7B3
:10514000322000F009FD10B14FF0FF3053E700208E
:10515000FFF7CCFC10B14FF0FF304CE7002000F01F
:1051600051FB10B14FF0FF3045E7002000F042FD49
:10517000002040E784000020556E737570706F72D8
:1051800074656420736F6674776172652070726FE6
:1051900064756374207265762025642E0A00000011
:1051A0000074000848616C662073656E73697469E9
:1051B00076697479207061727420666F756E642EE2
:1051C0000A0000002DE9F04385B005460E469046E2
:1051D0009946294890F8250020B14FF0FF3005B0DE
:1051E000BDE8F08316B94FF0FF30F8E7002423E064
:1051F000281B102801DD102000E0281B87B232197F
:105200003946204600F05EFD10B14FF0FF30E6E772
:1052100001AA3946204600F001F910B14FF0FF30E5
:10522000DDE730193A4601A9FAF7F3FF10B16FF044
:105230000100D4E7E01984B2AC42D9DB4FEA282060
:105240008DF8000008F0FF008DF801000A4A12688E
:10525000917E094A526810786B460222FCF75FFA89
:1052600010B14FF0FF30BAE70121034880F8251054
:10527000A0F826900020B2E78400002038B504464C
:10528000282C02DD4FF0FF3038BDDCB9002000F0E3
:10529000EBFB00208DF8000007208DF801002E4A5E
:1052A0001268917C2C4A526810786B460222FCF7F7
:1052B00036FA10B14FF0FF30E6E7002126480175BD
:1052C0000020E1E7012000F0CFFB20208DF8000056
:1052D000012C06D100208DF80100052000F0FAFB1A
:1052E00017E0052C06DC01208DF80100052000F0F8
:1052F000F1FB0EE0142C06DC02208DF801000A20E0
:1053000000F0E8FB05E003208DF80100142000F018
:10531000E1FB9DF80100072101EB8010C0B28DF880
:1053200001000D4A1268917C0B4A526810786B4656
:105330000222FCF7F4F910B14FF0FF30A4E7082186
:105340000548817200210173012101750020FFF7DA
:10535000CDFB002098E7000084000020F8B504464B
:105360000F4616462C4890F8240010B94FF0FF3035
:10537000F8BD2948807A10B94FF0FF30F8E7264A87
:105380001268917A244A526810786B460222FCF720
:1053900020F910B14FF0FF30EAE79DF801009DF8C9
:1053A000001040EA0125A54203DA00203070401EBB
:1053B000DEE7194840684088B5EB600F17DD164AF4
:1053C0001268517C144A526810786B460122FCF72F
:1053D00000F910B14FF0FF30CAE79DF8000000F06F
:1053E000100020B100F05AF86FF00100C0E7E2B2FF
:1053F000094B1B68D97A084B5B6818783B46FCF769
:10540000E8F810B14FF0FF30B2E795FBF4F0401E22
:1054100030700020ACE7000084000020F8B504469E
:105420000D46164616B94FF0FF30F8BD1A48807A7F
:1054300010B94FF0FF30F8E720128DF80000E0B20D
:105440008DF801009DF801002844134949684989F5
:10545000884202DD4FF0FF30E7E70F4A1268117E05
:105460000D4A526810786B460222FCF758F910B1C9
:105470004FF0FF30D9E7EAB2074B1B68597D064B66
:105480005B6818783346FCF7A4F810B14FF0FF3092
:10549000CBE70020C9E700008400002008B5704871
:1054A000807A10B94FF0FF3008BD002000906C4AA0
:1054B0001268D17B6A4A526810786B460122FCF769
:1054C0002EF910B14FF0FF30EEE7654A12685179BE
:1054D000634A526810786B460122FCF720F910B13C
:1054E0004FF0FF30E0E75E4A126811795C4A52687B
:1054F00010786B460122FCF712F910B14FF0FF3023
:10550000D2E7574890F82400002853D00C20009090
:10551000534A12681179524A526810786B46012238
:10552000FCF7FDF810B14FF0FF30BDE73220FDF77A
:10553000F3FFC02000904A48807A00F0010020B1BB
:105540009DF8000040F020000090454A1268117953
:10555000434A526810786B460122FCF7E0F810B11C
:105560004FF0FF30A0E73E48407C10B10220009091
:1055700001E0002000903A4A1268D17B384A526814
:1055800010786B460122FCF7CAF810B14FF0FF30DB
:105590008AE700200090324A12685179304A5268F6
:1055A00010786B460122FCF7BAF8002855D04FF06E
:1055B000FF3079E704200090294A12681179284ABF
:1055C000526810786B460122FCF7A9F810B14FF031
:1055D000FF3069E72248807C20B92148807A00F0BA
:1055E000010010B94020009001E0602000901C4AAA
:1055F000126811791A4A526810786B460122FCF73A
:105600008EF810B14FF0FF304EE73220FDF784FFE7
:105610001348407C10B10120009001E00020009070
:105620000F4A1268D17B0E4A526810786B460122ED
:10563000FCF775F810B14FF0FF3035E7084A1268F3
:105640005179074A52681078054B10330122FCF754
:1056500066F810B14FF0FF3026E7002024E7000085
:10566000840000202DE9F04F8DB083460F460220C4
:105670000C90424890F8240020B1002000F068F916
:10568000012600E0002603A8FFF722FC05A8FFF78B
:10569000C7FB01A8FFF766FC02A8FFF78BFC3748A1
:1056A00090F80AA004A8FFF70BFC002407E00022F2
:1056B00039465846FEF7CAFD00B902E0641C022CC8
:1056C000F5DB00BF022C01D1002528E0002407E013
:1056D000012206A909A8FEF7B9FD00B902E0641C81
:1056E000022CF5DB00BF022C01D1002517E006A932
:1056F0003846FDF77BF800F0FF0809A95846FEF789
:10570000DDFF00F0FF090025B9F1000F01D145F0E0
:105710000105B8F1000F01D145F0020500BFFF20DF
:1057200016490872FF2115484172C1724FF6FF7188
:10573000C181FF218172017401210173BDF80C0048
:1057400000F04EF99DF8140000F01AF8BDF80400BE
:1057500000F0C0F9BDF8080000F0FEF9504600F076
:1057600049FA9DF81000FFF7C1F916B1012000F0C9
:10577000EFF828460DB0BDE8F08F0000840000204F
:1057800038B504461E48807A10B94FF0FF3038BD56
:10579000022C06D0042C07D0082C08D0102C0CD1D9
:1057A00008E0002000900BE00820009008E01020A6
:1057B000009005E01820009002E04FF0FF30E6E78F
:1057C00000BF0F48407A9DF80010B0EBE10F01D107
:1057D0000020DCE70A4A1268D179094A5268107839
:1057E0006B460122FBF79BFF10B14FF0FF30CEE775
:1057F0009DF80000C110024841720020C7E7000078
:105800008400002038B504465048807CA04201D175
:10581000002038BD002C46D04C4A126811794B4A02
:10582000526810786B460122FBF7D3FE10B14FF09F
:10583000FF30EEE79DF8000020F020000090434A82
:1058400012681179414A526810786B460122FBF7C1
:1058500066FF10B14FF0FF30DBE70320FDF75CFE81
:1058600002200090394890F8220020B19DF80000F5
:1058700040F080000090354890F8230020B19DF85A
:10588000000040F030000090304A1268117D2F4A2D
:10589000526810786B460122FBF741FF002851D077
:1058A0004FF0FF30B5E7294A12681179274A52684C
:1058B00010786B460122FBF78CFE10B14FF0FF30E1
:1058C000A7E72248807A00F0010028B19DF8000087
:1058D00040F02000009004E09DF8000020F020003F
:1058E00000901A4A12681179184A526810786B466B
:1058F0000122FBF714FF10B14FF0FF3089E70320BE
:10590000FDF70AFE114890F8220010B180200090A7
:1059100001E0002000900D4890F8230020B19DF890
:10592000000040F030000090084A1268117D074ADC
:10593000526810786B460122FBF7F1FE10B14FF070
:10594000FF3066E701488474002062E7840000208D
:1059500038B50446214890F82400A04201D1002027
:1059600038BD24B31D4890F8250010B94FF0FF3022
:10597000F6E7002000F090FB0020FFF743FF1749F7
:10598000C88C00F0E9F800200090144949680878B4
:105990006B4601222321FBF7C2FE01210F4880F84C
:1059A0002410012000F078FBFFF778FD13E00020C1
:1059B00000F072FB0948007C0090084949680878AB
:1059C0006B4601222321FBF7AAFE0021034880F841
:1059D0002410FFF763FD0020C2E7000084000020D0
:1059E00038B504461F48807A10B94FF0FF3038BDF3
:1059F000FA2C09D0B4F5FA7F09D0B4F57A7F09D032
:105A0000B4F5FA6F0CD108E0002000900BE00820FC
:105A1000009008E01020009005E01820009002E0BF
:105A20004FF0FF30E3E700BF0E48007A9DF800100A
:105A3000B0EBE10F01D10020D9E70A4A1268917951
:105A4000084A526810786B460122FBF768FE10B1D5
:105A50004FF0FF30CBE79DF80000C01001490872FD
:105A60000020C4E78400002038B50446184890F8A8
:105A70002300A04201D1002038BD14B13020009095
:105A800001E0002000901248807C20B19DF80000C9
:105A900040F0020000900E4890F8220020B19DF8DE
:105AA000000040F080000090094A1268117D084A09
:105AB000526810786B460122FBF731FE10B14FF0AF
:105AC000FF30D9E7024880F823400020D4E70000E7
:105AD0008400002038B504461E48807A10B94FF083
