:020000040800F2
:10000000780700204501000889150008FB0F00084B
:10001000851500085B090008A725000800000000FE
:10002000000000000000000000000000A51900080A
:10003000330D00080000000011160008F51B000831
:100040005F0100085F0100085F0100085F01000810
:100050005F0100085F0100085F0100085F01000800
:100060005F0100085F0100085F0100085F010008F0
:100070005F0100085F0100085F0100085F010008E0
:100080005F0100085F0100085F0100085F010008D0
:100090005F0100085F0100085F010008350D0008DE
:1000A0005F0100085F0100085F0100085F010008B0
:1000B000591C0008E11C00085F0100085F010008EE
:1000C0005F0100085F0100085F0100085F01000890
:1000D0005F010008852300085F0100085F01000838
:1000E0005F0100085F0100085F0100085F01000870
:1000F0005F0100085F0100085F0100085F01000860
:100100005F0100085F010008491D00085F01000849
:100110005F0100085F0100085F0100085F0100083F
:100120005F0100085F0100085F0100085F0100082F
:10013000DFF80CD000F0E8FB00480047F52E00087F
:10014000780700200648804706480047FEE7FEE79C
:10015000FEE7FEE7FEE7FEE7FEE7FEE7FEE7FEE777
:10016000F91B000831010008F0B480EA0102D40F45
:100170004200B2EB410F02D20246084611464A0045
:1001800042D0C30DDDB2C1F3C752AD1A202D35DA0E
:10019000C1F3160141F4000204B15242C5F1200638
:1001A00002FA06F12A411044B3EBD05F23D0C4B168
:1001B000012DA0EBC35009DCF0BC4FF0004202EA75
:1001C000C352DBB200F5000000F013BB400000F1A9
:1001D000807000EBC350A0F1807040EAD1704900FC
:1001E00009E0490841EAC071A0EBC35000F50000E6
:1001F000400800EBC350F0BC00F0F2BA61420122AB
:1002000002EB4101001BF6E7F0BC704781F00041B2
:10021000AAE780F00040A7E780EA010210B502F0EB
:100220000043400022D04A001FD0010E01EB1261B2
:10023000C0F35600C2F3560240F4000042F400023C
:10024000A0FB022000047F39140400D0401C50EAB7
:10025000124001D44000491EC2B20C0604EBD0107B
:10026000401C4008802A02D003E0002010BD20F08E
:100270000100002900DA0020184310BD30B480EAE4
:10028000010202F0004530F0004221F0004013D09E
:1002900090B1C30DD40DC2F31601C0F31600E41AD9
:1002A00041F4000140F400027D34914201D3641C0A
:1002B00000E04900002C02DA30BC002070474FF407
:1002C00000000023914201D3891A034340084FEAFA
:1002D0004101F7D151B1914202D14FF0004105E007
:1002E00002D24FF0010101E06FF0010103EBC450B5
:1002F000284430BC00F074BA2DE9FE4F804681EAF4
:100300000300C00F0C46009021F0004123F000458F
:10031000B8EB0200A94105D24046214690461C4652
:100320000B46024623F00040104347D0270DC7F389
:100330000A00C3F30A510290401A019040286BDA78
:10034000C3F3130040F4801B0098924620B10023B1
:10035000D2EB030A63EB0B0B01985946C0F1400244
:10036000504600F00CFA06460D4650465946019A92
:1003700000F024FA10EB08006141002487EA1152D2
:1003800084EAE7731A4340D0009A62B3019A012AC3
:100390004FEA075215DC001B61EB02014FF00042EF
:1003A00002EA0752CDE90042001C41F580113246B5
:1003B0002B4600F05BFA03B0BDE8F08F40462146C3
:1003C000F9E7001B61EB0201001C41F580130018E6
:1003D0005B412018A2F5001747EB030140EAD570F6
:1003E000B6196D4111E06D084FEA360645EAC07551
:1003F0004FEA0752001B61EB0201001C41F580111E
:1004000049084FEA30000019514132462B4603B0EB
:10041000BDE8F04F00F01BBA009801224000002315
:10042000D0EB020263EBE073009821464FEAE074E0
:10043000B8EB000061EB0401E9E783F000435BE700
:1004400081F0004158E72DE9FE4F81EA030404F0F2
:10045000004421F0004100944FF0000B23F00043D2
:1004600050EA01045ED052EA03045BD0C3F30A549D
:10047000C1F30A552C44A4F2F3340194A0FB0254B6
:10048000C1F3130141F48011C3F3130343F4801348
:1004900001FB024400FB034E840A970A44EA81549C
:1004A00047EA8357A4FB076802958D0A05FB078579
:1004B0004FEA932C04FB0C542705029D4FEA065883
:1004C00047EA1637B5EB08056EEB070C870E920E60
:1004D00047EA811742EA8312A7FB0201B6EB0B0140
:1004E00064EB00042B0D43EA0C335E1844EB1C5004
:1004F000DA465146E7FB0201C5F313044FEA0B331A
:1005000043EA14534FEA0432019C43EA0603A4F180
:100510000C040294009CCDE900B400F0A7F903B0EC
:10052000BDE8F08F00200146F9E72DE9F04D81EAA2
:10053000030404F0004B21F0004514464FF0000A7C
:1005400023F0004150EA050220D054EA01021DD0F8
:10055000C5F30A570246C5F31303C1F31300C1F3F1
:100560000A5640F4801543F48013A7EB0608101BCD
:10057000D64608F2FD3873EB050002D308F10108F6
:1005800001E092185B41B8F1000F03DA0020014648
:10059000BDE8F08D00204FF48011064684460EE041
:1005A000171B73EB050705D3121B63EB050306430B
:1005B0004CEA010C49084FEA300092185B4150EABE
:1005C0000107EDD152EA030012D082EA040083EA67
:1005D0000501084305D0101BAB4106D201220023C0
:1005E00006E000224FF0004302E06FF001025310DA
:1005F0001AEB06004CEB085110EB0A0041EB0B0123
:10060000BDE8F04D00F023B9C10F80EAE070084466
:10061000CA079623002100F0ECB80EB5C10F80EA9E
:10062000E0700844CA07002140F233438DE80E0011
:100630000A460B4600F01AF903B000BD00F0004274
:1006400020F00040C10DC0F3160040F400007F29E7
:1006500001DA00207047962903DCC1F19601C840F9
:1006600001E096398840002AF4D04042704720F0DB
:100670000040C10DC0F3160040F400007F2901DAEC
:1006800000207047962903DCC1F19601C8407047ED
:1006900096398840704700F0004230F000400AD0A0
:1006A000C10D01F56071C0F3160042EA0151C208A4
:1006B00040071143704700200146704701F0004396
:1006C00030B421F0004150EA010206D00A0DA2F533
:1006D0006072C1F31301002A02DC30BC00207047B5
:1006E000440F44EAC104C100E01830BC00EBC25022
:1006F00000F076B8002801DBC0F10040002901DBE2
:10070000C1F1004181427047002801DBC0F1004087
:10071000002901DBC1F10041884270472DE9F05FFB
:100720000546002092469B46884606468146402460
:100730001BE0284641464746224600F02FF8534624
:100740005A46C01A914110D311461846224600F06D
:1007500016F82D1A67EB01084F46224601200021AA
:1007600000F00DF817EB00094E41201EA4F1010422
:10077000DFDC484631462A464346BDE8F09F202A42
:1007800004DB203A00FA02F1002070479140C2F1E8
:10079000200320FA03F3194390407047202A04DB1A
:1007A000203A21FA02F00021704721FA02F3D040EA
:1007B000C2F120029140084319467047202A06DB07
:1007C000CB17203A41FA02F043EAE07306E041FA1F
:1007D00002F3D040C2F1200291400843194670470D
:1007E0000029A8BF7047401C490008BF20F0010045
:1007F000704710B4B0FA80FC00FA0CF050EA010423
:1008000004BF10BC704749B1CCF1200421FA04F4B4
:1008100011FA0CF118BF012121430843A3EB0C018D
:10082000CB1D4FEA00614FEA102042BF002010BCF0
:10083000704700EBC35010440029A4BF10BC7047A0
:10084000401C490008BF20F0010010BC704710B5E3
:10085000141E73F1000408DA401C41F100019218E3
:100860005B411A4301D120F0010010BD2DE9F04D8C
:1008700092469B4611B1B1FA81F202E0B0FA80F2E1
:1008800020329046FFF77BFF04460F4640EA0A00FD
:1008900041EA0B0153465A46084313D0114653EA26
:1008A000010019D0C8F140025046FFF777FF054616
:1008B0000E46504659464246FFF761FF084305D0B1
:1008C000012004E020463946BDE8F08D00200543B4
:1008D00046EAE0762C4337430A986305E40AA0EB26
:1008E00008000022FD0A44EA47540A3002D50020DD
:1008F0000146E9E7010510196941DDE908450019DC
:100900006941BDE8F04DA2E7064C074D06E0E068FE
:1009100040F0010394E8070098471034AC42F6D346
:10092000FFF70AFC383100085831000870B521F093
:10093000004303430CD0C1F30A550024D5EB040552
:1009400064EB0403D617AD1AB34102DB0020014665
:1009500070BD201841EB025170BD00BFFEE70000E2
:100960002DE9F04786B08246BAF1000F45D04748DE
:100970000068FFF790FE04460D4645480068FFF703
:100980008AFE444A444BCDE90001FFF756FD8046FC
:100990000022424BFFF757FD06460022404BFFF76F
:1009A000C4FD22462B46CDE90201FFF7A5FCCDE9A7
:1009B0000401FFF783FE3B4908603B480068FFF7EE
:1009C0006AFE0646394A3A4BFFF73DFD04460D469E
:1009D00034480068FFF75FFE0646364A364BFFF79D
:1009E00032FD22462B46CDE90401FFF785FC804607
:1009F000FFF764FE2549086044E030480068FFF7CF
:100A00004AFE06460F462E480068FFF744FE32466F
:100A10003B46CDE9000102F0CFF88046294A2A4B37
:100A2000FFF783FD0022294BCDE90201FFF70BFD03
:100A300004464FF06632264BFFF7FFFCCDE9040178
:100A4000FFF73CFE2349244A127841F8220022484D
:100A50000078401CC0B220490870022801DD002047
:100A600008701C4A51681068FFF77EFB054619485C
:100A700081682846FFF778FB04461849FFF7FEFB1C
:100A80000949086006B0BDE8F08700006800002052
:100A90004C000020A088450C3B4CED3F000034404A
:100AA00000408F4080000020740000207B14AE477F
:100AB000E17A943F5C8FC2F5285CEF3F480000204C
:100AC0004400002044174154FB2109400080664047
:100AD0006666F63FC80100208C0000200000404000
:100AE0002DE9F04786B08246BAF1000F47D047485B
:100AF0000068FFF7D0FD04460D4645480068FFF743
:100B0000CAFD444A444BCDE90001FFF796FC8046FC
:100B10000022424BFFF797FC06460022404BFFF7AE
:100B200004FD22462B46CDE90201FFF7E5FBCDE9A6
:100B30000401FFF7C3FD3B4908603B480068FFF72D
:100B4000AAFD06464FF03332384BFFF77CFC0446D3
:100B50000D4634480068FFF79EFD06464FF03332DD
:100B6000334BFFF770FC22462B46CDE90401FFF71B
:100B7000C3FB8046FFF7A2FD2449086043E02D48EF
:100B80000068FFF788FD06460F462B480068FFF710
:100B900082FD32463B46CDE9000102F00DF8804669
:100BA000264A274BFFF7C1FC0022264BCDE9020164
:100BB000FFF749FC0446244A244BFFF73EFCCDE9ED
:100BC0000401FFF77BFD2249224A127841F82200F6
:100BD00020480078401CC0B21E490870022801DD80
:100BE000002008701A4A51681068FFF7BDFA0546E0
:100BF000174881682846FFF7B7FA04461649FFF7F9
:100C00003DFB0949086006B0BDE8F0876C00002094
:100C100050000020E869C020E993EE3F0000344016
:100C200000408F4084000020780000203333C33F11
:100C30003333EB3F4800002040000020441741546C
:100C4000FB21094000806640CDCCCCCCCCCC084008
:100C5000D40100208D000020000040402DE9F04725
:100C600086B08246BAF1000F38D01E480068FFF700
:100C700012FD06461C4A1D4BFFF7DFFB00221C4BF2
:100C8000CDE90001FFF7DFFB04460022194BFFF717
:100C90004CFC8046894618480068FFF7FCFC424639
:100CA0004B46CDE90201FFF727FBCDE90401FFF731
:100CB00005FD1149086008460068104908600E48A3
:100CC0000068FFF7BBFC041E01DB204600E0604229
:100CD000B0F5B47F02DB00200749086006B0BDE82C
:100CE000F0870000540000209B1BD3139678C6BFEA
:100CF0000000344000408F40880000207000002039
:100D000070B506460D46144621462846FFF7F2FC0C
:100D10000DD029463046FFF7F7FC01D8284670BDB4
:100D200021463046FFF7E6FC01D82046F7E730467B
:100D3000F5E7704710B54021104800F04AF9A0B916
:100D40000F4800880F49104A127821F812000E4807
:100D50000078401C0C49087000210948243801F033
:100D6000B0F800200649088004E001210448243836
:100D700001F0A7F8402000F031F810BD0008014054
:100D8000240400408C010020320000200EB500F049
:100D9000EFFD0121084600F04DFC0621002000F087
:100DA0006DF84020019000208DF8080010208DF88B
:100DB000090001208DF80A0001A800F015F817209D
:100DC0008DF8000000208DF801008DF80200012050
:100DD0008DF80300684600F0D9FB0EBD014908609C
:100DE0007047000014040140002123498279002A41
:100DF0003AD00A46126803689A430B461A600A1DE5
:100E0000126803689A430B1D1A60027911440A683C
:100E100003681A430A60184A0832126803689A4342
:100E2000154B08331A601A1D126803689A43124B57
:100E30000C331A604279102A0ED11A1F1268036807
:100E40001A430D4B08331A601A1D126803681A43BF
:100E5000094B0C331A600DE00749427911440A68C6
:100E600003681A430A6005E0027911440A680368BE
:100E70009A430A60704700000004014030B5002228
:100E80008B071C0F0F2303FA04F20B4B8C1053F843
:100E900024309343084C8D1044F8253023468C10A1
:100EA00053F824308C07240F00FA04F42343024C37
:100EB0008D1044F8253030BD080001402DE9F04187
:100EC000024600250026002000230024002791F878
:100ED00003C00CF00F0591F803C00CF0100CBCF12E
:100EE000000F03D091F802C04CEA050591F800C04C
:100EF000BCF1000F31D0146800202BE04FF0010C42
:100F00000CFA00F3B1F800C00CEA03069E4220D1AF
:100F100083004FF00F0C0CFA03F7BC4305FA03FCF7
:100F20004CEA040491F803C0BCF1280F06D14FF03D
:100F3000010C0CFA00FCC2F814C00AE091F803C0DE
:100F4000BCF1480F05D14FF0010C0CFA00FCC2F8BF
:100F500010C0401C0828D1D31460B1F800C0BCF107
:100F6000FF0F34DD546800202EE000F1080C4FF034
:100F7000010808FA0CF3B1F800C00CEA03069E421F
:100F800021D183004FF00F0C0CFA03F7BC4305FA94
:100F900003FC4CEA040491F803C0BCF1280F05D10E
:100FA00000F1080C08FA0CF8C2F8148091F803C09C
:100FB000BCF1480F07D100F1080C4FF0010808FA06
:100FC0000CF8C2F81080401C0828CED35460BDE84D
:100FD000F0810246002093680B400BB1012000E035
:100FE00000207047416170470161704703460AB1B4
:100FF000196100E059610020704700BFFEE77FB52E
:1010000008AC70CC0021016041608160C160016169
:1010100001994161029981610399C16100210162D5
:1010200041628162C1620463456386637FBD0000E3
:101030000EB521482149224ACDE9002102902148DC
:101040000EC82148FFF7DBFF1B482049204ACDE9A5
:10105000002102901F480EC81F48FFF7D0FF164816
:1010600000211E4ACDE9002102901D480EC81D48EE
:10107000FFF7C5FF10481C491C4ACDE9002102902A
:101080001B480EC81B48FFF7BAFF0B481A491B4AFA
:10109000CDE9002102901A480EC81A48FFF7AFFFA9
:1010A000054819490D4ACDE90021029017480EC89C
:1010B0001748FFF7A4FF0EBD0AD7A33C0000A5C345
:1010C0000000A54348030020E0010020000004C206
:1010D00000000442AC0000201C0200200000B443C9
:1010E00054030020580200200000AFC30000AF43AB
:1010F000B80000209402002000000CC200000C4246
:1011000060030020D00200200000B4C36C03002064
:101110000C03002010B54FF4A06000F06FFA4FF4FC
:10112000E13001F037FF01F08FFE00F00DF800F024
:1011300035F8FFF77DFF00F005F900F0B7F8FFF78D
:1011400025FE01F093F810BD08B50121402000F004
:1011500071FA10208DF803002020ADF80000032064
:101160008DF8020069460C48FFF7A8FE20210A48C6
:10117000FFF738FF10208DF803004020ADF8000085
:1011800003208DF8020069460348FFF797FE4021CF
:101190000148FFF727FF08BD0018014000B589B0DE
:1011A0000121082000F046FA4FF47070ADF82000DD
:1011B00018208DF8230003208DF8220008A9274865
:1011C000FFF77CFE0121042000F024FA01210846EB
:1011D00000F030FA4720ADF8140040F6C310ADF827
:1011E00018000020ADF81600ADF81A0005A91C483B
:1011F00000F0EAFF6020ADF804000120ADF8060021
:101200000020ADF80C0040F2E730ADF80A0001A96B
:10121000134800F07DFE0821114800F0C5FE01A929
:101220000F4800F0CBFE08210D4800F019FF01A97E
:101230000B4800F023FF0821094800F06FFF01A9C7
:10124000074800F075FF0821054800F0AFFF0121B5
:10125000034800F036FE09B000BD0000000C01405C
:101260000008004030B504460D48007858B90D48D4
:10127000007840B10C480480001D0180001D0280F0
:10128000001D038009E040F28330074D28802D1DAA
:1012900028802D1D28802D1D2880002030BD0000B5
:1012A00064000020650000203408004010B501F003
:1012B000CBFD00226B21D02000F06FFC072219210A
:1012C000D02000F06AFC06221A21D02000F065FC34
:1012D00018221B21D02000F060FC00221C21D0200D
:1012E00000F05BFC10BD000000B500200E49086056
:1012F0000E48006820F470000C4908600846006839
:1013000040F44010086000200949C1F8B40100F021
:1013100011F801200449086000F00CF8002004498D
:10132000C1F8B00100BD0000B0812142040C0140B1
:10133000008021421E2001E0411EC8B20028FBD1DE
:101340007047000008B50121082000F073F94FF440
:101350004050ADF8000010208DF8030003208DF8F8
:10136000020069460448FFF7A9FD4FF440510248C6
:10137000FFF73AFE08BD0000000C014000B5002058
:101380000E4908600E48006820F470000C4908609F
:101390000846006840F44010086001200949C1F87F
:1013A000B401FFF7C7FF012004490860FFF7C2FF3F
:1013B00000200449C1F8B00100BD0000B081214205
:1013C000040C01400080214210B50346002216485B
:1013D000006820F47000144908600846006840F472
:1013E00000000860002414E0002010490860FFF7A6
:1013F000A1FF01200E49C1F8B0015006020E0B48B2
:101400007C38006808B1501CC2B2FFF793FF601C23
:10141000C4B2082CE8DB13B9FFF7B0FF01E0FFF717
:1014200063FF104610BD0000040C0140B081214252
:101430000080214200B502461248006820F4700086
:10144000104908600846006840F440100860002019
:101450000D490860002312E0D0090B49091D0860FE
:101460005006020E01200949C1F8B001FFF762FFE2
:10147000002005490860FFF75DFF581CC3B2082B28
:10148000EADB00BD040C0140B08121420080214212
:1014900000B50E48006820F470000C49086008464A
:1014A000006840F4401008600120094908600949BB
:1014B000C1F8B001FFF73EFF002005490860FFF7C3
:1014C00039FF00200349C1F8B00100BD040C014000
:1014D000B48121420080214200B50E48006820F40A
:1014E00070000C4908600846006840F4401008602D
:1014F0000020094908600949C1F8B401FFF71AFF43
:101500000120054908600549C1F8B401FFF712FF41
:1015100000BD0000040C0140B08121420080214246
:1015200000B500221448006820F4700012490860D9
:101530000846006840F40000086001200F49086078
:10154000FFF7F8FE01200E49C1F8B001FFF7F2FEE7
:1015500007E0501CC2B2FA2A03DDFFF7BDFF0120ED
:1015600000BD0648803800680028F2D10349091FF1
:10157000086000BFF4E70000040C0140B481214280
:101580000080214200BFFEE77047000070B50021D7
:1015900000230F22C47804B3154C246804F4E064DB
:1015A000C4F5E064210AC1F10403CA40447804FA96
:1015B00003F184781440214309010E4C0678A155AB
:1015C000047804F01F050124AC4005786D11AD00CE
:1015D00005F1E025C5F8004109E0047804F01F0595
:1015E0000124AC40044D0678761145F8264070BDC4
:1015F0000CED00E000E400E080E100E0024901437E
:10160000024A1160704700000000FA050CED00E08E
:101610007047000029B1064AD2690243044BDA61DF
:1016200004E0034AD2698243014BDA61704700004B
:101630000010024029B1064A92690243044B9A61A4
:1016400004E0034A92698243014B9A6170470000AB
:101650000010024030B500210022002400232D4D4F
:101660006D6805F00C0121B1042905D0082923D1AA
:1016700005E0294D056022E0274D05601FE0254D5E
:101680006D6805F47012234D6D6805F480340225F1
:1016900005EB92421CB9214D554305600BE01D4DF1
:1016A0006D6805F400351DB11C4D5543056002E021
:1016B000194D5543056002E0174D056000BF00BF9E
:1016C000144D6D6805F0F0010909154D6B5C056856
:1016D000DD4045600F4D6D6805F4E061090A104D6D
:1016E0006B5C4568DD4085600A4D6D6805F46051AE
:1016F000C90A0B4D6B5C4568DD40C560054D6D68E2
:1017000005F44041890B074D6B5CC568B5FBF3F5EB
:10171000056130BD0010024000127A0000093D0052
:101720001E0000202E0000200246084830F812005B
:10173000401A322806DC054830F81200401A10F131
:10174000320F01DA002070470120FCE78C010020F5
:1017500070B53C21D02000F0FFF9344908703B21DE
:10176000D02000F0F9F931494870084600784978EE
:1017700040EA012000B22E4908800846B0F9000076
:10178000FEF742FF05462B49FEF746FD04464FF0A3
:101790008E41FEF773FD284908603E21D02000F0FD
:1017A000DBF9224988703D21D02000F0D5F91F498E
:1017B000C87008468078C97840EA012000B21F4905
:1017C00008800846B0F90000FEF71EFF05461949DB
:1017D000FEF722FD04464FF08E41FEF74FFD1849FB
:1017E00008604021D02000F0B7F9104908713F216E
:1017F000D02000F0B1F90D494871084600794979C7
:1018000040EA012000B20F4908800846B0F9000004
:10181000FEF7FAFE05460749FEF7FEFC04464FF0C8
:101820008E41FEF72BFD0849086070BD9E01002027
:1018300038000020CDCC9C41400000203A00002020
:10184000440000203C000020480000202DE9F04129
:101850004421D02000F080F93C4908704321D02079
:1018600000F07AF93949487008460078497840EA2A
:10187000012000B2364908800846B0F90000FEF7A2
:10188000CCFE06464FF06632324BFEF74EFE044663
:10189000FEF714FF304908604621D02000F05CF9C3
:1018A0002A4988704521D02000F056F92749C87090
:1018B00008468078C97840EA012000B227490880AC
:1018C0000846B0F90000FEF7A8FE06464FF0663263
:1018D000204BFEF72AFE0446FEF7F0FE2049086082
:1018E0004821D02000F038F9184908714721D0204C
:1018F00000F032F91549487108460079497940EA03
:10190000012000B2174908800846B0F90000FEF730
:101910007BFE05461449FEF77FFC04464FF08E41DE
:10192000FEF7ACFC114908600E48B0F90000FEF764
:1019300074FE06464FF06632064BFEF7F6FD04468F
:10194000FEF7BCFE09490860BDE8F0819E01002059
:1019500038000020666630404C0000203A0000202D
:10196000500000203C0000200000FA4454000020F9
:1019700008B501210420FFF75DFE4020ADF800000E
:1019800048208DF8030003208DF8020069460348C3
:10199000FFF794FA00200249087008BD00080140D2
:1019A00032000020704700002DE9F74F88B08346D1
:1019B00020480068FEF76FFE07461F4A1F4BFEF7E0
:1019C0003CFD0546FEF77AFE04461D480068FEF71A
:1019D00062FE07461B4A1C4BFEF72FFD81F00041BB
:1019E0000546FEF76BFE814618480068FEF753FE79
:1019F0000746174A174BFEF720FD0546FEF75EFE29
:101A0000824615481549164ACDE90442CDE906102B
:101A10001448006814490968CDE902A9CDE900100D
:101A2000124803685846DDE9091201F0C5F90BB008
:101A3000BDE8F08F540000209B1BD3139678C6BFDF
:101A400050000020E869C020E993EE3F4C000020E0
:101A5000A088450C3B4CED3F9800002094000020EE
:101A600090000020700000206C0000206800002022
:101A700010B500F001F810BD0CB5002001900090E9
:101A80003348006840F480303149086000BF304876
:101A9000006800F4003000900198401C019000980C
:101AA00018B90198B0F5A06FF1D12948006800F489
:101AB000003010B10120009001E00020009000985B
:101AC000012843D12348006840F0100021490860F4
:101AD0000846006820F0030008600846006840F0EF
:101AE000020008601A484068194948600846406882
:101AF00048600846406840F4806048600846406896
:101B000020F47C1048600846406840F4E8104860C3
:101B10000846006840F08070086000BF0C4800680C
:101B200000F000700028F9D00948406820F0030058
:101B3000074948600846406840F00200486000BF1E
:101B40000348406800F00C000828F9D10CBD0000E3
:101B5000001002400020024070B504460D46FFF719
:101B600097FC2046FFF766FCFFF7DAFC2846FFF7F4
:101B700061FCFFF7D5FCFFF78BFC611CC8B2FFF7D7
:101B800059FCFFF7CDFC0020FFF71EFC0646FFF7CF
:101B9000F5FBFFF7A1FC304670BD70B506460C465C
:101BA0001546FFF775FC3046FFF744FCFFF7B8FC1D
:101BB0002046FFF73FFCFFF7B3FC2846FFF73AFC4F
:101BC000FFF7AEFCFFF788FC012070BD042808D1A8
:101BD0004FF0E021096941F004014FF0E02211616A
:101BE00007E04FF0E021096921F004014FF0E02205
:101BF000116170477047000010B51348006840F04D
:101C000001001149086008464068104908400E4923
:101C10004860084600680E4908400B4908600846BD
:101C2000006820F4802008600846406820F4FE0028
:101C300048604FF41F008860FFF71AFF4FF0006004
:101C40000449086010BD0000001002400000FFF8C9
:101C5000FFFFF6FE08ED00E010B50121880700F057
:101C60003CF998B34FF416710720FFF75DFD08B9F2
:101C7000012000E00020164908704FF4167103207F
:101C8000FFF752FD30B14FF4C8610620FFF74CFD5D
:101C90001049087010480078401CC0B20E49087006
:101CA00028280FDB40210D48FFF793F908B90120E0
:101CB00000E000200446224640210848FFF796F93C
:101CC000054908700121880700F0F8F810BD0000F0
:101CD000640000206500002033000020001801404F
:101CE00010B50121134800F0F8F808B3002012499C
:101CF000087001201149088011480078401CC0B2CA
:101D00000F49087032280FDB20210E48FFF761F9D8
:101D100008B9012000E0002004462246202109489D
:101D2000FFF764F9064908700121024800F0C6F87F
:101D300010BD000000040040320000208C01002093
:101D400034000020001801402DE9F04101215248E3
:101D500000F0C3F800287DD05048C088A0F5167068
:101D600004B2FFF773FD0020FEF7FAFD0020FEF736
:101D7000B7FE0120FEF7F4FD0120FEF7B1FE0120C1
:101D8000FEF76CFF002211461046FFF70DFE04F22D
:101D9000E730FEF739FC0746414801683846FEF750
:101DA000E3F906463F4801683046FEF7DDF905468F
:101DB0003D4801682846FEF729FA3C49086004F2CC
:101DC000E730FEF721FC0746354801683846FEF744
:101DD0001DFA0646334801683046FEF717FA0546F5
:101DE000314801682846FEF711FA3149086004F2CB
:101DF000E730FEF709FC0746294801683846FEF738
:101E0000B3F90646274801683046FEF7FFF9054654
:101E1000254801682846FEF7A7F92649086004F21C
:101E2000E730FEF7F1FB07461D4801683846FEF72C
:101E3000EDF906461B4801683046FEF795F9054660
:101E4000194801682846FEF78FF91B4908600846C3
:101E5000006800E01DE0FEF70AFC85B21548006846
:101E6000FEF705FC86B212480068FEF700FC87B258
:101E70000E480068FEF7FBFB1FFA80F82B4632463F
:101E800039464046FFF7EEF90121034800F016F805
:101E900000BFBDE8F0810000000C00408C01002074
:101EA0009000002094000020980000209C0000205A
:101EB000A0000020A4000020A8000020CA43028245
:101EC000704721B1028842F00102028004E00288DA
:101ED0004FF6FE731A400280704730B5024600206C
:101EE00000230024158A05EA0103958905EA010407
:101EF00013B10CB1012000E0002030BD1AB183897C
:101F00000B43838102E083898B4383817047000008
:101F100070B5002400220023058C4FF6FE76354074
:101F20000584028C8388048B4FF68F752C40B51E78
:101F30002C400D882C43751E2A400D892A434D885C
:101F40002A43144DA8420BD0134DA84208D0134D7C
:101F5000A84205D0124DA84202D0124DA84213D17A
:101F60004FF6F7752A404D892A434FF6FB752A40F4
:101F70008D882A434FF6FF652B404FF6FF552B40C7
:101F80008D892B43CD892B4383800483CD8885861F
:101F9000028470BD002C014000340140004001402B
:101FA00000440140004801400A460021018B4FF6E1
:101FB000F7731940114301837047000070B5002486
:101FC00000220023058C4FF6EF7635400584028C05
:101FD0008388048B48F6FF752C404FF6FF452C4054
:101FE0000D884FF6FF7606EA05252C434FF6DF7580
:101FF0002A400D8906EA05152A434D8806EA05158B
:102000002A43154DA84202D0144DA8421DD14FF6C7
:102010007F752A404D894FF6FF7606EA05152A435B
:102020004FF6BF752A408D8806EA05152A434FF6FC
:10203000FF352B404FF2FF752B408D8906EA850551
:102040002B43CD8906EA85052B4383800483CD8805
:102050000587028470BD0000002C0140003401405F
:102060000A460021018B4FF2FF7319404FF6FF73B0
:1020700003EA0223194301837047000070B500246E
:1020800000220023058C4FF6FF6635400584028C44
:102090008388848B4FF68F752C404FF6FC752C404F
:1020A0000D882C434FF6FF552A400D894FF6FF76D9
:1020B00006EA05252A434D8806EA05252A43154DDB
:1020C000A84202D0144DA8421DD14FF2FF752A40FC
:1020D0004D894FF6FF7606EA05252A434FF6FF3570
:1020E0002A408D8806EA05252A434EF6FF752B40C7
:1020F0004DF6FF752B408D8906EA05152B43CD89DA
:1021000006EA05152B4383808483CD888587028466
:1021100070BD0000002C0140003401400A4600213F
:10212000818B4FF6F773194011438183704700008C
:1021300070B5002200230024058C4EF6FF76354052
:102140000584038C8488828B48F6FF752A404FF6FD
:10215000FF452A400D884FF6FF7606EA05252A43FB
:102160004DF6FF752B400D8906EA05352B434D884A
:1021700006EA05352B430B4DA84202D00A4DA84272
:1021800008D14BF6FF752C408D894FF6FF7606EA95
:1021900085152C4384808283CD88A0F84050038429
:1021A00070BD0000002C0140003401400A460021AF
:1021B000818B4FF2FF7319404FF6FF7303EA02233E
:1021C0001943818370470000002202881D4B98420A
:1021D0000ED01D4B98420BD0B0F1804F08D01B4B56
:1021E000984205D01A4B984202D01A4B984204D11B
:1021F0004FF68F731A404B881A43174B984207D0FB
:10220000164B984204D04FF6FF431A40CB881A432E
:1022100002808B8883850B8803850A4B98420BD0FC
:10222000094B984208D00E4B984205D00D4B98426E
:1022300002D00D4B984201D10B7A03860123838291
:1022400070470000002C01400034014000040040B1
:1022500000080040000C0040001000400014004046
:102260000040014000440140004801401FB50121E9
:102270000846FFF7CFF94720ADF8040040F2CF70D1
:10228000ADF808000020ADF80600ADF80A0001A97D
:102290004FF08040FFF798FF012211469007FFF7AB
:1022A0002DFE1C208DF8000000208DF80100042078
:1022B0008DF8020001208DF803006846FFF766F9EB
:1022C00001218807FFF7FDFD01210220FFF7A2F998
:1022D0004720ADF8040040F2CF70ADF808000020B0
:1022E000ADF80600ADF80A0001A92448FFF76CFF1D
:1022F000012211462148FFF701FE1D208DF8000044
:1023000000208DF8010003208DF8020001208DF8D7
:1023100003006846FFF73AF901211848FFF7D1FD9D
:1023200001210820FFF776F94720ADF8040044F6B4
:102330001F60ADF808000020ADF80600ADF80A00F7
:1023400001A90F48FFF740FF012211460C48FFF793
:10235000D5FD32208DF8000001208DF8010000200D
:102360008DF8020001208DF803006846FFF70EF992
:1023700001210348FFF7A5FD1FBD00000004004038
:10238000000C004010B540F225511D4800F04AF8FD
:1023900010B31B4800F002F9C4B21A48008800F4D8
:1023A0000040C8B91748008800F4804060B10A2C8A
:1023B00003D000201349088020E01248008840F430
:1023C00000401049088019E00D2C06D10D48008806
:1023D00040F480400B49088010E00A480088C0F3B0
:1023E0000D0009490C5407480088401C0549088025
:1023F00008460088C72801DD0020088010BD0000C5
:10240000003801401C000020C400002021B1828956
:1024100042F40052828104E082894DF6FF731A4033
:102420008281704770B502460024002300250020F9
:1024300040F66A16B14200D100BFC1F3421501F067
:102440001F03012606FA03F3012D02D196893340BA
:1024500006E0022D02D1168A334001E0968A33400D
:102460000C12012606FA04F41688344013B10CB19C
:10247000012000E0002070BDF0B5034600240026D6
:102480000025002040F66A17B94200D100BF184667
:10249000C1F3421401F01F06012707FA06F5012CCB
:1024A00001D10C3004E0022C01D1103000E01430D6
:1024B0001AB107682F43076002E00768AF4307605F
:1024C000F0BD00002DE9F04786B005460E46002419
:1024D000A24600BFA1460027B08900B100BF2F4629
:1024E0002C8A4CF6FF700440F08804432C82AC899F
:1024F0004EF6F3100440B0883189084371890843CF
:102500000443AC81AC8A4FF6FF400440B0890443D9
:10251000AC8201A8FFF79EF81F48874202D1DDF880
:1025200010A001E0DDF80CA0A88900F4004040B143
:102530000AEBCA0000EB0A1031684900B0FBF1F861
:1025400007E00AEBCA0000EB0A1031688900B0FB13
:10255000F1F86420B8FBF0F004012009642101FBCC
:102560001089A88900F4004040B1322000EBC90076
:10257000B0FBF1F000F00700044308E0322000EB6C
:1025800009106421B0FBF1F000F00F0004432C812E
:1025900006B0BDE8F0870000003801400146888899
:1025A000C0F30800704700BFFEE700000FB4054B02
:1025B00010B503A9044A029800F08EF810BC5DF82B
:1025C00014FB0000D92E000818000020490050EA32
:1025D000C12018BF04204A0D18BF40F0010040F28E
:1025E000FF72B2EB515F08BF40F00200012808BF44
:1025F000052070472DE9F0414F1E00EBC70104464E
:10260000D1E9000115461E4637F006020DD02A46D4
:102610003346FDF718FF7F1E04EBC703D3E9002301
:10262000FDF76AFE37F00602F1D1022F25D0042F04
:1026300013D0062F18BFBDE8F0812A463346FDF7B8
:1026400002FFD4E90A23FDF757FE2A463346FDF779
:10265000FAFED4E90823FDF74FFE2A463346FDF77C
:10266000F2FED4E90623FDF747FE2A463346FDF77E
:10267000EAFED4E90423FDF73FFE2A463346FDF780
:10268000E2FED4E90223FDF737FE2A463346FDF782
:10269000DAFED4E90023BDE8F041FDF72DBE0122AA
:1026A000FEF744B9FDF728BE024A00201107FEF7E5
:1026B0003DB9000001FDFFFF02E008C8121F08C17C
:1026C000002AFAD170477047002001E001C1121FB3
:1026D000002AFBD1704700002DE9FF4F8DB09B46CB
:1026E0000F460446002606E025280BD05A460F99CF
:1026F0009047641C761C20780028F5D111B0304634
:10270000BDE8F08F0025A8460122984900E0054366
:1027100014F8013F203B02FA03F00842F7D1207879
:102720002E2817D114F8010F45F004052A280ED0E1
:102730006FF02F022078A0F1300109290AD808EBA8
:10274000880102EB410100EB0108641CF2E757F835
:10275000048B641C20786C280DD004DC4C2812D02B
:102760006A2811D104E074280DD07A280CD10AE02F
:1027700045F4001507E0617845F48015814202D1E7
:10278000641C05F58015641C2278692A45D008DC94
:10279000002AB3D0582A69D0632A10D0642A08D1FD
:1027A0003BE0702A67D0732A13D0752A5CD0782A50
:1027B0005CD010465A460F999047761CD3E017F824
:1027C000040B8DF8000000208DF80100E94601207F
:1027D00003E057F8049B4FF0FF3069074FF0000506
:1027E00001D40AE06D1C45450DDA8542FADB19F883
:1027F00005100029F6D106E06D1C8542FCDB19F8B6
:1028000005100029F8D12E4404E019F8010B5A46AE
:102810000F9990476D1EF8D2A5E00A200021CDE95E
:102820000801C5F3025002280DD001CFC117031EC5
:1028300071F100030DDA4FF0000CD0EB0C006CEBE3
:1028400001012D2308E0FF1D27F00707F7E802012B
:10285000EDE72B0504D52B238DF8283001233BE031
:10286000EB0739D02023F7E70A2000E010200021F1
:10287000CDE9080107E01020002145F00405CDE96D
:1028800008014FF00808C5F3025002280FD001CF0D
:1028900000214FF0000A2B071FD5702A0DD0DDE96B
:1028A00008C38CF0100C5CEA030C0CD015E0FF1D83
:1028B00027F00707F7E80201EBE740228DF8282010
:1028C0004FF0010A0BE050EA010306D030238DF8E7
:1028D00028308DF8292002239A46582A04D024A2B1
:1028E0000DF120090B9209E026A2F9E7DDE90823A2
:1028F000FDF714FF0B9B9B5C09F8013D50EA0102B8
:10290000F4D1ADEB090020300890680701D44FF0F6
:1029100001080899884502DDA8EB010000E00020CD
:102920008046002506E00AA85A46405D0F99904768
:102930006D1C761C5545F6DB04E030205A460F9995
:102940009047761CB8F10001A8F10108F5DC05E01C
:1029500019F8010B5A460F999047761C0899481EA2
:1029600008900029F4DC641CC5E600000928010079
:1029700030313233343536373839616263646566F5
:1029800000000000303132333435363738394142B7
:1029900043444546000000002DE9F84F04460D462B
:1029A00021F0004000917349814211DC7249884254
:1029B00001DC06D12CB120462946BDE8F84FFFF7CF
:1029C0006EBE6E48002DCCBF6D496E49BDE8F88FD4
:1029D0006D49814211DD6D498142D8BF4FF0FF360C
:1029E0006DDD20462946FFF7F1FD042808BFFFF7FB
:1029F0005BFE20462946BDE8F88F6549654F25F006
:102A00000045814233DD6449814219DD00263246AA
:102A10004FF0804320462946FDF76EFC80468A46EB
:102A2000012220462946FDF781FF00223B46FDF7A3
:102A300004FD42465346FDF778FD04460D463EE050
:102A400001260022BA463B4620462946FDF754FCA3
:102A500080460F460022534620462946FDF7EDFCEE
:102A600042463B46FDF761FD04460D4627E04B49D3
:102A700081421BDDDFF828A10226002253462046B2
:102A80002946FDF7E0FC00223B46FDF735FC804679
:102A90000F460022534620462946FDF7CEFC42460B
:102AA0003B46FDF742FD04460D4608E0032622465C
:102AB0002B4600203B49FDF738FD04460D462246D3
:102AC0002B4610461946FDF7BEFC8B468246024651
:102AD0000B46FDF7B8FC07460246334888460B46CE
:102AE00006217844FFF786FD52465B46FDF7ABFCB6
:102AF00082462E488B463A46434605217844FFF7E6
:102B000079FD3A464346FDF79EFC02460B46002EF1
:102B1000504659460CDAFDF7EFFB22462B46FDF7EF
:102B200092FC01B022462B46BDE8F04FFDF788BC71
:102B3000FDF7E2FB22462B46FDF785FC1C4A7A4452
:102B400002EBC603D3E90023FDF777FC22462B46B0
:102B5000FDF773FC174A7A4402EBC603D3E900235E
:102B6000FDF76EFC009A002AB8BF81F00041BDE875
:102B7000F88F0000000010440000F07F182D44542E
:102B8000FB21F93FFB21F9BF0000DC3F0000203EA4
:102B90000000F33F0000F03F0000E63F00800340EC
:102BA0000000F83F0000F0BFBA0500007805000003
:102BB00016050000DE0400002DE9F04D9446CCF12E
:102BC000000423F000464CEA0404524F46EAD47451
:102BD0009A46884621F00042BC4206D8454240EA67
:102BE000050442EAD474BC4204D9BDE8F04D624603
:102BF000FFF758BDAAF14055A5F17F6555EA0C04D1
:102C00000BD0022404EAAA74434DDFF810E144EA31
:102C1000D87452EA000B04D00CE0BDE8F04DFFF789
:102C2000BBBE002C14BF012CBDE8F08D022C30D0AF
:102C3000032C32D056EA0C0B0AD0BE4220D1BA4245
:102C400009D126F0804622F080423346114617E033
:102C500000291ADB25E0DFF8C8B0FB44002C04BFD4
:102C6000DBE90001BDE8F08D012C02BFDBE90001CA
:102C700081F00041BDE8F08D022C0AD0032C0CD06D
:102C8000BA4212D1B8F1000F0BDA23482549BDE84A
:102C9000F08D28462449BDE8F08D28467146BDE8F0
:102CA000F08D1D482149BDE8F08D921B12153C2A7C
:102CB000C4BF19481D490EDCBAF1000FBEBF12F1A6
:102CC0003C0F0020014606DB6246FDF72EFC21F09A
:102CD0000041FFF761FE002C08BFBDE8F08D012C1C
:102CE00004BF81F00041BDE8F08D114A114B022C68
:102CF00007D0FDF7A2FB2A46BDE8F04D0A4BFDF7D1
:102D00009CBBFDF79AFB2A46BDE8F04D064BFDF74C
:102D100097BB00000000F07F182D4454FB2109C030
:102D200072040000FB21F9BFFB210940FB21F93FA0
:102D3000075C143326A6A13C2DE9F04104460D465C
:102D40001646E768256031462068FDF75FFA606047
:102D500061686069FDF760FA2062A16B6068FDF749
:102D60005BFA80463946FDF7FFF907463846D4E955
:102D70000C12FDF7C5FFE060E168A069FDF74CFAB1
:102D80006062D4E90101FDF741FA8046A16BFDF7CD
:102D900075FA20612169E069FDF73EFAA062D4E985
:102DA0000801FDF7E1F98046A16AFDF7DDF9E0626F
:102DB0006068A060BDE8F0812DE9F05F04460F4631
:102DC00015461E46DDF844B0DDE90B9ADDF8288093
:102DD000324621461648FFF7AFFF424639461548AE
:102DE000FFF7AAFF4A4629461348FFF7A5FF1048F8
:102DF0005246C16A1148FFF79FFF0E48C16A10484A
:102E00000D9AFFF799FF0C48C16A0E480E9AFFF71A
:102E100093FF0A48C16A0F9801600948C16A109877
:102E200001600848C06ACBF80000BDE8F09F0000D0
:102E3000E00100201C020020580200209402002023
:102E4000D00200200C03002010B56FF00400FEF744
:102E5000BDFE0A4800680A49B0FBF1F00949087054
:102E60000846007800EB4001C1EBC0104FF6FF713F
:102E700001EAC0000449088010BD000000000020E5
:102E800000127A0014000020160000200146114AAA
:102E900012884A434FF0E0235A6100229A611A4691
:102EA000126942F001021A6100BF4FF0E02210697E
:102EB00000F001021AB100F48032002AF5D04FF080
:102EC000E022126922F001024FF0E0231A61002291
:102ED0009A6170471600002000BF054A128802F070
:102EE0004002002AF9D0C2B2014B1B1D1A80704764
:102EF000003801401CB5FEF70DF91B48FFF756FBE3
:102F000031E0FEF725FC194919480068FDF784F9FE
:102F10008046FDF793FB0446144916480068FDF708
:102F20007BF98046FDF78AFB054610491248006888
:102F3000FDF772F98046FDF781FB06460B490F4805
:102F40000068FDF769F98046FDF778FB0746002029
:102F50002B4632463946CDE9004009A0FFF726FB53
:102F60003220FFF793FFCCE7D830000800007A4406
:102F70006C00002078000020680000207400002011
:102F80007B4225643A25643A25643A25643A2564EF
:102F90007D24000010B586B00446012144F20400EF
:102FA000FEF748FB4FF40070ADF8140003208DF8D5
:102FB000160018208DF8170005A91C48FDF77EFFA4
:102FC0004FF48060ADF8140004208DF8170005A9B7
:102FD0001648FDF773FF25208DF8000003208DF8BB
:102FE00001008DF8020001208DF803006846FEF70D
:102FF000CDFA01940020ADF80800ADF80A00ADF854
:103000000C00ADF810000C20ADF80E0001A9084826
:10301000FFF758FA012240F225510548FFF72CFA34
:1030200001210348FFF7F2F906B010BD0008014086
:1030300000380140000000004FBB610567ACDD3F78
:10304000182D4454FB21E93F9BF681D20B73EF3FCF
:10305000182D4454FB21F93FE2652F227F2B7A3C47
:10306000075C143326A6813CBDCBF07A8807703C00
:10307000075C143326A6913CC4EB98999999C9BF73
:10308000711623FEC671BCBF6D9A74AFF2B0B3BFA8
:103090009AFDDE522DDEADBF2F6C6A2C44B4A2BF68
:1030A0000D5555555555D53FFF8300922449C23FD4
:1030B0006E204CC5CD45B73F513DD0A0660DB13F08
:1030C000EB0D76244B7BA93F11DA22E33AAD903F1A
:1030D0000000000000000000466C69676874436FE0
:1030E0006E74726F6C6C65722069732072756E6E8F
:1030F000696E672E0D0A55415620697320616C7701
:1031000061797320726561647920746F2066616CE7
:103110006C206C696B6520612073616C7465642040
:103120006669736820776974686F75742064726566
:10313000616D2E0A000000005831000800000020D8
:10314000C4000000B82600081C320008C40000209B
:10315000B4060000C826000800A24A0400000000CF
:103160000000000001020304060708090000000037
:103170000000000000000000000001020304010242
:103180000304060708090204060800000000000006
:10319000000000000000000000000000000000002F
:1031A000000000000000000000000000000000001F
:1031B000000000000000000000000000000000000F
:1031C00000000000000000000000000000000000FF
:1031D00000000000000000000000000000000000EF
:1031E00000000000000000000000000000000000DF
:1031F00000000000000000000000000000000000CF
:1032000000000000000000000000008000000080BE
:0C321000713D0A3EEC51B83D000000008A
:0400000508000145A9
:00000001FF
