:020000040800F2
:10000000780700204501000881150008FB0F000853
:100010007D1500085B090008232600080000000089
:100020000000000000000000000000009D19000812
:10003000330D000800000000091600083F1C0008EE
:100040005F0100085F0100085F0100085F01000810
:100050005F0100085F0100085F0100085F01000800
:100060005F0100085F0100085F0100085F010008F0
:100070005F0100085F0100085F0100085F010008E0
:100080005F0100085F0100085F0100085F010008D0
:100090005F0100085F0100085F010008350D0008DE
:1000A0005F0100085F0100085F0100085F010008B0
:1000B000A11C00085D1D00085F0100085F01000829
:1000C0005F0100085F0100085F0100085F01000890
:1000D0005F010008012400085F0100085F010008BB
:1000E0005F0100085F0100085F0100085F01000870
:1000F0005F0100085F0100085F0100085F01000860
:100100005F0100085F010008C51D00085F010008CD
:100110005F0100085F0100085F0100085F0100083F
:100120005F0100085F0100085F0100085F0100082F
:10013000DFF80CD000F0E8FB00480047712F000802
:10014000780700200648804706480047FEE7FEE79C
:10015000FEE7FEE7FEE7FEE7FEE7FEE7FEE7FEE777
:10016000411C000831010008F0B480EA0102D40FFC
:100170004200B2EB410F02D20246084611464A0045
:1001800042D0C30DDDB2C1F3C752AD1A202D35DA0E
:10019000C1F3160141F4000204B15242C5F1200638
:1001A00002FA06F12A411044B3EBD05F23D0C4B168
:1001B000012DA0EBC35009DCF0BC4FF0004202EA75
:1001C000C352DBB200F5000000F013BB400000F1A9
:1001D000807000EBC350A0F1807040EAD1704900FC
:1001E00009E0490841EAC071A0EBC35000F50000E6
:1001F000400800EBC350F0BC00F0F2BA61420122AB
:1002000002EB4101001BF6E7F0BC704781F00041B2
:10021000AAE780F00040A7E780EA010210B502F0EB
:100220000043400022D04A001FD0010E01EB1261B2
:10023000C0F35600C2F3560240F4000042F400023C
:10024000A0FB022000047F39140400D0401C50EAB7
:10025000124001D44000491EC2B20C0604EBD0107B
:10026000401C4008802A02D003E0002010BD20F08E
:100270000100002900DA0020184310BD30B480EAE4
:10028000010202F0004530F0004221F0004013D09E
:1002900090B1C30DD40DC2F31601C0F31600E41AD9
:1002A00041F4000140F400027D34914201D3641C0A
:1002B00000E04900002C02DA30BC002070474FF407
:1002C00000000023914201D3891A034340084FEAFA
:1002D0004101F7D151B1914202D14FF0004105E007
:1002E00002D24FF0010101E06FF0010103EBC450B5
:1002F000284430BC00F074BA2DE9FE4F804681EAF4
:100300000300C00F0C46009021F0004123F000458F
:10031000B8EB0200A94105D24046214690461C4652
:100320000B46024623F00040104347D0270DC7F389
:100330000A00C3F30A510290401A019040286BDA78
:10034000C3F3130040F4801B0098924620B10023B1
:10035000D2EB030A63EB0B0B01985946C0F1400244
:10036000504600F00CFA06460D4650465946019A92
:1003700000F024FA10EB08006141002487EA1152D2
:1003800084EAE7731A4340D0009A62B3019A012AC3
:100390004FEA075215DC001B61EB02014FF00042EF
:1003A00002EA0752CDE90042001C41F580113246B5
:1003B0002B4600F05BFA03B0BDE8F08F40462146C3
:1003C000F9E7001B61EB0201001C41F580130018E6
:1003D0005B412018A2F5001747EB030140EAD570F6
:1003E000B6196D4111E06D084FEA360645EAC07551
:1003F0004FEA0752001B61EB0201001C41F580111E
:1004000049084FEA30000019514132462B4603B0EB
:10041000BDE8F04F00F01BBA009801224000002315
:10042000D0EB020263EBE073009821464FEAE074E0
:10043000B8EB000061EB0401E9E783F000435BE700
:1004400081F0004158E72DE9FE4F81EA030404F0F2
:10045000004421F0004100944FF0000B23F00043D2
:1004600050EA01045ED052EA03045BD0C3F30A549D
:10047000C1F30A552C44A4F2F3340194A0FB0254B6
:10048000C1F3130141F48011C3F3130343F4801348
:1004900001FB024400FB034E840A970A44EA81549C
:1004A00047EA8357A4FB076802958D0A05FB078579
:1004B0004FEA932C04FB0C542705029D4FEA065883
:1004C00047EA1637B5EB08056EEB070C870E920E60
:1004D00047EA811742EA8312A7FB0201B6EB0B0140
:1004E00064EB00042B0D43EA0C335E1844EB1C5004
:1004F000DA465146E7FB0201C5F313044FEA0B331A
:1005000043EA14534FEA0432019C43EA0603A4F180
:100510000C040294009CCDE900B400F0A7F903B0EC
:10052000BDE8F08F00200146F9E72DE9F04D81EAA2
:10053000030404F0004B21F0004514464FF0000A7C
:1005400023F0004150EA050220D054EA01021DD0F8
:10055000C5F30A570246C5F31303C1F31300C1F3F1
:100560000A5640F4801543F48013A7EB0608101BCD
:10057000D64608F2FD3873EB050002D308F10108F6
:1005800001E092185B41B8F1000F03DA0020014648
:10059000BDE8F08D00204FF48011064684460EE041
:1005A000171B73EB050705D3121B63EB050306430B
:1005B0004CEA010C49084FEA300092185B4150EABE
:1005C0000107EDD152EA030012D082EA040083EA67
:1005D0000501084305D0101BAB4106D201220023C0
:1005E00006E000224FF0004302E06FF001025310DA
:1005F0001AEB06004CEB085110EB0A0041EB0B0123
:10060000BDE8F04D00F023B9C10F80EAE070084466
:10061000CA079623002100F0ECB80EB5C10F80EA9E
:10062000E0700844CA07002140F233438DE80E0011
:100630000A460B4600F01AF903B000BD00F0004274
:1006400020F00040C10DC0F3160040F400007F29E7
:1006500001DA00207047962903DCC1F19601C840F9
:1006600001E096398840002AF4D04042704720F0DB
:100670000040C10DC0F3160040F400007F2901DAEC
:1006800000207047962903DCC1F19601C8407047ED
:1006900096398840704700F0004230F000400AD0A0
:1006A000C10D01F56071C0F3160042EA0151C208A4
:1006B00040071143704700200146704701F0004396
:1006C00030B421F0004150EA010206D00A0DA2F533
:1006D0006072C1F31301002A02DC30BC00207047B5
:1006E000440F44EAC104C100E01830BC00EBC25022
:1006F00000F076B8002801DBC0F10040002901DBE2
:10070000C1F1004181427047002801DBC0F1004087
:10071000002901DBC1F10041884270472DE9F05FFB
:100720000546002092469B46884606468146402460
:100730001BE0284641464746224600F02FF8534624
:100740005A46C01A914110D311461846224600F06D
:1007500016F82D1A67EB01084F46224601200021AA
:1007600000F00DF817EB00094E41201EA4F1010422
:10077000DFDC484631462A464346BDE8F09F202A42
:1007800004DB203A00FA02F1002070479140C2F1E8
:10079000200320FA03F3194390407047202A04DB1A
:1007A000203A21FA02F00021704721FA02F3D040EA
:1007B000C2F120029140084319467047202A06DB07
:1007C000CB17203A41FA02F043EAE07306E041FA1F
:1007D00002F3D040C2F1200291400843194670470D
:1007E0000029A8BF7047401C490008BF20F0010045
:1007F000704710B4B0FA80FC00FA0CF050EA010423
:1008000004BF10BC704749B1CCF1200421FA04F4B4
:1008100011FA0CF118BF012121430843A3EB0C018D
:10082000CB1D4FEA00614FEA102042BF002010BCF0
:10083000704700EBC35010440029A4BF10BC7047A0
:10084000401C490008BF20F0010010BC704710B5E3
:10085000141E73F1000408DA401C41F100019218E3
:100860005B411A4301D120F0010010BD2DE9F04D8C
:1008700092469B4611B1B1FA81F202E0B0FA80F2E1
:1008800020329046FFF77BFF04460F4640EA0A00FD
:1008900041EA0B0153465A46084313D0114653EA26
:1008A000010019D0C8F140025046FFF777FF054616
:1008B0000E46504659464246FFF761FF084305D0B1
:1008C000012004E020463946BDE8F08D00200543B4
:1008D00046EAE0762C4337430A986305E40AA0EB26
:1008E00008000022FD0A44EA47540A3002D50020DD
:1008F0000146E9E7010510196941DDE908450019DC
:100900006941BDE8F04DA2E7064C074D06E0E068FE
:1009100040F0010394E8070098471034AC42F6D346
:10092000FFF70AFCC8310008E831000870B521F073
:10093000004303430CD0C1F30A550024D5EB040552
:1009400064EB0403D617AD1AB34102DB0020014665
:1009500070BD201841EB025170BD00BFFEE70000E2
:100960002DE9F04786B08246BAF1000F45D04748DE
:100970000068FFF790FE04460D4645480068FFF703
:100980008AFE444A444BCDE90001FFF756FD8046FC
:100990000022424BFFF757FD06460022404BFFF76F
:1009A000C4FD22462B46CDE90201FFF7A5FCCDE9A7
:1009B0000401FFF783FE3B4908603B480068FFF7EE
:1009C0006AFE0646394A3A4BFFF73DFD04460D469E
:1009D00034480068FFF75FFE0646364A364BFFF79D
:1009E00032FD22462B46CDE90401FFF785FC804607
:1009F000FFF764FE2549086044E030480068FFF7CF
:100A00004AFE06460F462E480068FFF744FE32466F
:100A10003B46CDE9000102F00DF98046294A2A4BF8
:100A2000FFF783FD0022294BCDE90201FFF70BFD03
:100A300004464FF06632264BFFF7FFFCCDE9040178
:100A4000FFF73CFE2349244A127841F8220022484D
:100A50000078401CC0B220490870022801DD002047
:100A600008701C4A51681068FFF77EFB054619485C
:100A700081682846FFF778FB04461849FFF7FEFB1C
:100A80000949086006B0BDE8F08700006800002052
:100A90004C000020A088450C3B4CED3F000034404A
:100AA00000408F4080000020740000207B14AE477F
:100AB000E17A943F5C8FC2F5285CEF3F480000204C
:100AC0004400002044174154FB2109400080664047
:100AD0006666F63FC80100208C0000200000404000
:100AE0002DE9F04786B08246BAF1000F47D047485B
:100AF0000068FFF7D0FD04460D4645480068FFF743
:100B0000CAFD444A444BCDE90001FFF796FC8046FC
:100B10000022424BFFF797FC06460022404BFFF7AE
:100B200004FD22462B46CDE90201FFF7E5FBCDE9A6
:100B30000401FFF7C3FD3B4908603B480068FFF72D
:100B4000AAFD06464FF03332384BFFF77CFC0446D3
:100B50000D4634480068FFF79EFD06464FF03332DD
:100B6000334BFFF770FC22462B46CDE90401FFF71B
:100B7000C3FB8046FFF7A2FD2449086043E02D48EF
:100B80000068FFF788FD06460F462B480068FFF710
:100B900082FD32463B46CDE9000102F04BF880462B
:100BA000264A274BFFF7C1FC0022264BCDE9020164
:100BB000FFF749FC0446244A244BFFF73EFCCDE9ED
:100BC0000401FFF77BFD2249224A127841F82200F6
:100BD00020480078401CC0B21E490870022801DD80
:100BE000002008701A4A51681068FFF7BDFA0546E0
:100BF000174881682846FFF7B7FA04461649FFF7F9
:100C00003DFB0949086006B0BDE8F0876C00002094
:100C100050000020E869C020E993EE3F0000344016
:100C200000408F4084000020780000203333C33F11
:100C30003333EB3F4800002040000020441741546C
:100C4000FB21094000806640CDCCCCCCCCCC084008
:100C5000D40100208D000020000040402DE9F04725
:100C600086B08246BAF1000F38D01E480068FFF700
:100C700012FD06461C4A1D4BFFF7DFFB00221C4BF2
:100C8000CDE90001FFF7DFFB04460022194BFFF717
:100C90004CFC8046894618480068FFF7FCFC424639
:100CA0004B46CDE90201FFF727FBCDE90401FFF731
:100CB00005FD1149086008460068104908600E48A3
:100CC0000068FFF7BBFC041E01DB204600E0604229
:100CD000B0F5B47F02DB00200749086006B0BDE82C
:100CE000F0870000540000209B1BD3139678C6BFEA
:100CF0000000344000408F40880000207000002039
:100D000070B506460D46144621462846FFF7F2FC0C
:100D10000DD029463046FFF7F7FC01D8284670BDB4
:100D200021463046FFF7E6FC01D82046F7E730467B
:100D3000F5E7704710B54021104800F04AF9A0B916
:100D40000F4800880F49104A127821F812000E4807
:100D50000078401C0C49087000210948243801F033
:100D6000EEF800200649088004E0012104482438F8
:100D700001F0E5F8402000F031F810BD0008014016
:100D8000240400408C010020320000200EB500F049
:100D9000EBFD0121084600F049FC0621002000F08F
:100DA0006DF84020019000208DF8080010208DF88B
:100DB000090001208DF80A0001A800F015F817209D
:100DC0008DF8000000208DF801008DF80200012050
:100DD0008DF80300684600F0D5FB0EBD01490860A0
:100DE0007047000014040140002123498279002A41
:100DF0003AD00A46126803689A430B461A600A1DE5
:100E0000126803689A430B1D1A60027911440A683C
:100E100003681A430A60184A0832126803689A4342
:100E2000154B08331A601A1D126803689A43124B57
:100E30000C331A604279102A0ED11A1F1268036807
:100E40001A430D4B08331A601A1D126803681A43BF
:100E5000094B0C331A600DE00749427911440A68C6
:100E600003681A430A6005E0027911440A680368BE
:100E70009A430A60704700000004014030B5002228
:100E80008B071C0F0F2303FA04F20B4B8C1053F843
:100E900024309343084C8D1044F8253023468C10A1
:100EA00053F824308C07240F00FA04F42343024C37
:100EB0008D1044F8253030BD080001402DE9F04187
:100EC000024600250026002000230024002791F878
:100ED00003C00CF00F0591F803C00CF0100CBCF12E
:100EE000000F03D091F802C04CEA050591F800C04C
:100EF000BCF1000F31D0146800202BE04FF0010C42
:100F00000CFA00F3B1F800C00CEA03069E4220D1AF
:100F100083004FF00F0C0CFA03F7BC4305FA03FCF7
:100F20004CEA040491F803C0BCF1280F06D14FF03D
:100F3000010C0CFA00FCC2F814C00AE091F803C0DE
:100F4000BCF1480F05D14FF0010C0CFA00FCC2F8BF
:100F500010C0401C0828D1D31460B1F800C0BCF107
:100F6000FF0F34DD546800202EE000F1080C4FF034
:100F7000010808FA0CF3B1F800C00CEA03069E421F
:100F800021D183004FF00F0C0CFA03F7BC4305FA94
:100F900003FC4CEA040491F803C0BCF1280F05D10E
:100FA00000F1080C08FA0CF8C2F8148091F803C09C
:100FB000BCF1480F07D100F1080C4FF0010808FA06
:100FC0000CF8C2F81080401C0828CED35460BDE84D
:100FD000F0810246002093680B400BB1012000E035
:100FE00000207047416170470161704703460AB1B4
:100FF000196100E059610020704700BFFEE77FB52E
:1010000008AC70CC0021016041608160C160016169
:1010100001994161029981610399C16100210162D5
:1010200041628162C1620463456386637FBD0000E3
:101030000EB5234823494FF08342CDE900210290A9
:1010400021480EC82148FFF7DAFF1D481D494FF01F
:101050008342CDE9002102901D480EC81D48FFF7CC
:10106000CEFF174800211C4ACDE9002102901B4801
:101070000EC81B48FFF7C3FF114812494FF08342C7
:10108000CDE90021029017480EC81748FFF7B7FFB7
:101090000B480C494FF08342CDE9002102901348E0
:1010A0000EC81348FFF7ABFF054812490A4ACDE9BD
:1010B0000021029010480EC81048FFF7A0FF0EBD97
:1010C0000AD7A33C000080C148030020E0010020B3
:1010D000540300201C020020000010426003002086
:1010E00058020020AC00002094020020B80000202C
:1010F000D0020020000010C26C0300200C0300206E
:1011000010B54FF4A06000F075FA4FF4E13001F033
:1011100089FF01F0D7FE00F013F800F03BF8FFF76D
:1011200087FF00F00BF9C82001F0EEFE00F0BAF8DE
:10113000C82001F0E9FEFFF729FE01F0D5F810BD47
:1011400008B50121402000F071FA10208DF803004D
:101150002020ADF8000003208DF8020069460C48FD
:10116000FFF7ACFE20210A48FFF73CFF10208DF866
:1011700003004020ADF8000003208DF8020069460E
:101180000348FFF79BFE40210148FFF72BFF08BDF6
:101190000018014000B589B00121082000F046FA8E
:1011A0004FF47070ADF8200018208DF82300032054
:1011B0008DF8220008A92748FFF780FE01210420AE
:1011C00000F024FA0121084600F030FA4720ADF87B
:1011D000140040F6C310ADF818000020ADF816005A
:1011E000ADF81A0005A91C4801F02CF86020ADF8F4
:1011F00004000120ADF806000020ADF80C0040F21C
:101200003D30ADF80A0001A9134800F0BFFE0821E7
:10121000114800F007FF01A90F4800F00DFF082159
:101220000D4800F05BFF01A90B4800F065FF0821A5
:10123000094800F0B1FF01A9074800F0B7FF0821F5
:10124000054800F0F1FF0121034800F078FE09B0E5
:1012500000BD0000000C01400008004030B504460D
:101260000D48007858B90D48007840B10C4804800A
:10127000001D0180001D0280001D038009E040F276
:10128000D920074D28802D1D28802D1D28802D1D3B
:101290002880002030BD0000640000206500002090
:1012A0003408004010B501F00DFE00226B21D02063
:1012B00000F097FC07221921D02000F092FC0622B2
:1012C0001A21D02000F08DFC18221B21D02000F024
:1012D00088FC00221C21D02000F083FC10BD0000FF
:1012E00000B500200E4908600E48006820F4700028
:1012F0000C4908600846006840F44010086000206F
:101300000949C1F8B40100F011F80120044908604E
:1013100000F00CF800200449C1F8B00100BD000045
:10132000B0812142040C0140008021421E2001E0D6
:10133000411EC8B20028FBD17047000008B501214A
:10134000082000F073F94FF44050ADF80000102071
:101350008DF8030003208DF8020069460448FFF76A
:10136000ADFD4FF440510248FFF73EFE08BD0000BE
:10137000000C014000B500200E4908600E480068CE
:1013800020F470000C4908600846006840F44010E2
:10139000086001200949C1F8B401FFF7C7FF012027
:1013A00004490860FFF7C2FF00200449C1F8B001FA
:1013B00000BD0000B0812142040C014000802142A8
:1013C00010B5034600221648006820F47000144946
:1013D00008600846006840F400000860002414E03B
:1013E000002010490860FFF7A1FF01200E49C1F855
:1013F000B0015006020E0B487C38006808B1501C42
:10140000C2B2FFF793FF601CC4B2082CE8DB13B92B
:10141000FFF7B0FF01E0FFF763FF104610BD0000CB
:10142000040C0140B08121420080214200B50246F7
:101430001248006820F470001049086008460068EF
:1014400040F44010086000200D490860002312E0BD
:10145000D0090B49091D08605006020E01200949F8
:10146000C1F8B001FFF762FF002005490860FFF7EF
:101470005DFF581CC3B2082BEADB00BD040C014021
:10148000B08121420080214200B50E48006820F45E
:1014900070000C4908600846006840F4401008607D
:1014A0000120094908600949C1F8B001FFF73EFF72
:1014B000002005490860FFF739FF00200349C1F803
:1014C000B00100BD040C0140B481214200802142E2
:1014D00000B50E48006820F470000C49086008460A
:1014E000006840F44010086000200949086009497C
:1014F000C1F8B401FFF71AFF01200549086005494A
:10150000C1F8B401FFF712FF00BD0000040C014058
:10151000B08121420080214200B5002214480068B9
:1015200020F47000124908600846006840F400008A
:10153000086001200F490860FFF7F8FE01200E49FE
:10154000C1F8B001FFF7F2FE07E0501CC2B2FA2A60
:1015500003DDFFF7BDFF012000BD064880380068AD
:101560000028F2D10349091F086000BFF4E700001A
:10157000040C0140B48121420080214200BFFEE7FB
:101580007047000070B5002100230F22C47804B317
:10159000154C246804F4E064C4F5E064210AC1F148
:1015A0000403CA40447804FA03F1847814402143C8
:1015B00009010E4C0678A155047804F01F0501249A
:1015C000AC4005786D11AD0005F1E025C5F800418E
:1015D00009E0047804F01F050124AC40044D0678AE
:1015E000761145F8264070BD0CED00E000E400E007
:1015F00080E100E002490143024A116070470000A7
:101600000000FA050CED00E07047000029B1064A21
:10161000D2690243044BDA6104E0034AD26982438F
:10162000014BDA61704700000010024029B1064A00
:1016300092690243044B9A6104E0034A926982432F
:10164000014B9A61704700000010024030B5002144
:101650000022002400232D4D6D6805F00C0121B1FE
:10166000042905D0082923D105E0294D056022E091
:10167000274D05601FE0254D6D6805F47012234D60
:101680006D6805F48034022505EB92421CB9214DAA
:10169000554305600BE01D4D6D6805F400351DB127
:1016A0001C4D5543056002E0194D5543056002E0AD
:1016B000174D056000BF00BF144D6D6805F0F001C7
:1016C0000909154D6B5C0568DD4045600F4D6D687F
:1016D00005F4E061090A104D6B5C4568DD408560EA
:1016E0000A4D6D6805F46051C90A0B4D6B5C456885
:1016F000DD40C560054D6D6805F44041890B074D1F
:101700006B5CC568B5FBF3F5056130BD00100240A8
:1017100000127A0000093D001E0000202E0000206B
:101720000246084830F81200401A322806DC054804
:1017300030F81200401A10F1320F01DA0020704721
:101740000120FCE78C01002070B53C21D02000F086
:1017500027FA344908703B21D02000F021FA3149A2
:10176000487008460078497840EA012000B22E49C6
:1017700008800846B0F90000FEF746FF05462B49F1
:10178000FEF74AFD04464FF08E41FEF777FD2849EB
:1017900008603E21D02000F003FA224988703D21E4
:1017A000D02000F0FDF91F49C87008468078C9783C
:1017B00040EA012000B21F4908800846B0F9000045
:1017C000FEF722FF05461949FEF726FD04464FF0B5
:1017D0008E41FEF753FD184908604021D02000F0EB
:1017E000DFF9104908713F21D02000F0D9F90D49E7
:1017F000487108460079497940EA012000B20F4952
:1018000008800846B0F90000FEF7FEFE05460749CD
:10181000FEF702FD04464FF08E41FEF72FFD08490A
:10182000086070BD9E01002038000020CDCC9C4196
:10183000400000203A000020440000203C0000202E
:10184000480000202DE9F0414421D02000F0A8F903
:101850003C4908704321D02000F0A2F93949487072
:1018600008460078497840EA012000B236490880ED
:101870000846B0F90000FEF7D0FE06464FF066328B
:10188000324BFEF752FE0446FEF718FF304908605F
:101890004621D02000F084F92A4988704521D020C3
:1018A00000F07EF92749C87008468078C97840EA78
:1018B000012000B2274908800846B0F90000FEF771
:1018C000ACFE06464FF06632204BFEF72EFE044675
:1018D000FEF7F4FE204908604821D02000F060F9AE
:1018E000184908714721D02000F05AF9154948716C
:1018F00008460079497940EA012000B2174908807A
:101900000846B0F90000FEF77FFE05461449FEF7D1
:1019100083FC04464FF08E41FEF7B0FC114908608D
:101920000E48B0F90000FEF778FE06464FF066322A
:10193000064BFEF7FAFD0446FEF7C0FE09490860B3
:10194000BDE8F0819E01002038000020666630402E
:101950004C0000203A000020500000203C000020F5
:101960000000FA445400002008B501210420FFF7CC
:101970005DFE4020ADF8000048208DF803000320F4
:101980008DF8020069460348FFF798FA00200249E3
:10199000087008BD000801403200002070470000B8
:1019A0002DE9F74F8CB0834631480068FEF773FE8F
:1019B0000746304A304BFEF740FD81F000410546B6
:1019C000FEF77CFE04462D480068FEF764FE0746DD
:1019D0002B4A2C4BFEF731FD0546FEF76FFE0B90B0
:1019E00029480068FEF757FE0746284A284BFEF7AD
:1019F00024FD81F000410546FEF760FE8146254842
:101A0000006880F000400A9023480068FEF743FE1B
:101A10000746224A224BFEF710FD0546FEF74EFE12
:101A2000824620480068FEF736FE07464FF0333204
:101A30001D4BFEF702FD81F000410546FEF73EFE1C
:101A400009901A481A491B4ACDE90442CDE906100B
:101A5000DDE90A10CDE900A1CDE902905846099BC5
:101A6000DDE90D1201F0E6F90FB0BDE8F08F0000DE
:101A7000540000209B1BD3139678C6BF5000002053
:101A8000E869C020E993EE3F4C000020A088450C97
:101A90003B4CED3F700000206C000020CDCCCCCC46
:101AA000CCCC0440680000203333F33F9800002082
:101AB000940000209000002010B500F001F810BD47
:101AC0000CB50020019000903348006840F480304D
:101AD0003149086000BF3048006800F400300090D1
:101AE0000198401C0190009818B90198B0F5A06FBA
:101AF000F1D12948006800F4003010B101200090B5
:101B000001E0002000900098012843D1234800689C
:101B100040F01000214908600846006820F00300EA
:101B200008600846006840F0020008601A484068F3
:101B3000194948600846406848600846406840F4D3
:101B4000806048600846406820F47C104860084681
:101B5000406840F4E81048600846006840F0807033
:101B6000086000BF0C48006800F000700028F9D041
:101B70000948406820F0030007494860084640686B
:101B800040F00200486000BF0348406800F00C00CD
:101B90000828F9D10CBD00000010024000200240CE
:101BA00070B504460D46FFF76FFC2046FFF73EFC7C
:101BB000FFF7B2FC2846FFF739FCFFF7ADFCFFF753
:101BC00063FC611CC8B2FFF731FCFFF7A5FC0020E5
:101BD000FFF7F6FB0646FFF7CDFBFFF779FC304633
:101BE00070BD70B506460C461546FFF74DFC3046F5
:101BF000FFF71CFCFFF790FC2046FFF717FCFFF7F0
:101C00008BFC2846FFF712FCFFF786FCFFF760FC11
:101C100000BF012070BD042808D14FF0E021096900
:101C200041F004014FF0E022116107E04FF0E021A4
:101C3000096921F004014FF0E022116170477047FB
:101C400010B51348006840F00100114908600846CB
:101C50004068104908400E494860084600680E492F
:101C600008400B4908600846006820F4802008609E
:101C70000846406820F4FE0048604FF41F0088606A
:101C8000FFF71AFF4FF000600449086010BD000024
:101C9000001002400000FFF8FFFFF6FE08ED00E034
:101CA00010B50121880700F056F9002840D04FF404
:101CB00016710720FFF734FD08B9012000E000206D
:101CC0001C4908704FF416710320FFF729FD98B1E5
:101CD0004FF4C8610620FFF723FD17490870002064
:101CE0001649C8601649C8601649C8601649C860D8
:101CF0001649C8601649C86016480078401CC0B232
:101D00001449087028280FDB40211348FFF761F9B8
:101D100008B9012000E000200446224640210E4878
:101D2000FFF764F90B4908700121880700F004F9F6
:101D300010BD00006400002065000020E0010020CC
:101D40001C0200205802002094020020D002002033
:101D50000C030020330000200018014010B50121C1
:101D6000134800F0F8F808B3002012490870012069
:101D70001149088011480078401CC0B20F49087012
:101D800032280FDB20210E48FFF723F908B9012084
:101D900000E000200446224620210948FFF726F9EA
:101DA000064908700121024800F0C6F810BD000085
:101DB00000040040320000208C010020340000208C
:101DC000001801402DE9F0410121524800F0C3F80C
:101DD00000287DD05048C088A0F5167004B2FFF7E7
:101DE00031FD0020FEF7BCFD0020FEF779FE01204A
:101DF000FEF7B6FD0120FEF773FE0120FEF72EFF71
:101E0000002211461046FFF7CBFD04F23D30FEF7ED
:101E1000FBFB0746414801683846FEF7F7F90646DE
:101E20003F4801683046FEF7F1F905463D48016834
:101E30002846FEF799F93C49086004F23D30FEF768
:101E4000E3FB0746354801683846FEF78DF906463C
:101E5000334801683046FEF787F905463148016886
:101E60002846FEF781F93149086004F23D30FEF75B
:101E7000CBFB0746294801683846FEF7C7F90646F6
:101E8000274801683046FEF76FF905462548016886
:101E90002846FEF7BBF92649086004F23D30FEF7FC
:101EA000B3FB07461D4801683846FEF75DF9064654
:101EB0001B4801683046FEF7A9F905461948016834
:101EC0002846FEF7A3F91B4908600846006800E0B1
:101ED0001DE0FEF7CCFB85B215480068FEF7C7FB96
:101EE00086B212480068FEF7C2FB87B20E4800684F
:101EF000FEF7BDFB1FFA80F82B46324639464046B6
:101F0000FFF7ACF90121034800F016F800BFBDE867
:101F1000F0810000000C00408C01002090000020A7
:101F200094000020980000209C000020A0000020C9
:101F3000A4000020A8000020CA430282704721B1FB
:101F4000028842F00102028004E002884FF6FE732C
:101F50001A400280704730B502460020002300245A
:101F6000158A05EA0103958905EA010413B10CB14C
:101F7000012000E0002030BD1AB183890B4383812A
:101F800002E083898B4383817047000070B5002491
:101F900000220023058C4FF6FE7635400584028C26
:101FA0008388048B4FF68F752C40B51E2C400D880E
:101FB0002C43751E2A400D892A434D882A43144D0F
:101FC000A8420BD0134DA84208D0134DA84205D00B
:101FD000124DA84202D0124DA84213D14FF6F77508
:101FE0002A404D892A434FF6FB752A408D882A43A3
:101FF0004FF6FF652B404FF6FF552B408D892B4345
:10200000CD892B4383800483CD888586028470BD6F
:10201000002C0140003401400040014000440140D8
:10202000004801400A460021018B4FF6F773194022
:10203000114301837047000070B500240022002383
:10204000058C4FF6EF7635400584028C8388048B2F
:1020500048F6FF752C404FF6FF452C400D884FF693
:10206000FF7606EA05252C434FF6DF752A400D89D9
:1020700006EA05152A434D8806EA05152A43154D3B
:10208000A84202D0144DA8421DD14FF67F752A40B8
:102090004D894FF6FF7606EA05152A434FF6BF75C0
:1020A0002A408D8806EA05152A434FF6FF352B4056
:1020B0004FF2FF752B408D8906EA85052B43CD89AC
:1020C00006EA85052B4383800483CD880587028437
:1020D00070BD0000002C0140003401400A46002180
:1020E000018B4FF2FF7319404FF6FF7303EA02238F
:1020F000194301837047000070B5002400220023BB
:10210000058C4FF6FF6635400584028C8388848BEE
:102110004FF68F752C404FF6FC752C400D882C43E4
:102120004FF6FF552A400D894FF6FF7606EA052542
:102130002A434D8806EA05252A43154DA84202D0B8
:10214000144DA8421DD14FF2FF752A404D894FF61C
:10215000FF7606EA05252A434FF6FF352A408D888B
:1021600006EA05252A434EF6FF752B404DF6FF750E
:102170002B408D8906EA05152B43CD8906EA051506
:102180002B4383808483CD888587028470BD0000C3
:10219000002C0140003401400A460021818B4FF69B
:1021A000F7731940114381837047000070B5002216
:1021B00000230024058C4EF6FF7635400584038C01
:1021C0008488828B48F6FF752A404FF6FF452A40E7
:1021D0000D884FF6FF7606EA05252A434DF6FF7572
:1021E0002B400D8906EA05352B434D8806EA053557
:1021F0002B430B4DA84202D00A4DA84208D14BF602
:10220000FF752C408D894FF6FF7606EA85152C4325
:1022100084808283CD88A0F84050038470BD000084
:10222000002C0140003401400A460021818B4FF20E
:10223000FF7319404FF6FF7303EA022319438183AA
:1022400070470000002202881D4B98420ED01D4BA3
:1022500098420BD0B0F1804F08D01B4B984205D06C
:102260001A4B984202D01A4B984204D14FF68F7302
:102270001A404B881A43174B984207D0164B984286
:1022800004D04FF6FF431A40CB881A4302808B8854
:1022900083850B8803850A4B98420BD0094B9842E3
:1022A00008D00E4B984205D00D4B984202D00D4BF2
:1022B000984201D10B7A0386012383827047000084
:1022C000002C0140003401400004004000080040A0
:1022D000000C00400010004000140040004001408D
:1022E00000440140004801401FB501210846FFF7A6
:1022F0008DF94720ADF8040040F2CF70ADF808002A
:102300000020ADF80600ADF80A0001A94FF08040AA
:10231000FFF798FF012211469007FFF72DFE1C20C2
:102320008DF8000000208DF8010004208DF80200D7
:1023300001208DF803006846FFF724F90121880782
:10234000FFF7FDFD01210220FFF760F94720ADF8FE
:10235000040040F2CF70ADF808000020ADF8060090
:10236000ADF80A0001A92448FFF76CFF01221146CD
:102370002148FFF701FE1D208DF8000000208DF898
:10238000010003208DF8020001208DF8030068464B
:10239000FFF7F8F801211848FFF7D1FD01210820C7
:1023A000FFF734F94720ADF8040044F61F60ADF89C
:1023B00008000020ADF80600ADF80A0001A90F489A
:1023C000FFF740FF012211460C48FFF7D5FD3220F0
:1023D0008DF8000001208DF8010000208DF802002A
:1023E00001208DF803006846FFF7CCF8012103486F
:1023F000FFF7A5FD1FBD000000040040000C0040D9
:1024000010B540F225511D4800F04AF810B31B48A2
:1024100000F002F9C4B21A48008800F40040C8B9BC
:102420001748008800F4804060B10A2C03D00020D7
:102430001349088020E01248008840F40040104909
:10244000088019E00D2C06D10D48008840F480402A
:102450000B49088010E00A480088C0F30D000949C4
:102460000C5407480088401C05490880084600882D
:10247000C72801DD0020088010BD000000380140A1
:102480001C000020C400002021B1828942F40052C7
:10249000828104E082894DF6FF731A408281704781
:1024A00070B50246002400230025002040F66A167D
:1024B000B14200D100BFC1F3421501F01F03012654
:1024C00006FA03F3012D02D19689334006E0022D6E
:1024D00002D1168A334001E0968A33400C1201265D
:1024E00006FA04F41688344013B10CB1012000E060
:1024F000002070BDF0B50346002400260025002012
:1025000040F66A17B94200D100BF1846C1F3421421
:1025100001F01F06012707FA06F5012C01D10C3046
:1025200004E0022C01D1103000E014301AB1076829
:102530002F43076002E00768AF430760F0BD00006B
:102540002DE9F04786B005460E460024A24600BF9E
:10255000A1460027B08900B100BF2F462C8A4CF657
:10256000FF700440F08804432C82AC894EF6F310CF
:102570000440B08831890843718908430443AC8121
:10258000AC8A4FF6FF400440B0890443AC8201A8F6
:10259000FFF75CF81F48874202D1DDF810A001E088
:1025A000DDF80CA0A88900F4004040B10AEBCA0095
:1025B00000EB0A1031684900B0FBF1F807E00AEBC4
:1025C000CA0000EB0A1031688900B0FBF1F8642002
:1025D000B8FBF0F004012009642101FB1089A889EF
:1025E00000F4004040B1322000EBC900B0FBF1F034
:1025F00000F00700044308E0322000EB09106421DA
:10260000B0FBF1F000F00F0004432C8106B0BDE8F0
:10261000F08700000038014001468888C0F30800B8
:10262000704700BFFEE700000FB4054B10B503A9CB
:10263000044A029800F08EF810BC5DF814FB00000C
:10264000552F000818000020490050EAC12018BF8B
:1026500004204A0D18BF40F0010040F2FF72B2EBB7
:10266000515F08BF40F00200012808BF05207047F5
:102670002DE9F0414F1E00EBC7010446D1E90001EE
:1026800015461E4637F006020DD02A463346FDF7A2
:10269000DAFE7F1E04EBC703D3E90023FDF72CFE0F
:1026A00037F00602F1D1022F25D0042F13D0062FC8
:1026B00018BFBDE8F0812A463346FDF7C4FED4E9D1
:1026C0000A23FDF719FE2A463346FDF7BCFED4E97E
:1026D0000823FDF711FE2A463346FDF7B4FED4E980
:1026E0000623FDF709FE2A463346FDF7ACFED4E982
:1026F0000423FDF701FE2A463346FDF7A4FED4E984
:102700000223FDF7F9FD2A463346FDF79CFED4E986
:102710000023BDE8F041FDF7EFBD0122FEF706B949
:10272000FDF7EABD024A00201107FEF7FFB80000DE
:1027300001FDFFFF02E008C8121F08C1002AFAD1FC
:1027400070477047002001E001C1121F002AFBD131
:10275000704700002DE9FF4F8DB09B460F460446A1
:10276000002606E025280BD05A460F999047641C96
:10277000761C20780028F5D111B03046BDE8F08FE6
:102780000025A8460122984900E0054314F8013FBE
:10279000203B02FA03F00842F7D120782E2817D107
:1027A00014F8010F45F004052A280ED06FF02F020F
:1027B0002078A0F1300109290AD808EB880102EB42
:1027C000410100EB0108641CF2E757F8048B641C1C
:1027D00020786C280DD004DC4C2812D06A2811D146
:1027E00004E074280DD07A280CD10AE045F40015D5
:1027F00007E0617845F48015814202D1641C05F53B
:102800008015641C2278692A45D008DC002AB3D0E0
:10281000582A69D0632A10D0642A08D13BE0702A74
:1028200067D0732A13D0752A5CD0782A5CD0104602
:102830005A460F999047761CD3E017F8040B8DF891
:10284000000000208DF80100E946012003E057F860
:10285000049B4FF0FF3069074FF0000501D40AE0F8
:102860006D1C45450DDA8542FADB19F80510002983
:10287000F6D106E06D1C8542FCDB19F80510002935
:10288000F8D12E4404E019F8010B5A460F999047ED
:102890006D1EF8D2A5E00A200021CDE90801C5F39C
:1028A000025002280DD001CFC117031E71F10003A1
:1028B0000DDA4FF0000CD0EB0C006CEB01012D2376
:1028C00008E0FF1D27F00707F7E80201EDE72B05F9
:1028D00004D52B238DF8283001233BE0EB0739D0BA
:1028E0002023F7E70A2000E010200021CDE90801AD
:1028F00007E01020002145F00405CDE908014FF064
:102900000808C5F3025002280FD001CF00214FF074
:10291000000A2B071FD5702A0DD0DDE908C38CF003
:10292000100C5CEA030C0CD015E0FF1D27F0070724
:10293000F7E80201EBE740228DF828204FF0010A6A
:102940000BE050EA010306D030238DF828308DF8D3
:10295000292002239A46582A04D024A20DF12009E6
:102960000B9209E026A2F9E7DDE90823FDF7D6FE80
:102970000B9B9B5C09F8013D50EA0102F4D1ADEBE1
:10298000090020300890680701D44FF00108089929
:10299000884502DDA8EB010000E00020804600250C
:1029A00006E00AA85A46405D0F9990476D1C761CB8
:1029B0005545F6DB04E030205A460F999047761CC7
:1029C000B8F10001A8F10108F5DC05E019F8010BE8
:1029D0005A460F999047761C0899481E089000297E
:1029E000F4DC641CC5E600000928010030313233F4
:1029F000343536373839616263646566000000003B
:102A00003031323334353637383941424344454624
:102A1000000000002DE9F84F04460D4621F000406B
:102A200000917349814211DC7249884201DC06D170
:102A30002CB120462946BDE8F84FFFF76EBE6E4820
:102A4000002DCCBF6D496E49BDE8F88F6D498142BC
:102A500011DD6D498142D8BF4FF0FF366DDD204654
:102A60002946FFF7F1FD042808BFFFF75BFE20466B
:102A70002946BDE8F88F6549654F25F0004581423C
:102A800033DD6449814219DD002632464FF0804330
:102A900020462946FDF730FC80468A460122204622
:102AA0002946FDF743FF00223B46FDF7C6FC4246A0
:102AB0005346FDF73AFD04460D463EE0012600224E
:102AC000BA463B4620462946FDF716FC80460F468F
:102AD0000022534620462946FDF7AFFC42463B46BE
:102AE000FDF723FD04460D4627E04B4981421BDDDF
:102AF000DFF828A102260022534620462946FDF78A
:102B0000A2FC00223B46FDF7F7FB80460F46002261
:102B1000534620462946FDF790FC42463B46FDF7CA
:102B200004FD04460D4608E0032622462B460020FD
:102B30003B49FDF7FAFC04460D4622462B4610465B
:102B40001946FDF780FC8B46824602460B46FDF790
:102B50007AFC07460246334888460B4606217844ED
:102B6000FFF786FD52465B46FDF76DFC82462E4818
:102B70008B463A46434605217844FFF779FD3A46AD
:102B80004346FDF760FC02460B46002E5046594670
:102B90000CDAFDF7B1FB22462B46FDF754FC01B0E1
:102BA00022462B46BDE8F04FFDF74ABCFDF7A4FBDB
:102BB00022462B46FDF747FC1C4A7A4402EBC6032B
:102BC000D3E90023FDF739FC22462B46FDF735FCFF
:102BD000174A7A4402EBC603D3E90023FDF730FC21
:102BE000009A002AB8BF81F00041BDE8F88F0000CC
:102BF000000010440000F07F182D4454FB21F93FE1
:102C0000FB21F9BF0000DC3F0000203E0000F33F45
:102C10000000F03F0000E63F008003400000F83F66
:102C20000000F0BFCE0500008C0500002A05000062
:102C3000F20400002DE9F04D9446CCF1000423F09D
:102C400000464CEA0404524F46EAD4749A46884639
:102C500021F00042BC4206D8454240EA050442EA5F
:102C6000D474BC4204D9BDE8F04D6246FFF758BDAC
:102C7000AAF14055A5F17F6555EA0C040BD002245A
:102C800004EAAA74434DDFF810E144EAD87452EA2A
:102C9000000B04D00CE0BDE8F04DFFF7BBBE002CEC
:102CA00014BF012CBDE8F08D022C30D0032C32D0A3
:102CB00056EA0C0B0AD0BE4220D1BA4209D126F006
:102CC000804622F080423346114617E000291ADB85
:102CD00025E0DFF8C8B0FB44002C04BFDBE90001AD
:102CE000BDE8F08D012C02BFDBE9000181F000415D
:102CF000BDE8F08D022C0AD0032C0CD0BA4212D1C0
:102D0000B8F1000F0BDA23482549BDE8F08D2846BD
:102D10002449BDE8F08D28467146BDE8F08D1D4878
:102D20002149BDE8F08D921B12153C2AC4BF1948F9
:102D30001D490EDCBAF1000FBEBF12F13C0F00209E
:102D4000014606DB6246FDF7F0FB21F00041FFF78C
:102D500061FE002C08BFBDE8F08D012C04BF81F09E
:102D60000041BDE8F08D114A114B022C07D0FDF750
:102D700064FB2A46BDE8F04D0A4BFDF75EBBFDF74C
:102D80005CFB2A46BDE8F04D064BFDF759BB000041
:102D90000000F07F182D4454FB2109C08604000078
:102DA000FB21F9BFFB210940FB21F93F075C1433EC
:102DB00026A6A13C2DE9F04104460D461646E768DB
:102DC000256031462068FDF721FA6060616860691E
:102DD000FDF722FA2062A16B6068FDF71DFA8046BC
:102DE0003946FDF7C1F907463846D4E90C12FDF71C
:102DF00087FFE060E168A069FDF70EFA6062D4E940
:102E00000101FDF703FA8046A16BFDF737FA206157
:102E10002169E069FDF700FAA062D4E90801FDF735
:102E2000A3F98046A16AFDF79FF9E0626068A0609F
:102E3000BDE8F0812DE9F05F04460F4615461E46B9
:102E4000DDF844B0DDE90B9ADDF8288032462146F2
:102E50001648FFF7AFFF424639461548FFF7AAFF6D
:102E60004A4629461348FFF7A5FF10485246C16A53
:102E70001148FFF79FFF0E48C16A10480D9AFFF7EF
:102E800099FF0C48C16A0E480E9AFFF793FF0A4853
:102E9000C16A0F9801600948C16A1098016008482A
:102EA000C06ACBF80000BDE8F09F0000E001002000
:102EB0001C0200205802002094020020D0020020B2
:102EC0000C03002010B56FF00400FEF7A4FE0A48C2
:102ED00000680A49B0FBF1F009490870084600781B
:102EE00000EB4001C1EBC0104FF6FF7101EAC000DA
:102EF0000449088010BD00000000002000127A0084
:102F000014000020160000200146114A12884A438E
:102F10004FF0E0235A6100229A611A46126942F08A
:102F200001021A6100BF4FF0E022106900F00102B7
:102F30001AB100F48032002AF5D04FF0E022126975
:102F400022F001024FF0E0231A6100229A617047DB
:102F50001600002000BF054A128802F04002002A35
:102F6000F9D0C2B2014B1B1D1A80704700380140D6
:102F70001CB5FEF7C5F81F48FFF756FB39E0FEF712
:102F8000E3FB1D491D480068FDF746F98146FDF742
:102F900055FB044618491A480068FDF73DF981467B
:102FA000FDF74CFB0546144916480068FDF734F957
:102FB0008146FDF743FB06460F4913480068FDF7BD
:102FC0002BF98146FDF73AFB07460B490F4800688D
:102FD000FDF722F98146FDF731FB804633463A463C
:102FE00041460BA0CDE90054FFF71EFB3220FFF74E
:102FF0008BFFC4E76831000800007A449800002085
:10300000940000206C000020900000206800002048
:103010007B4225643A25643A25643A25643A25645E
:103020007D24000010B586B00446012144F204005E
:10303000FEF7FCFA4FF40070ADF8140003208DF891
:10304000160018208DF8170005A91C48FDF736FF5B
:103050004FF48060ADF8140004208DF8170005A926
:103060001648FDF72BFF25208DF8000003208DF872
:1030700001008DF8020001208DF803006846FEF77C
:1030800081FA01940020ADF80800ADF80A00ADF80F
:103090000C00ADF810000C20ADF80E0001A9084896
:1030A000FFF74EFA012240F225510548FFF722FAB8
:1030B00001210348FFF7E8F906B010BD0008014000
:1030C00000380140000000004FBB610567ACDD3FE8
:1030D000182D4454FB21E93F9BF681D20B73EF3F3F
:1030E000182D4454FB21F93FE2652F227F2B7A3CB7
:1030F000075C143326A6813CBDCBF07A8807703C70
:10310000075C143326A6913CC4EB98999999C9BFE2
:10311000711623FEC671BCBF6D9A74AFF2B0B3BF17
:103120009AFDDE522DDEADBF2F6C6A2C44B4A2BFD7
:103130000D5555555555D53FFF8300922449C23F43
:103140006E204CC5CD45B73F513DD0A0660DB13F77
:10315000EB0D76244B7BA93F11DA22E33AAD903F89
:103160000000000000000000466C69676874436F4F
:103170006E74726F6C6C65722069732072756E6EFE
:10318000696E672E0D0A55415620697320616C7770
:1031900061797320726561647920746F2066616C57
:1031A0006C206C696B6520612073616C74656420B0
:1031B0006669736820776974686F757420647265D6
:1031C000616D2E0A00000000E831000800000020B8
:1031D000C400000034270008AC320008C4000020FE
:1031E000B40600004427000800A24A0400000000C2
:1031F00000000000010203040607080900000000A7
:1032000000000000000000000000010203040102B1
:103210000304060708090204060800000000000075
:10322000000000000000000000000000000000009E
:10323000000000000000000000000000000000008E
:10324000000000000000000000000000000000007E
:10325000000000000000000000000000000000006E
:10326000000000000000000000000000000000005E
:10327000000000000000000000000000000000004E
:10328000000000000000000000000000000000003E
:10329000000000006666663FACC5A73717B7D13798
:0C32A0006666663FACC5A73717B7D1378C
:0400000508000145A9
:00000001FF
